{
  "contractName": "PharmaSupplyChain",
  "abi": [
    {
      "inputs": [],
      "stateMutability": "nonpayable",
      "type": "constructor"
    },
    {
      "anonymous": false,
      "inputs": [
        {
          "indexed": false,
          "internalType": "uint256",
          "name": "batchID",
          "type": "uint256"
        },
        {
          "indexed": false,
          "internalType": "string",
          "name": "drugName",
          "type": "string"
        },
        {
          "indexed": false,
          "internalType": "uint256",
          "name": "quantity",
          "type": "uint256"
        },
        {
          "indexed": false,
          "internalType": "uint256",
          "name": "manufacturingDate",
          "type": "uint256"
        },
        {
          "indexed": false,
          "internalType": "uint256",
          "name": "expiryDate",
          "type": "uint256"
        },
        {
          "indexed": false,
          "internalType": "address",
          "name": "manufacturer",
          "type": "address"
        }
      ],
      "name": "BatchCreated",
      "type": "event"
    },
    {
      "anonymous": false,
      "inputs": [
        {
          "indexed": false,
          "internalType": "uint256",
          "name": "batchID",
          "type": "uint256"
        },
        {
          "indexed": false,
          "internalType": "address",
          "name": "recalledBy",
          "type": "address"
        }
      ],
      "name": "BatchRecalled",
      "type": "event"
    },
    {
      "anonymous": false,
      "inputs": [
        {
          "indexed": false,
          "internalType": "uint256",
          "name": "batchID",
          "type": "uint256"
        },
        {
          "indexed": false,
          "internalType": "address",
          "name": "to",
          "type": "address"
        },
        {
          "indexed": false,
          "internalType": "enum PharmaSupplyChain.Status",
          "name": "status",
          "type": "uint8"
        }
      ],
      "name": "BatchTransferred",
      "type": "event"
    },
    {
      "anonymous": false,
      "inputs": [
        {
          "indexed": false,
          "internalType": "uint256",
          "name": "batchID",
          "type": "uint256"
        },
        {
          "indexed": false,
          "internalType": "address",
          "name": "healthcareProvider",
          "type": "address"
        }
      ],
      "name": "BatchVerified",
      "type": "event"
    },
    {
      "anonymous": false,
      "inputs": [
        {
          "indexed": true,
          "internalType": "uint256",
          "name": "batchID",
          "type": "uint256"
        },
        {
          "indexed": false,
          "internalType": "bool",
          "name": "isExpired",
          "type": "bool"
        },
        {
          "indexed": false,
          "internalType": "uint256",
          "name": "daysRemaining",
          "type": "uint256"
        }
      ],
      "name": "ExpirationAlert",
      "type": "event"
    },
    {
      "anonymous": false,
      "inputs": [
        {
          "indexed": true,
          "internalType": "address",
          "name": "user",
          "type": "address"
        },
        {
          "indexed": false,
          "internalType": "enum PharmaSupplyChain.Role",
          "name": "role",
          "type": "uint8"
        }
      ],
      "name": "RoleApproved",
      "type": "event"
    },
    {
      "anonymous": false,
      "inputs": [
        {
          "indexed": true,
          "internalType": "address",
          "name": "user",
          "type": "address"
        },
        {
          "indexed": false,
          "internalType": "enum PharmaSupplyChain.Role",
          "name": "role",
          "type": "uint8"
        }
      ],
      "name": "RoleAssigned",
      "type": "event"
    },
    {
      "anonymous": false,
      "inputs": [
        {
          "indexed": true,
          "internalType": "address",
          "name": "user",
          "type": "address"
        },
        {
          "indexed": false,
          "internalType": "enum PharmaSupplyChain.Role",
          "name": "role",
          "type": "uint8"
        }
      ],
      "name": "RoleDenied",
      "type": "event"
    },
    {
      "anonymous": false,
      "inputs": [
        {
          "indexed": true,
          "internalType": "address",
          "name": "user",
          "type": "address"
        },
        {
          "indexed": false,
          "internalType": "enum PharmaSupplyChain.Role",
          "name": "requestedRole",
          "type": "uint8"
        }
      ],
      "name": "RoleRequested",
      "type": "event"
    },
    {
      "inputs": [
        {
          "internalType": "uint256",
          "name": "",
          "type": "uint256"
        },
        {
          "internalType": "uint256",
          "name": "",
          "type": "uint256"
        }
      ],
      "name": "batchHistory",
      "outputs": [
        {
          "internalType": "address",
          "name": "",
          "type": "address"
        }
      ],
      "stateMutability": "view",
      "type": "function",
      "constant": true
    },
    {
      "inputs": [
        {
          "internalType": "uint256",
          "name": "",
          "type": "uint256"
        }
      ],
      "name": "batchStatusTimestamps",
      "outputs": [
        {
          "internalType": "uint256",
          "name": "",
          "type": "uint256"
        }
      ],
      "stateMutability": "view",
      "type": "function",
      "constant": true
    },
    {
      "inputs": [
        {
          "internalType": "uint256",
          "name": "",
          "type": "uint256"
        }
      ],
      "name": "batches",
      "outputs": [
        {
          "internalType": "uint256",
          "name": "batchID",
          "type": "uint256"
        },
        {
          "internalType": "string",
          "name": "drugName",
          "type": "string"
        },
        {
          "internalType": "uint256",
          "name": "quantity",
          "type": "uint256"
        },
        {
          "internalType": "uint256",
          "name": "manufacturingDate",
          "type": "uint256"
        },
        {
          "internalType": "uint256",
          "name": "expiryDate",
          "type": "uint256"
        },
        {
          "internalType": "address payable",
          "name": "manufacturer",
          "type": "address"
        },
        {
          "internalType": "address payable",
          "name": "distributor",
          "type": "address"
        },
        {
          "internalType": "address payable",
          "name": "healthcareProvider",
          "type": "address"
        },
        {
          "internalType": "enum PharmaSupplyChain.Status",
          "name": "status",
          "type": "uint8"
        }
      ],
      "stateMutability": "view",
      "type": "function",
      "constant": true
    },
    {
      "inputs": [],
      "name": "nextBatchID",
      "outputs": [
        {
          "internalType": "uint256",
          "name": "",
          "type": "uint256"
        }
      ],
      "stateMutability": "view",
      "type": "function",
      "constant": true
    },
    {
      "inputs": [
        {
          "internalType": "uint256",
          "name": "",
          "type": "uint256"
        }
      ],
      "name": "pendingRequests",
      "outputs": [
        {
          "internalType": "address",
          "name": "",
          "type": "address"
        }
      ],
      "stateMutability": "view",
      "type": "function",
      "constant": true
    },
    {
      "inputs": [],
      "name": "regulator",
      "outputs": [
        {
          "internalType": "address payable",
          "name": "",
          "type": "address"
        }
      ],
      "stateMutability": "view",
      "type": "function",
      "constant": true
    },
    {
      "inputs": [
        {
          "internalType": "address",
          "name": "",
          "type": "address"
        }
      ],
      "name": "roleRequests",
      "outputs": [
        {
          "internalType": "enum PharmaSupplyChain.Role",
          "name": "requestedRole",
          "type": "uint8"
        },
        {
          "internalType": "bool",
          "name": "exists",
          "type": "bool"
        },
        {
          "internalType": "bool",
          "name": "approved",
          "type": "bool"
        },
        {
          "internalType": "bool",
          "name": "processed",
          "type": "bool"
        }
      ],
      "stateMutability": "view",
      "type": "function",
      "constant": true
    },
    {
      "inputs": [
        {
          "internalType": "address",
          "name": "",
          "type": "address"
        }
      ],
      "name": "userRoles",
      "outputs": [
        {
          "internalType": "enum PharmaSupplyChain.Role",
          "name": "",
          "type": "uint8"
        }
      ],
      "stateMutability": "view",
      "type": "function",
      "constant": true
    },
    {
      "inputs": [
        {
          "internalType": "enum PharmaSupplyChain.Role",
          "name": "requestedRole",
          "type": "uint8"
        }
      ],
      "name": "requestRole",
      "outputs": [],
      "stateMutability": "nonpayable",
      "type": "function"
    },
    {
      "inputs": [
        {
          "internalType": "address",
          "name": "user",
          "type": "address"
        }
      ],
      "name": "approveRoleRequest",
      "outputs": [],
      "stateMutability": "nonpayable",
      "type": "function"
    },
    {
      "inputs": [
        {
          "internalType": "address",
          "name": "user",
          "type": "address"
        }
      ],
      "name": "denyRoleRequest",
      "outputs": [],
      "stateMutability": "nonpayable",
      "type": "function"
    },
    {
      "inputs": [
        {
          "internalType": "string",
          "name": "drugName",
          "type": "string"
        },
        {
          "internalType": "uint256",
          "name": "quantity",
          "type": "uint256"
        },
        {
          "internalType": "uint256",
          "name": "manufacturingDate",
          "type": "uint256"
        },
        {
          "internalType": "uint256",
          "name": "expiryDate",
          "type": "uint256"
        }
      ],
      "name": "createBatch",
      "outputs": [],
      "stateMutability": "nonpayable",
      "type": "function"
    },
    {
      "inputs": [
        {
          "internalType": "uint256",
          "name": "batchID",
          "type": "uint256"
        },
        {
          "internalType": "address payable",
          "name": "distributor",
          "type": "address"
        }
      ],
      "name": "transferToDistributor",
      "outputs": [],
      "stateMutability": "nonpayable",
      "type": "function"
    },
    {
      "inputs": [
        {
          "internalType": "uint256",
          "name": "batchID",
          "type": "uint256"
        },
        {
          "internalType": "address payable",
          "name": "healthcareProvider",
          "type": "address"
        }
      ],
      "name": "transferToHealthcare",
      "outputs": [],
      "stateMutability": "nonpayable",
      "type": "function"
    },
    {
      "inputs": [
        {
          "internalType": "uint256",
          "name": "batchID",
          "type": "uint256"
        }
      ],
      "name": "verifyBatch",
      "outputs": [],
      "stateMutability": "nonpayable",
      "type": "function"
    },
    {
      "inputs": [
        {
          "internalType": "uint256",
          "name": "batchID",
          "type": "uint256"
        }
      ],
      "name": "recallBatch",
      "outputs": [],
      "stateMutability": "nonpayable",
      "type": "function"
    },
    {
      "inputs": [
        {
          "internalType": "uint256",
          "name": "batchID",
          "type": "uint256"
        }
      ],
      "name": "getBatchDetails",
      "outputs": [
        {
          "internalType": "string",
          "name": "drugName",
          "type": "string"
        },
        {
          "internalType": "uint256",
          "name": "quantity",
          "type": "uint256"
        },
        {
          "internalType": "uint256",
          "name": "manufacturingDate",
          "type": "uint256"
        },
        {
          "internalType": "uint256",
          "name": "expiryDate",
          "type": "uint256"
        },
        {
          "internalType": "enum PharmaSupplyChain.Status",
          "name": "status",
          "type": "uint8"
        },
        {
          "internalType": "address payable",
          "name": "manufacturer",
          "type": "address"
        },
        {
          "internalType": "address payable",
          "name": "distributor",
          "type": "address"
        },
        {
          "internalType": "address payable",
          "name": "healthcareProvider",
          "type": "address"
        }
      ],
      "stateMutability": "view",
      "type": "function",
      "constant": true
    },
    {
      "inputs": [
        {
          "internalType": "uint256",
          "name": "batchID",
          "type": "uint256"
        }
      ],
      "name": "checkExpirationAlert",
      "outputs": [
        {
          "internalType": "bool",
          "name": "isExpired",
          "type": "bool"
        },
        {
          "internalType": "uint256",
          "name": "daysRemaining",
          "type": "uint256"
        },
        {
          "internalType": "bool",
          "name": "needsAttention",
          "type": "bool"
        },
        {
          "internalType": "bool",
          "name": "isRecalled",
          "type": "bool"
        }
      ],
      "stateMutability": "view",
      "type": "function",
      "constant": true
    },
    {
      "inputs": [],
      "name": "getPendingRequests",
      "outputs": [
        {
          "internalType": "address[]",
          "name": "",
          "type": "address[]"
        }
      ],
      "stateMutability": "view",
      "type": "function",
      "constant": true
    },
    {
      "inputs": [
        {
          "internalType": "address",
          "name": "user",
          "type": "address"
        }
      ],
      "name": "getRequestStatus",
      "outputs": [
        {
          "components": [
            {
              "internalType": "enum PharmaSupplyChain.Role",
              "name": "requestedRole",
              "type": "uint8"
            },
            {
              "internalType": "bool",
              "name": "exists",
              "type": "bool"
            },
            {
              "internalType": "bool",
              "name": "approved",
              "type": "bool"
            },
            {
              "internalType": "bool",
              "name": "processed",
              "type": "bool"
            }
          ],
          "internalType": "struct PharmaSupplyChain.RoleRequest",
          "name": "",
          "type": "tuple"
        }
      ],
      "stateMutability": "view",
      "type": "function",
      "constant": true
    },
    {
      "inputs": [],
      "name": "getPendingRequestsWithRoles",
      "outputs": [
        {
          "components": [
            {
              "internalType": "address",
              "name": "user",
              "type": "address"
            },
            {
              "internalType": "enum PharmaSupplyChain.Role",
              "name": "requestedRole",
              "type": "uint8"
            }
          ],
          "internalType": "struct PharmaSupplyChain.PendingRequest[]",
          "name": "",
          "type": "tuple[]"
        }
      ],
      "stateMutability": "view",
      "type": "function",
      "constant": true
    },
    {
      "inputs": [
        {
          "internalType": "uint256",
          "name": "batchID",
          "type": "uint256"
        }
      ],
      "name": "getBatchHistory",
      "outputs": [
        {
          "internalType": "address[]",
          "name": "",
          "type": "address[]"
        }
      ],
      "stateMutability": "view",
      "type": "function",
      "constant": true
    }
  ],
  "bytecode": "0x60806040523480156200001157600080fd5b50336000806101000a81548173ffffffffffffffffffffffffffffffffffffffff021916908373ffffffffffffffffffffffffffffffffffffffff1602179055506004600260003373ffffffffffffffffffffffffffffffffffffffff1673ffffffffffffffffffffffffffffffffffffffff16815260200190815260200160002060006101000a81548160ff02191690836004811115620000dc577f4e487b7100000000000000000000000000000000000000000000000000000000600052602160045260246000fd5b0217905550600180819055503373ffffffffffffffffffffffffffffffffffffffff167f4ac36fa53f167ceb85964be512e01de2a3b8bdb9862f917da079deeeff689b38600460405162000131919062000150565b60405180910390a2620001dc565b6200014a8162000182565b82525050565b60006020820190506200016760008301846200013f565b92915050565b60008190506200017d82620001c5565b919050565b60006200018f826200016d565b9050919050565b7f4e487b7100000000000000000000000000000000000000000000000000000000600052602160045260246000fd5b60058110620001d957620001d862000196565b5b50565b61576180620001ec6000396000f3fe608060405234801561001057600080fd5b50600436106101425760003560e01c8063a1c1743b116100b8578063c7a8ccb11161007c578063c7a8ccb1146103ab578063d1061fef146103db578063dd8fee141461040e578063dfe3a3ae1461042c578063e229f2cb14610448578063f98fe6281461046457610142565b8063a1c1743b146102ff578063a6e162b41461031b578063a72598ce14610337578063b32c4d8d14610355578063c2f7fa301461038d57610142565b806379fa48b61161010a57806379fa48b61461020f5780637e2933b01461022b57806380a1f712146102475780639000cb961461026557806394a09bc5146102955780639d47dcc0146102c857610142565b80631896d298146101475780633126b965146101635780633c652a9a146101935780634b41b679146101c357806374d5e100146101df575b600080fd5b610161600480360381019061015c9190614397565b610494565b005b61017d6004803603810190610178919061443b565b610990565b60405161018a919061513e565b60405180910390f35b6101ad60048036038101906101a8919061443b565b6109a8565b6040516101ba9190614cb6565b60405180910390f35b6101dd60048036038101906101d8919061436e565b6109e7565b005b6101f960048036038101906101f4919061436e565b611104565b6040516102069190614d9e565b60405180910390f35b6102296004803603810190610224919061436e565b611124565b005b61024560048036038101906102409190614464565b611603565b005b61024f611b85565b60405161025c9190614cec565b60405180910390f35b61027f600480360381019061027a91906144a0565b611ca1565b60405161028c9190614cb6565b60405180910390f35b6102af60048036038101906102aa919061443b565b611cef565b6040516102bf9493929190614d59565b60405180910390f35b6102e260048036038101906102dd919061443b565b61241d565b6040516102f6989796959493929190614dfe565b60405180910390f35b610319600480360381019061031491906143c0565b61272f565b005b6103356004803603810190610330919061443b565b612c32565b005b61033f61316f565b60405161034c919061513e565b60405180910390f35b61036f600480360381019061036a919061443b565b613175565b60405161038499989796959493929190615221565b60405180910390f35b6103956132b8565b6040516103a29190614d0e565b60405180910390f35b6103c560048036038101906103c0919061443b565b613556565b6040516103d29190614cec565b60405180910390f35b6103f560048036038101906103f0919061436e565b613651565b6040516104059493929190614db9565b60405180910390f35b6104166136b5565b6040516104239190614cd1565b60405180910390f35b6104466004803603810190610441919061443b565b6136d9565b005b610462600480360381019061045d9190614464565b613a8e565b005b61047e6004803603810190610479919061436e565b614010565b60405161048b9190615123565b60405180910390f35b600060048111156104ce577f4e487b7100000000000000000000000000000000000000000000000000000000600052602160045260246000fd5b600260003373ffffffffffffffffffffffffffffffffffffffff1673ffffffffffffffffffffffffffffffffffffffff16815260200190815260200160002060009054906101000a900460ff166004811115610553577f4e487b7100000000000000000000000000000000000000000000000000000000600052602160045260246000fd5b14610593576040517f08c379a000000000000000000000000000000000000000000000000000000000815260040161058a90614ec3565b60405180910390fd5b6004808111156105cc577f4e487b7100000000000000000000000000000000000000000000000000000000600052602160045260246000fd5b816004811115610605577f4e487b7100000000000000000000000000000000000000000000000000000000600052602160045260246000fd5b1415610646576040517f08c379a000000000000000000000000000000000000000000000000000000000815260040161063d90614fc3565b60405180910390fd5b600460003373ffffffffffffffffffffffffffffffffffffffff1673ffffffffffffffffffffffffffffffffffffffff16815260200190815260200160002060000160019054906101000a900460ff1615806106ee5750600460003373ffffffffffffffffffffffffffffffffffffffff1673ffffffffffffffffffffffffffffffffffffffff16815260200190815260200160002060000160039054906101000a900460ff165b61072d576040517f08c379a000000000000000000000000000000000000000000000000000000000815260040161072490615003565b60405180910390fd5b6040518060800160405280826004811115610771577f4e487b7100000000000000000000000000000000000000000000000000000000600052602160045260246000fd5b815260200160011515815260200160001515815260200160001515815250600460003373ffffffffffffffffffffffffffffffffffffffff1673ffffffffffffffffffffffffffffffffffffffff16815260200190815260200160002060008201518160000160006101000a81548160ff0219169083600481111561081f577f4e487b7100000000000000000000000000000000000000000000000000000000600052602160045260246000fd5b021790555060208201518160000160016101000a81548160ff02191690831515021790555060408201518160000160026101000a81548160ff02191690831515021790555060608201518160000160036101000a81548160ff0219169083151502179055509050506005339080600181540180825580915050600190039060005260206000200160009091909190916101000a81548173ffffffffffffffffffffffffffffffffffffffff021916908373ffffffffffffffffffffffffffffffffffffffff16021790555060016005805490506108fc91906153d5565b600660003373ffffffffffffffffffffffffffffffffffffffff1673ffffffffffffffffffffffffffffffffffffffff168152602001908152602001600020819055503373ffffffffffffffffffffffffffffffffffffffff167ff895b94cb55ee9f608ecb65ff13cf68962fd45bdfcfb5a3eaafcaa1571571e02826040516109859190614d9e565b60405180910390a250565b60076020528060005260406000206000915090505481565b600581815481106109b857600080fd5b906000526020600020016000915054906101000a900473ffffffffffffffffffffffffffffffffffffffff1681565b60008054906101000a900473ffffffffffffffffffffffffffffffffffffffff1673ffffffffffffffffffffffffffffffffffffffff163373ffffffffffffffffffffffffffffffffffffffff1614610a75576040517f08c379a0000000000000000000000000000000000000000000000000000000008152600401610a6c906150a3565b60405180910390fd5b600460008273ffffffffffffffffffffffffffffffffffffffff1673ffffffffffffffffffffffffffffffffffffffff16815260200190815260200160002060000160019054906101000a900460ff16610b04576040517f08c379a0000000000000000000000000000000000000000000000000000000008152600401610afb90615023565b60405180910390fd5b600460008273ffffffffffffffffffffffffffffffffffffffff1673ffffffffffffffffffffffffffffffffffffffff16815260200190815260200160002060000160039054906101000a900460ff1615610b94576040517f08c379a0000000000000000000000000000000000000000000000000000000008152600401610b8b90614f43565b60405180910390fd5b600480811115610bcd577f4e487b7100000000000000000000000000000000000000000000000000000000600052602160045260246000fd5b600460008373ffffffffffffffffffffffffffffffffffffffff1673ffffffffffffffffffffffffffffffffffffffff16815260200190815260200160002060000160009054906101000a900460ff166004811115610c55577f4e487b7100000000000000000000000000000000000000000000000000000000600052602160045260246000fd5b1415610c96576040517f08c379a0000000000000000000000000000000000000000000000000000000008152600401610c8d90615083565b60405180910390fd5b6000600460008373ffffffffffffffffffffffffffffffffffffffff1673ffffffffffffffffffffffffffffffffffffffff16815260200190815260200160002060000160009054906101000a900460ff16905080600260008473ffffffffffffffffffffffffffffffffffffffff1673ffffffffffffffffffffffffffffffffffffffff16815260200190815260200160002060006101000a81548160ff02191690836004811115610d72577f4e487b7100000000000000000000000000000000000000000000000000000000600052602160045260246000fd5b02179055506001600460008473ffffffffffffffffffffffffffffffffffffffff1673ffffffffffffffffffffffffffffffffffffffff16815260200190815260200160002060000160026101000a81548160ff0219169083151502179055506001600460008473ffffffffffffffffffffffffffffffffffffffff1673ffffffffffffffffffffffffffffffffffffffff16815260200190815260200160002060000160036101000a81548160ff0219169083151502179055506000600660008473ffffffffffffffffffffffffffffffffffffffff1673ffffffffffffffffffffffffffffffffffffffff168152602001908152602001600020549050600060056001600580549050610e8791906153d5565b81548110610ebe577f4e487b7100000000000000000000000000000000000000000000000000000000600052603260045260246000fd5b9060005260206000200160009054906101000a900473ffffffffffffffffffffffffffffffffffffffff1690508060058381548110610f26577f4e487b7100000000000000000000000000000000000000000000000000000000600052603260045260246000fd5b9060005260206000200160006101000a81548173ffffffffffffffffffffffffffffffffffffffff021916908373ffffffffffffffffffffffffffffffffffffffff16021790555081600660008373ffffffffffffffffffffffffffffffffffffffff1673ffffffffffffffffffffffffffffffffffffffff168152602001908152602001600020819055506005805480610fea577f4e487b7100000000000000000000000000000000000000000000000000000000600052603160045260246000fd5b6001900381819060005260206000200160006101000a81549073ffffffffffffffffffffffffffffffffffffffff02191690559055600660008573ffffffffffffffffffffffffffffffffffffffff1673ffffffffffffffffffffffffffffffffffffffff168152602001908152602001600020600090558373ffffffffffffffffffffffffffffffffffffffff167f042f52f18ca9258767cef802b6283a39f6c1053fbd02bee367edc363da679f86846040516110a89190614d9e565b60405180910390a28373ffffffffffffffffffffffffffffffffffffffff167f4ac36fa53f167ceb85964be512e01de2a3b8bdb9862f917da079deeeff689b38846040516110f69190614d9e565b60405180910390a250505050565b60026020528060005260406000206000915054906101000a900460ff1681565b60008054906101000a900473ffffffffffffffffffffffffffffffffffffffff1673ffffffffffffffffffffffffffffffffffffffff163373ffffffffffffffffffffffffffffffffffffffff16146111b2576040517f08c379a00000000000000000000000000000000000000000000000000000000081526004016111a9906150a3565b60405180910390fd5b600460008273ffffffffffffffffffffffffffffffffffffffff1673ffffffffffffffffffffffffffffffffffffffff16815260200190815260200160002060000160019054906101000a900460ff16611241576040517f08c379a000000000000000000000000000000000000000000000000000000000815260040161123890615023565b60405180910390fd5b600460008273ffffffffffffffffffffffffffffffffffffffff1673ffffffffffffffffffffffffffffffffffffffff16815260200190815260200160002060000160039054906101000a900460ff16156112d1576040517f08c379a00000000000000000000000000000000000000000000000000000000081526004016112c890614f43565b60405180910390fd5b6001600460008373ffffffffffffffffffffffffffffffffffffffff1673ffffffffffffffffffffffffffffffffffffffff16815260200190815260200160002060000160036101000a81548160ff0219169083151502179055506000600660008373ffffffffffffffffffffffffffffffffffffffff1673ffffffffffffffffffffffffffffffffffffffff16815260200190815260200160002054905060006005600160058054905061138691906153d5565b815481106113bd577f4e487b7100000000000000000000000000000000000000000000000000000000600052603260045260246000fd5b9060005260206000200160009054906101000a900473ffffffffffffffffffffffffffffffffffffffff1690508060058381548110611425577f4e487b7100000000000000000000000000000000000000000000000000000000600052603260045260246000fd5b9060005260206000200160006101000a81548173ffffffffffffffffffffffffffffffffffffffff021916908373ffffffffffffffffffffffffffffffffffffffff16021790555081600660008373ffffffffffffffffffffffffffffffffffffffff1673ffffffffffffffffffffffffffffffffffffffff1681526020019081526020016000208190555060058054806114e9577f4e487b7100000000000000000000000000000000000000000000000000000000600052603160045260246000fd5b6001900381819060005260206000200160006101000a81549073ffffffffffffffffffffffffffffffffffffffff02191690559055600660008473ffffffffffffffffffffffffffffffffffffffff1673ffffffffffffffffffffffffffffffffffffffff168152602001908152602001600020600090558273ffffffffffffffffffffffffffffffffffffffff167fa1207d3124c17356cdedc2646d94f345e7c937ffc4aab39b4f804c1f66bd8a0e600460008673ffffffffffffffffffffffffffffffffffffffff1673ffffffffffffffffffffffffffffffffffffffff16815260200190815260200160002060000160009054906101000a900460ff166040516115f69190614d9e565b60405180910390a2505050565b600280600481111561163e577f4e487b7100000000000000000000000000000000000000000000000000000000600052602160045260246000fd5b600260003373ffffffffffffffffffffffffffffffffffffffff1673ffffffffffffffffffffffffffffffffffffffff16815260200190815260200160002060009054906101000a900460ff1660048111156116c3577f4e487b7100000000000000000000000000000000000000000000000000000000600052602160045260246000fd5b14611703576040517f08c379a00000000000000000000000000000000000000000000000000000000081526004016116fa906150e3565b60405180910390fd5b828060036000838152602001908152602001600020600001541461175c576040517f08c379a000000000000000000000000000000000000000000000000000000000815260040161175390614ee3565b60405180910390fd5b60036004811115611796577f4e487b7100000000000000000000000000000000000000000000000000000000600052602160045260246000fd5b600260008573ffffffffffffffffffffffffffffffffffffffff1673ffffffffffffffffffffffffffffffffffffffff16815260200190815260200160002060009054906101000a900460ff16600481111561181b577f4e487b7100000000000000000000000000000000000000000000000000000000600052602160045260246000fd5b1461185b576040517f08c379a000000000000000000000000000000000000000000000000000000000815260040161185290614fa3565b60405180910390fd5b60016004811115611895577f4e487b7100000000000000000000000000000000000000000000000000000000600052602160045260246000fd5b6003600086815260200190815260200160002060070160149054906101000a900460ff1660048111156118f1577f4e487b7100000000000000000000000000000000000000000000000000000000600052602160045260246000fd5b14611931576040517f08c379a000000000000000000000000000000000000000000000000000000000815260040161192890615063565b60405180910390fd5b42600360008681526020019081526020016000206004015411611989576040517f08c379a000000000000000000000000000000000000000000000000000000000815260040161198090614f03565b60405180910390fd5b826003600086815260200190815260200160002060070160006101000a81548173ffffffffffffffffffffffffffffffffffffffff021916908373ffffffffffffffffffffffffffffffffffffffff16021790555060026003600086815260200190815260200160002060070160146101000a81548160ff02191690836004811115611a3e577f4e487b7100000000000000000000000000000000000000000000000000000000600052602160045260246000fd5b021790555042600760008681526020019081526020016000208190555060086000858152602001908152602001600020339080600181540180825580915050600190039060005260206000200160009091909190916101000a81548173ffffffffffffffffffffffffffffffffffffffff021916908373ffffffffffffffffffffffffffffffffffffffff16021790555060086000858152602001908152602001600020839080600181540180825580915050600190039060005260206000200160009091909190916101000a81548173ffffffffffffffffffffffffffffffffffffffff021916908373ffffffffffffffffffffffffffffffffffffffff1602179055507f7b1f1b9f258343e4507ba533f8ff285eb463d07c0adf8a9bf47be97ecc39b12b84846002604051611b7793929190615182565b60405180910390a150505050565b606060008054906101000a900473ffffffffffffffffffffffffffffffffffffffff1673ffffffffffffffffffffffffffffffffffffffff163373ffffffffffffffffffffffffffffffffffffffff1614611c15576040517f08c379a0000000000000000000000000000000000000000000000000000000008152600401611c0c906150a3565b60405180910390fd5b6005805480602002602001604051908101604052809291908181526020018280548015611c9757602002820191906000526020600020905b8160009054906101000a900473ffffffffffffffffffffffffffffffffffffffff1673ffffffffffffffffffffffffffffffffffffffff1681526020019060010190808311611c4d575b5050505050905090565b60086020528160005260406000208181548110611cbd57600080fd5b906000526020600020016000915091509054906101000a900473ffffffffffffffffffffffffffffffffffffffff1681565b6000806000808480600360008381526020019081526020016000206000015414611d4e576040517f08c379a0000000000000000000000000000000000000000000000000000000008152600401611d4590614ee3565b60405180910390fd5b856000600360008381526020019081526020016000206040518061012001604052908160008201548152602001600182018054611d8a90615537565b80601f0160208091040260200160405190810160405280929190818152602001828054611db690615537565b8015611e035780601f10611dd857610100808354040283529160200191611e03565b820191906000526020600020905b815481529060010190602001808311611de657829003601f168201915b505050505081526020016002820154815260200160038201548152602001600482015481526020016005820160009054906101000a900473ffffffffffffffffffffffffffffffffffffffff1673ffffffffffffffffffffffffffffffffffffffff1673ffffffffffffffffffffffffffffffffffffffff1681526020016006820160009054906101000a900473ffffffffffffffffffffffffffffffffffffffff1673ffffffffffffffffffffffffffffffffffffffff1673ffffffffffffffffffffffffffffffffffffffff1681526020016007820160009054906101000a900473ffffffffffffffffffffffffffffffffffffffff1673ffffffffffffffffffffffffffffffffffffffff1673ffffffffffffffffffffffffffffffffffffffff1681526020016007820160149054906101000a900460ff166004811115611f77577f4e487b7100000000000000000000000000000000000000000000000000000000600052602160045260246000fd5b6004811115611faf577f4e487b7100000000000000000000000000000000000000000000000000000000600052602160045260246000fd5b81525050905060008054906101000a900473ffffffffffffffffffffffffffffffffffffffff1673ffffffffffffffffffffffffffffffffffffffff163373ffffffffffffffffffffffffffffffffffffffff16148061203e57508060a0015173ffffffffffffffffffffffffffffffffffffffff163373ffffffffffffffffffffffffffffffffffffffff16145b8061207857508060e0015173ffffffffffffffffffffffffffffffffffffffff163373ffffffffffffffffffffffffffffffffffffffff16145b6120b7576040517f08c379a00000000000000000000000000000000000000000000000000000000081526004016120ae90614f23565b60405180910390fd5b6000600360008a815260200190815260200160002060405180610120016040529081600082015481526020016001820180546120f290615537565b80601f016020809104026020016040519081016040528092919081815260200182805461211e90615537565b801561216b5780601f106121405761010080835404028352916020019161216b565b820191906000526020600020905b81548152906001019060200180831161214e57829003601f168201915b505050505081526020016002820154815260200160038201548152602001600482015481526020016005820160009054906101000a900473ffffffffffffffffffffffffffffffffffffffff1673ffffffffffffffffffffffffffffffffffffffff1673ffffffffffffffffffffffffffffffffffffffff1681526020016006820160009054906101000a900473ffffffffffffffffffffffffffffffffffffffff1673ffffffffffffffffffffffffffffffffffffffff1673ffffffffffffffffffffffffffffffffffffffff1681526020016007820160009054906101000a900473ffffffffffffffffffffffffffffffffffffffff1673ffffffffffffffffffffffffffffffffffffffff1673ffffffffffffffffffffffffffffffffffffffff1681526020016007820160149054906101000a900460ff1660048111156122df577f4e487b7100000000000000000000000000000000000000000000000000000000600052602160045260246000fd5b6004811115612317577f4e487b7100000000000000000000000000000000000000000000000000000000600052602160045260246000fd5b815250509050600480811115612356577f4e487b7100000000000000000000000000000000000000000000000000000000600052602160045260246000fd5b8161010001516004811115612394577f4e487b7100000000000000000000000000000000000000000000000000000000600052602160045260246000fd5b14945084156123b25760008060006001975097509750975050612413565b428160800151111597506000428260800151116123d05760006123e1565b4282608001516123e091906153d5565b5b905062015180816123f291906153a4565b97508880612401575060078811155b96508888886000985098509850985050505b5050509193509193565b606060008060008060008060008880600360008381526020019081526020016000206000015414612483576040517f08c379a000000000000000000000000000000000000000000000000000000000815260040161247a90614ee3565b60405180910390fd5b6000600360008c815260200190815260200160002060405180610120016040529081600082015481526020016001820180546124be90615537565b80601f01602080910402602001604051908101604052809291908181526020018280546124ea90615537565b80156125375780601f1061250c57610100808354040283529160200191612537565b820191906000526020600020905b81548152906001019060200180831161251a57829003601f168201915b505050505081526020016002820154815260200160038201548152602001600482015481526020016005820160009054906101000a900473ffffffffffffffffffffffffffffffffffffffff1673ffffffffffffffffffffffffffffffffffffffff1673ffffffffffffffffffffffffffffffffffffffff1681526020016006820160009054906101000a900473ffffffffffffffffffffffffffffffffffffffff1673ffffffffffffffffffffffffffffffffffffffff1673ffffffffffffffffffffffffffffffffffffffff1681526020016007820160009054906101000a900473ffffffffffffffffffffffffffffffffffffffff1673ffffffffffffffffffffffffffffffffffffffff1673ffffffffffffffffffffffffffffffffffffffff1681526020016007820160149054906101000a900460ff1660048111156126ab577f4e487b7100000000000000000000000000000000000000000000000000000000600052602160045260246000fd5b60048111156126e3577f4e487b7100000000000000000000000000000000000000000000000000000000600052602160045260246000fd5b81525050905080602001518160400151826060015183608001518461010001518560a001518660c001518760e00151995099509950995099509950995099505050919395975091939597565b600180600481111561276a577f4e487b7100000000000000000000000000000000000000000000000000000000600052602160045260246000fd5b600260003373ffffffffffffffffffffffffffffffffffffffff1673ffffffffffffffffffffffffffffffffffffffff16815260200190815260200160002060009054906101000a900460ff1660048111156127ef577f4e487b7100000000000000000000000000000000000000000000000000000000600052602160045260246000fd5b1461282f576040517f08c379a0000000000000000000000000000000000000000000000000000000008152600401612826906150e3565b60405180910390fd5b6000855111612873576040517f08c379a000000000000000000000000000000000000000000000000000000000815260040161286a90614f83565b60405180910390fd5b8183106128b5576040517f08c379a00000000000000000000000000000000000000000000000000000000081526004016128ac90615103565b60405180910390fd5b428311156128f8576040517f08c379a00000000000000000000000000000000000000000000000000000000081526004016128ef906150c3565b60405180910390fd5b60405180610120016040528060015481526020018681526020018581526020018481526020018381526020013373ffffffffffffffffffffffffffffffffffffffff168152602001600073ffffffffffffffffffffffffffffffffffffffff168152602001600073ffffffffffffffffffffffffffffffffffffffff168152602001600060048111156129b4577f4e487b7100000000000000000000000000000000000000000000000000000000600052602160045260246000fd5b8152506003600060015481526020019081526020016000206000820151816000015560208201518160010190805190602001906129f2929190614141565b5060408201518160020155606082015181600301556080820151816004015560a08201518160050160006101000a81548173ffffffffffffffffffffffffffffffffffffffff021916908373ffffffffffffffffffffffffffffffffffffffff16021790555060c08201518160060160006101000a81548173ffffffffffffffffffffffffffffffffffffffff021916908373ffffffffffffffffffffffffffffffffffffffff16021790555060e08201518160070160006101000a81548173ffffffffffffffffffffffffffffffffffffffff021916908373ffffffffffffffffffffffffffffffffffffffff1602179055506101008201518160070160146101000a81548160ff02191690836004811115612b38577f4e487b7100000000000000000000000000000000000000000000000000000000600052602160045260246000fd5b02179055509050504260076000600154815260200190815260200160002081905550600860006001548152602001908152602001600020339080600181540180825580915050600190039060005260206000200160009091909190916101000a81548173ffffffffffffffffffffffffffffffffffffffff021916908373ffffffffffffffffffffffffffffffffffffffff1602179055507fd79033df2fcd9480827785cc2b6fe3bd6fd5bfefd10987f4a6cd991f5a0ccdc26001548686868633604051612c0b969594939291906151b9565b60405180910390a160016000815480929190612c2690615569565b91905055505050505050565b8080600360008381526020019081526020016000206000015414612c8b576040517f08c379a0000000000000000000000000000000000000000000000000000000008152600401612c8290614ee3565b60405180910390fd5b600480811115612cc4577f4e487b7100000000000000000000000000000000000000000000000000000000600052602160045260246000fd5b6003600084815260200190815260200160002060070160149054906101000a900460ff166004811115612d20577f4e487b7100000000000000000000000000000000000000000000000000000000600052602160045260246000fd5b1415612d61576040517f08c379a0000000000000000000000000000000000000000000000000000000008152600401612d5890614e83565b60405180910390fd5b60008054906101000a900473ffffffffffffffffffffffffffffffffffffffff1673ffffffffffffffffffffffffffffffffffffffff163373ffffffffffffffffffffffffffffffffffffffff161480612ebc57506003600083815260200190815260200160002060050160009054906101000a900473ffffffffffffffffffffffffffffffffffffffff1673ffffffffffffffffffffffffffffffffffffffff163373ffffffffffffffffffffffffffffffffffffffff16148015612ebb575060036004811115612e5c577f4e487b7100000000000000000000000000000000000000000000000000000000600052602160045260246000fd5b6003600084815260200190815260200160002060070160149054906101000a900460ff166004811115612eb8577f4e487b7100000000000000000000000000000000000000000000000000000000600052602160045260246000fd5b14155b5b80612fc757506003600083815260200190815260200160002060070160009054906101000a900473ffffffffffffffffffffffffffffffffffffffff1673ffffffffffffffffffffffffffffffffffffffff163373ffffffffffffffffffffffffffffffffffffffff16148015612fc6575060026004811115612f68577f4e487b7100000000000000000000000000000000000000000000000000000000600052602160045260246000fd5b6003600084815260200190815260200160002060070160149054906101000a900460ff166004811115612fc4577f4e487b7100000000000000000000000000000000000000000000000000000000600052602160045260246000fd5b145b5b613006576040517f08c379a0000000000000000000000000000000000000000000000000000000008152600401612ffd90614f63565b60405180910390fd5b60046003600084815260200190815260200160002060070160146101000a81548160ff02191690836004811115613066577f4e487b7100000000000000000000000000000000000000000000000000000000600052602160045260246000fd5b021790555042600760008481526020019081526020016000208190555060086000838152602001908152602001600020339080600181540180825580915050600190039060005260206000200160009091909190916101000a81548173ffffffffffffffffffffffffffffffffffffffff021916908373ffffffffffffffffffffffffffffffffffffffff1602179055507f5a41088291f050dab11b8aeaaeaa8fd33f2225751a5d64008f812e0362ef47258233604051613128929190615159565b60405180910390a1817fb5eb47cf092caf5aa3d3a45128033de074debc2b4f6a9475df76f993dc72c08b600080604051613163929190614d30565b60405180910390a25050565b60015481565b600360205280600052604060002060009150905080600001549080600101805461319e90615537565b80601f01602080910402602001604051908101604052809291908181526020018280546131ca90615537565b80156132175780601f106131ec57610100808354040283529160200191613217565b820191906000526020600020905b8154815290600101906020018083116131fa57829003601f168201915b5050505050908060020154908060030154908060040154908060050160009054906101000a900473ffffffffffffffffffffffffffffffffffffffff16908060060160009054906101000a900473ffffffffffffffffffffffffffffffffffffffff16908060070160009054906101000a900473ffffffffffffffffffffffffffffffffffffffff16908060070160149054906101000a900460ff16905089565b606060008054906101000a900473ffffffffffffffffffffffffffffffffffffffff1673ffffffffffffffffffffffffffffffffffffffff163373ffffffffffffffffffffffffffffffffffffffff1614613348576040517f08c379a000000000000000000000000000000000000000000000000000000000815260040161333f906150a3565b60405180910390fd5b600060058054905067ffffffffffffffff81111561338f577f4e487b7100000000000000000000000000000000000000000000000000000000600052604160045260246000fd5b6040519080825280602002602001820160405280156133c857816020015b6133b56141c7565b8152602001906001900390816133ad5790505b50905060005b60058054905081101561354e57600060058281548110613417577f4e487b7100000000000000000000000000000000000000000000000000000000600052603260045260246000fd5b9060005260206000200160009054906101000a900473ffffffffffffffffffffffffffffffffffffffff16905060405180604001604052808273ffffffffffffffffffffffffffffffffffffffff168152602001600460008473ffffffffffffffffffffffffffffffffffffffff1673ffffffffffffffffffffffffffffffffffffffff16815260200190815260200160002060000160009054906101000a900460ff1660048111156134f3577f4e487b7100000000000000000000000000000000000000000000000000000000600052602160045260246000fd5b81525083838151811061352f577f4e487b7100000000000000000000000000000000000000000000000000000000600052603260045260246000fd5b602002602001018190525050808061354690615569565b9150506133ce565b508091505090565b606081806003600083815260200190815260200160002060000154146135b1576040517f08c379a00000000000000000000000000000000000000000000000000000000081526004016135a890614ee3565b60405180910390fd5b6008600084815260200190815260200160002080548060200260200160405190810160405280929190818152602001828054801561364457602002820191906000526020600020905b8160009054906101000a900473ffffffffffffffffffffffffffffffffffffffff1673ffffffffffffffffffffffffffffffffffffffff16815260200190600101908083116135fa575b5050505050915050919050565b60046020528060005260406000206000915090508060000160009054906101000a900460ff16908060000160019054906101000a900460ff16908060000160029054906101000a900460ff16908060000160039054906101000a900460ff16905084565b60008054906101000a900473ffffffffffffffffffffffffffffffffffffffff1681565b6003806004811115613714577f4e487b7100000000000000000000000000000000000000000000000000000000600052602160045260246000fd5b600260003373ffffffffffffffffffffffffffffffffffffffff1673ffffffffffffffffffffffffffffffffffffffff16815260200190815260200160002060009054906101000a900460ff166004811115613799577f4e487b7100000000000000000000000000000000000000000000000000000000600052602160045260246000fd5b146137d9576040517f08c379a00000000000000000000000000000000000000000000000000000000081526004016137d0906150e3565b60405180910390fd5b8180600360008381526020019081526020016000206000015414613832576040517f08c379a000000000000000000000000000000000000000000000000000000000815260040161382990614ee3565b60405180910390fd5b6002600481111561386c577f4e487b7100000000000000000000000000000000000000000000000000000000600052602160045260246000fd5b6003600085815260200190815260200160002060070160149054906101000a900460ff1660048111156138c8577f4e487b7100000000000000000000000000000000000000000000000000000000600052602160045260246000fd5b14613908576040517f08c379a00000000000000000000000000000000000000000000000000000000081526004016138ff90614fe3565b60405180910390fd5b42600360008581526020019081526020016000206004015411613960576040517f08c379a000000000000000000000000000000000000000000000000000000000815260040161395790614f03565b60405180910390fd5b600380600085815260200190815260200160002060070160146101000a81548160ff021916908360048111156139bf577f4e487b7100000000000000000000000000000000000000000000000000000000600052602160045260246000fd5b021790555042600760008581526020019081526020016000208190555060086000848152602001908152602001600020339080600181540180825580915050600190039060005260206000200160009091909190916101000a81548173ffffffffffffffffffffffffffffffffffffffff021916908373ffffffffffffffffffffffffffffffffffffffff1602179055507f5e4f9a3d8e8d8fc42bbe98104b324b50682ae0e3f892f0294dd16a226d48c21c8333604051613a81929190615159565b60405180910390a1505050565b6001806004811115613ac9577f4e487b7100000000000000000000000000000000000000000000000000000000600052602160045260246000fd5b600260003373ffffffffffffffffffffffffffffffffffffffff1673ffffffffffffffffffffffffffffffffffffffff16815260200190815260200160002060009054906101000a900460ff166004811115613b4e577f4e487b7100000000000000000000000000000000000000000000000000000000600052602160045260246000fd5b14613b8e576040517f08c379a0000000000000000000000000000000000000000000000000000000008152600401613b85906150e3565b60405180910390fd5b8280600360008381526020019081526020016000206000015414613be7576040517f08c379a0000000000000000000000000000000000000000000000000000000008152600401613bde90614ee3565b60405180910390fd5b60026004811115613c21577f4e487b7100000000000000000000000000000000000000000000000000000000600052602160045260246000fd5b600260008573ffffffffffffffffffffffffffffffffffffffff1673ffffffffffffffffffffffffffffffffffffffff16815260200190815260200160002060009054906101000a900460ff166004811115613ca6577f4e487b7100000000000000000000000000000000000000000000000000000000600052602160045260246000fd5b14613ce6576040517f08c379a0000000000000000000000000000000000000000000000000000000008152600401613cdd90615043565b60405180910390fd5b60006004811115613d20577f4e487b7100000000000000000000000000000000000000000000000000000000600052602160045260246000fd5b6003600086815260200190815260200160002060070160149054906101000a900460ff166004811115613d7c577f4e487b7100000000000000000000000000000000000000000000000000000000600052602160045260246000fd5b14613dbc576040517f08c379a0000000000000000000000000000000000000000000000000000000008152600401613db390614ea3565b60405180910390fd5b42600360008681526020019081526020016000206004015411613e14576040517f08c379a0000000000000000000000000000000000000000000000000000000008152600401613e0b90614f03565b60405180910390fd5b826003600086815260200190815260200160002060060160006101000a81548173ffffffffffffffffffffffffffffffffffffffff021916908373ffffffffffffffffffffffffffffffffffffffff16021790555060016003600086815260200190815260200160002060070160146101000a81548160ff02191690836004811115613ec9577f4e487b7100000000000000000000000000000000000000000000000000000000600052602160045260246000fd5b021790555042600760008681526020019081526020016000208190555060086000858152602001908152602001600020339080600181540180825580915050600190039060005260206000200160009091909190916101000a81548173ffffffffffffffffffffffffffffffffffffffff021916908373ffffffffffffffffffffffffffffffffffffffff16021790555060086000858152602001908152602001600020839080600181540180825580915050600190039060005260206000200160009091909190916101000a81548173ffffffffffffffffffffffffffffffffffffffff021916908373ffffffffffffffffffffffffffffffffffffffff1602179055507f7b1f1b9f258343e4507ba533f8ff285eb463d07c0adf8a9bf47be97ecc39b12b8484600160405161400293929190615182565b60405180910390a150505050565b61401861422f565b600460008373ffffffffffffffffffffffffffffffffffffffff1673ffffffffffffffffffffffffffffffffffffffff1681526020019081526020016000206040518060800160405290816000820160009054906101000a900460ff1660048111156140ad577f4e487b7100000000000000000000000000000000000000000000000000000000600052602160045260246000fd5b60048111156140e5577f4e487b7100000000000000000000000000000000000000000000000000000000600052602160045260246000fd5b81526020016000820160019054906101000a900460ff161515151581526020016000820160029054906101000a900460ff161515151581526020016000820160039054906101000a900460ff1615151515815250509050919050565b82805461414d90615537565b90600052602060002090601f01602090048101928261416f57600085556141b6565b82601f1061418857805160ff19168380011785556141b6565b828001600101855582156141b6579182015b828111156141b557825182559160200191906001019061419a565b5b5090506141c39190614295565b5090565b6040518060400160405280600073ffffffffffffffffffffffffffffffffffffffff16815260200160006004811115614229577f4e487b7100000000000000000000000000000000000000000000000000000000600052602160045260246000fd5b81525090565b604051806080016040528060006004811115614274577f4e487b7100000000000000000000000000000000000000000000000000000000600052602160045260246000fd5b81526020016000151581526020016000151581526020016000151581525090565b5b808211156142ae576000816000905550600101614296565b5090565b60006142c56142c0846152e6565b6152b5565b9050828152602081018484840111156142dd57600080fd5b6142e88482856154f5565b509392505050565b6000813590506142ff816156d6565b92915050565b600081359050614314816156ed565b92915050565b60008135905061432981615704565b92915050565b600082601f83011261434057600080fd5b81356143508482602086016142b2565b91505092915050565b60008135905061436881615714565b92915050565b60006020828403121561438057600080fd5b600061438e848285016142f0565b91505092915050565b6000602082840312156143a957600080fd5b60006143b78482850161431a565b91505092915050565b600080600080608085870312156143d657600080fd5b600085013567ffffffffffffffff8111156143f057600080fd5b6143fc8782880161432f565b945050602061440d87828801614359565b935050604061441e87828801614359565b925050606061442f87828801614359565b91505092959194509250565b60006020828403121561444d57600080fd5b600061445b84828501614359565b91505092915050565b6000806040838503121561447757600080fd5b600061448585828601614359565b925050602061449685828601614305565b9150509250929050565b600080604083850312156144b357600080fd5b60006144c185828601614359565b92505060206144d285828601614359565b9150509250929050565b60006144e8838361452a565b60208301905092915050565b60006145008383614c23565b60408301905092915050565b61451581615489565b82525050565b6145248161541b565b82525050565b61453381615409565b82525050565b61454281615409565b82525050565b600061455382615336565b61455d8185615371565b935061456883615316565b8060005b8381101561459957815161458088826144dc565b975061458b83615357565b92505060018101905061456c565b5085935050505092915050565b60006145b182615341565b6145bb8185615382565b93506145c683615326565b8060005b838110156145f75781516145de88826144f4565b97506145e983615364565b9250506001810190506145ca565b5085935050505092915050565b61460d8161542d565b82525050565b61461c8161542d565b82525050565b61462b8161549b565b82525050565b61463a8161549b565b82525050565b614649816154ad565b82525050565b614658816154bf565b82525050565b60006146698261534c565b6146738185615393565b9350614683818560208601615504565b61468c8161569d565b840191505092915050565b60006146a4601083615393565b91507f416c726561647920526563616c6c6564000000000000000000000000000000006000830152602082019050919050565b60006146e4601c83615393565b91507f4261746368206e6f7420726561647920666f72207472616e73666572000000006000830152602082019050919050565b6000614724601283615393565b91507f416c726561647920686173206120726f6c6500000000000000000000000000006000830152602082019050919050565b6000614764601483615393565b91507f426174636820646f6573206e6f742065786973740000000000000000000000006000830152602082019050919050565b60006147a4600d83615393565b91507f42617463682065787069726564000000000000000000000000000000000000006000830152602082019050919050565b60006147e4601f83615393565b91507f4e6f7420617574686f72697a656420666f7220626174636820616c65727473006000830152602082019050919050565b6000614824601983615393565b91507f5265717565737420616c72656164792070726f636573736564000000000000006000830152602082019050919050565b6000614864601883615393565b91507f4e6f7420617574686f72697a656420746f20726563616c6c00000000000000006000830152602082019050919050565b60006148a4601283615393565b91507f44727567206e616d6520726571756972656400000000000000000000000000006000830152602082019050919050565b60006148e4601083615393565b91507f496e76616c69642070726f7669646572000000000000000000000000000000006000830152602082019050919050565b6000614924601d83615393565b91507f43616e6e6f74207265717565737420526567756c61746f7220726f6c650000006000830152602082019050919050565b6000614964601783615393565b91507f4261746368206e6f742064656c697665726564207965740000000000000000006000830152602082019050919050565b60006149a4601783615393565b91507f5265717565737420616c72656164792070656e64696e670000000000000000006000830152602082019050919050565b60006149e4601083615393565b91507f4e6f207265717565737420666f756e64000000000000000000000000000000006000830152602082019050919050565b6000614a24601383615393565b91507f496e76616c6964206469737472696275746f72000000000000000000000000006000830152602082019050919050565b6000614a64601483615393565b91507f4261746368206e6f7420696e207472616e7369740000000000000000000000006000830152602082019050919050565b6000614aa4601c83615393565b91507f43616e6e6f742061737369676e20526567756c61746f7220726f6c65000000006000830152602082019050919050565b6000614ae4601f83615393565b91507f4f6e6c7920726567756c61746f722063616e2061737369676e20726f6c6573006000830152602082019050919050565b6000614b24602a83615393565b91507f4d616e75666163747572696e6720646174652063616e6e6f7420626520696e2060008301527f74686520667574757265000000000000000000000000000000000000000000006020830152604082019050919050565b6000614b8a601e83615393565b91507f4e6f7420617574686f72697a656420666f72207468697320616374696f6e00006000830152602082019050919050565b6000614bca602183615393565b91507f496e76616c6964206d616e75666163747572696e672f6578706972792064617460008301527f65000000000000000000000000000000000000000000000000000000000000006020830152604082019050919050565b604082016000820151614c39600085018261452a565b506020820151614c4c6020850182614622565b50505050565b608082016000820151614c686000850182614622565b506020820151614c7b6020850182614604565b506040820151614c8e6040850182614604565b506060820151614ca16060850182614604565b50505050565b614cb08161547f565b82525050565b6000602082019050614ccb6000830184614539565b92915050565b6000602082019050614ce6600083018461451b565b92915050565b60006020820190508181036000830152614d068184614548565b905092915050565b60006020820190508181036000830152614d2881846145a6565b905092915050565b6000604082019050614d456000830185614613565b614d52602083018461464f565b9392505050565b6000608082019050614d6e6000830187614613565b614d7b6020830186614ca7565b614d886040830185614613565b614d956060830184614613565b95945050505050565b6000602082019050614db36000830184614631565b92915050565b6000608082019050614dce6000830187614631565b614ddb6020830186614613565b614de86040830185614613565b614df56060830184614613565b95945050505050565b6000610100820190508181036000830152614e19818b61465e565b9050614e28602083018a614ca7565b614e356040830189614ca7565b614e426060830188614ca7565b614e4f6080830187614640565b614e5c60a083018661451b565b614e6960c083018561451b565b614e7660e083018461451b565b9998505050505050505050565b60006020820190508181036000830152614e9c81614697565b9050919050565b60006020820190508181036000830152614ebc816146d7565b9050919050565b60006020820190508181036000830152614edc81614717565b9050919050565b60006020820190508181036000830152614efc81614757565b9050919050565b60006020820190508181036000830152614f1c81614797565b9050919050565b60006020820190508181036000830152614f3c816147d7565b9050919050565b60006020820190508181036000830152614f5c81614817565b9050919050565b60006020820190508181036000830152614f7c81614857565b9050919050565b60006020820190508181036000830152614f9c81614897565b9050919050565b60006020820190508181036000830152614fbc816148d7565b9050919050565b60006020820190508181036000830152614fdc81614917565b9050919050565b60006020820190508181036000830152614ffc81614957565b9050919050565b6000602082019050818103600083015261501c81614997565b9050919050565b6000602082019050818103600083015261503c816149d7565b9050919050565b6000602082019050818103600083015261505c81614a17565b9050919050565b6000602082019050818103600083015261507c81614a57565b9050919050565b6000602082019050818103600083015261509c81614a97565b9050919050565b600060208201905081810360008301526150bc81614ad7565b9050919050565b600060208201905081810360008301526150dc81614b17565b9050919050565b600060208201905081810360008301526150fc81614b7d565b9050919050565b6000602082019050818103600083015261511c81614bbd565b9050919050565b60006080820190506151386000830184614c52565b92915050565b60006020820190506151536000830184614ca7565b92915050565b600060408201905061516e6000830185614ca7565b61517b6020830184614539565b9392505050565b60006060820190506151976000830186614ca7565b6151a4602083018561450c565b6151b16040830184614640565b949350505050565b600060c0820190506151ce6000830189614ca7565b81810360208301526151e0818861465e565b90506151ef6040830187614ca7565b6151fc6060830186614ca7565b6152096080830185614ca7565b61521660a0830184614539565b979650505050505050565b600061012082019050615237600083018c614ca7565b8181036020830152615249818b61465e565b9050615258604083018a614ca7565b6152656060830189614ca7565b6152726080830188614ca7565b61527f60a083018761451b565b61528c60c083018661451b565b61529960e083018561451b565b6152a7610100830184614640565b9a9950505050505050505050565b6000604051905081810181811067ffffffffffffffff821117156152dc576152db61566e565b5b8060405250919050565b600067ffffffffffffffff8211156153015761530061566e565b5b601f19601f8301169050602081019050919050565b6000819050602082019050919050565b6000819050602082019050919050565b600081519050919050565b600081519050919050565b600081519050919050565b6000602082019050919050565b6000602082019050919050565b600082825260208201905092915050565b600082825260208201905092915050565b600082825260208201905092915050565b60006153af8261547f565b91506153ba8361547f565b9250826153ca576153c96155e1565b5b828204905092915050565b60006153e08261547f565b91506153eb8361547f565b9250828210156153fe576153fd6155b2565b5b828203905092915050565b60006154148261545f565b9050919050565b60006154268261545f565b9050919050565b60008115159050919050565b6000819050615447826156ae565b919050565b600081905061545a826156c2565b919050565b600073ffffffffffffffffffffffffffffffffffffffff82169050919050565b6000819050919050565b6000615494826154d1565b9050919050565b60006154a682615439565b9050919050565b60006154b88261544c565b9050919050565b60006154ca8261547f565b9050919050565b60006154dc826154e3565b9050919050565b60006154ee8261545f565b9050919050565b82818337600083830152505050565b60005b83811015615522578082015181840152602081019050615507565b83811115615531576000848401525b50505050565b6000600282049050600182168061554f57607f821691505b602082108114156155635761556261563f565b5b50919050565b60006155748261547f565b91507fffffffffffffffffffffffffffffffffffffffffffffffffffffffffffffffff8214156155a7576155a66155b2565b5b600182019050919050565b7f4e487b7100000000000000000000000000000000000000000000000000000000600052601160045260246000fd5b7f4e487b7100000000000000000000000000000000000000000000000000000000600052601260045260246000fd5b7f4e487b7100000000000000000000000000000000000000000000000000000000600052602160045260246000fd5b7f4e487b7100000000000000000000000000000000000000000000000000000000600052602260045260246000fd5b7f4e487b7100000000000000000000000000000000000000000000000000000000600052604160045260246000fd5b6000601f19601f8301169050919050565b600581106156bf576156be615610565b5b50565b600581106156d3576156d2615610565b5b50565b6156df81615409565b81146156ea57600080fd5b50565b6156f68161541b565b811461570157600080fd5b50565b6005811061571157600080fd5b50565b61571d8161547f565b811461572857600080fd5b5056fea2646970667358221220ac8a642df415e2277c01d68d3a67b6fd9187a61b87eef3a5ae83cdca122789d664736f6c63430008000033",
  "immutableReferences": {},
  "source": "// SPDX-License-Identifier: MIT\r\npragma solidity ^0.8.0;\r\n\r\ncontract PharmaSupplyChain {\r\n    // Role Definitions\r\n    enum Role {\r\n        None,\r\n        Manufacturer,\r\n        Distributor,\r\n        HealthcareProvider,\r\n        Regulator\r\n    }\r\n    enum Status {\r\n        Created,\r\n        InTransit,\r\n        Delivered,\r\n        Verified,\r\n        Recalled\r\n    }\r\n\r\n    struct Batch {\r\n        uint batchID;\r\n        string drugName;\r\n        uint quantity;\r\n        uint manufacturingDate;\r\n        uint expiryDate;\r\n        address payable manufacturer;\r\n        address payable distributor;\r\n        address payable healthcareProvider;\r\n        Status status;\r\n    }\r\n\r\n    struct RoleRequest {\r\n        Role requestedRole;\r\n        bool exists;\r\n        bool approved;\r\n        bool processed;\r\n    }\r\n\r\n    struct PendingRequest {\r\n        address user;\r\n        Role requestedRole;\r\n    }\r\n\r\n    // State Variables\r\n    address payable public regulator;\r\n    uint public nextBatchID;\r\n    mapping(address => Role) public userRoles;\r\n    mapping(uint => Batch) public batches;\r\n    mapping(address => RoleRequest) public roleRequests;\r\n    address[] public pendingRequests;\r\n    mapping(address => uint) private requestIndices;\r\n    mapping(uint => uint) public batchStatusTimestamps;\r\n    mapping(uint => address[]) public batchHistory;\r\n\r\n    // Events\r\n    event RoleAssigned(address indexed user, Role role);\r\n    event BatchCreated(\r\n        uint batchID,\r\n        string drugName,\r\n        uint quantity,\r\n        uint manufacturingDate,\r\n        uint expiryDate,\r\n        address manufacturer\r\n    );\r\n    event BatchTransferred(uint batchID, address to, Status status);\r\n    event BatchVerified(uint batchID, address healthcareProvider);\r\n    event BatchRecalled(uint batchID, address recalledBy);\r\n    event ExpirationAlert(\r\n        uint indexed batchID,\r\n        bool isExpired,\r\n        uint daysRemaining\r\n    );\r\n    event RoleRequested(address indexed user, Role requestedRole);\r\n    event RoleApproved(address indexed user, Role role);\r\n    event RoleDenied(address indexed user, Role role);\r\n\r\n    // Modifiers\r\n    modifier onlyRole(Role requiredRole) {\r\n        require(\r\n            userRoles[msg.sender] == requiredRole,\r\n            \"Not authorized for this action\"\r\n        );\r\n        _;\r\n    }\r\n\r\n    modifier onlyRegulator() {\r\n        require(msg.sender == regulator, \"Only regulator can assign roles\");\r\n        _;\r\n    }\r\n\r\n    modifier batchExists(uint batchID) {\r\n        require(batches[batchID].batchID == batchID, \"Batch does not exist\");\r\n        _;\r\n    }\r\n\r\n    modifier onlyBatchAuthorized(uint batchID) {\r\n        Batch memory batch = batches[batchID];\r\n        require(\r\n            msg.sender == regulator ||\r\n                msg.sender == batch.manufacturer ||\r\n                msg.sender == batch.healthcareProvider,\r\n            \"Not authorized for batch alerts\"\r\n        );\r\n        _;\r\n    }\r\n\r\n    // Constructor\r\n    constructor() {\r\n        regulator = payable(msg.sender);\r\n        userRoles[msg.sender] = Role.Regulator;\r\n        nextBatchID = 1;\r\n        emit RoleAssigned(msg.sender, Role.Regulator);\r\n    }\r\n\r\n    // Role Management Functions\r\n    function requestRole(Role requestedRole) public {\r\n        require(userRoles[msg.sender] == Role.None, \"Already has a role\");\r\n        require(\r\n            requestedRole != Role.Regulator,\r\n            \"Cannot request Regulator role\"\r\n        );\r\n        require(\r\n            !roleRequests[msg.sender].exists ||\r\n                roleRequests[msg.sender].processed,\r\n            \"Request already pending\"\r\n        );\r\n\r\n        roleRequests[msg.sender] = RoleRequest({\r\n            requestedRole: requestedRole,\r\n            exists: true,\r\n            approved: false,\r\n            processed: false\r\n        });\r\n\r\n        pendingRequests.push(msg.sender);\r\n        requestIndices[msg.sender] = pendingRequests.length - 1;\r\n        emit RoleRequested(msg.sender, requestedRole);\r\n    }\r\n\r\n    function approveRoleRequest(address user) public onlyRegulator {\r\n        require(roleRequests[user].exists, \"No request found\");\r\n        require(!roleRequests[user].processed, \"Request already processed\");\r\n        require(\r\n            roleRequests[user].requestedRole != Role.Regulator,\r\n            \"Cannot assign Regulator role\"\r\n        );\r\n\r\n        Role requestedRole = roleRequests[user].requestedRole;\r\n        userRoles[user] = requestedRole;\r\n        roleRequests[user].approved = true;\r\n        roleRequests[user].processed = true;\r\n\r\n        // Efficient removal using swap-and-pop\r\n        uint idx = requestIndices[user];\r\n        address last = pendingRequests[pendingRequests.length - 1];\r\n        pendingRequests[idx] = last;\r\n        requestIndices[last] = idx;\r\n        pendingRequests.pop();\r\n        delete requestIndices[user];\r\n\r\n        emit RoleApproved(user, requestedRole);\r\n        emit RoleAssigned(user, requestedRole);\r\n    }\r\n\r\n    function denyRoleRequest(address user) public onlyRegulator {\r\n        require(roleRequests[user].exists, \"No request found\");\r\n        require(!roleRequests[user].processed, \"Request already processed\");\r\n\r\n        roleRequests[user].processed = true;\r\n\r\n        // Efficient removal using swap-and-pop\r\n        uint idx = requestIndices[user];\r\n        address last = pendingRequests[pendingRequests.length - 1];\r\n        pendingRequests[idx] = last;\r\n        requestIndices[last] = idx;\r\n        pendingRequests.pop();\r\n        delete requestIndices[user];\r\n\r\n        emit RoleDenied(user, roleRequests[user].requestedRole);\r\n    }\r\n\r\n    // Batch Lifecycle Functions\r\n    function createBatch(\r\n        string memory drugName,\r\n        uint quantity,\r\n        uint manufacturingDate,\r\n        uint expiryDate\r\n    ) public onlyRole(Role.Manufacturer) {\r\n        require(bytes(drugName).length > 0, \"Drug name required\");\r\n        require(\r\n            manufacturingDate < expiryDate,\r\n            \"Invalid manufacturing/expiry date\"\r\n        );\r\n        require(\r\n            manufacturingDate <= block.timestamp,\r\n            \"Manufacturing date cannot be in the future\"\r\n        );\r\n\r\n        batches[nextBatchID] = Batch({\r\n            batchID: nextBatchID,\r\n            drugName: drugName,\r\n            quantity: quantity,\r\n            manufacturingDate: manufacturingDate,\r\n            expiryDate: expiryDate,\r\n            manufacturer: payable(msg.sender),\r\n            distributor: payable(address(0)),\r\n            healthcareProvider: payable(address(0)),\r\n            status: Status.Created\r\n        });\r\n\r\n        batchStatusTimestamps[nextBatchID] = block.timestamp;\r\n        batchHistory[nextBatchID].push(msg.sender);\r\n        emit BatchCreated(\r\n            nextBatchID,\r\n            drugName,\r\n            quantity,\r\n            manufacturingDate,\r\n            expiryDate,\r\n            msg.sender\r\n        );\r\n        nextBatchID++;\r\n    }\r\n\r\n    function transferToDistributor(\r\n        uint batchID,\r\n        address payable distributor\r\n    ) public onlyRole(Role.Manufacturer) batchExists(batchID) {\r\n        require(\r\n            userRoles[distributor] == Role.Distributor,\r\n            \"Invalid distributor\"\r\n        );\r\n        require(\r\n            batches[batchID].status == Status.Created,\r\n            \"Batch not ready for transfer\"\r\n        );\r\n        require(batches[batchID].expiryDate > block.timestamp, \"Batch expired\");\r\n\r\n        batches[batchID].distributor = distributor;\r\n        batches[batchID].status = Status.InTransit;\r\n        batchStatusTimestamps[batchID] = block.timestamp;\r\n        batchHistory[batchID].push(msg.sender);\r\n        batchHistory[batchID].push(distributor);\r\n        emit BatchTransferred(batchID, distributor, Status.InTransit);\r\n    }\r\n\r\n    function transferToHealthcare(\r\n        uint batchID,\r\n        address payable healthcareProvider\r\n    ) public onlyRole(Role.Distributor) batchExists(batchID) {\r\n        require(\r\n            userRoles[healthcareProvider] == Role.HealthcareProvider,\r\n            \"Invalid provider\"\r\n        );\r\n        require(\r\n            batches[batchID].status == Status.InTransit,\r\n            \"Batch not in transit\"\r\n        );\r\n        require(batches[batchID].expiryDate > block.timestamp, \"Batch expired\");\r\n\r\n        batches[batchID].healthcareProvider = healthcareProvider;\r\n        batches[batchID].status = Status.Delivered;\r\n        batchStatusTimestamps[batchID] = block.timestamp;\r\n        batchHistory[batchID].push(msg.sender);\r\n        batchHistory[batchID].push(healthcareProvider);\r\n        emit BatchTransferred(batchID, healthcareProvider, Status.Delivered);\r\n    }\r\n\r\n    function verifyBatch(\r\n        uint batchID\r\n    ) public onlyRole(Role.HealthcareProvider) batchExists(batchID) {\r\n        require(\r\n            batches[batchID].status == Status.Delivered,\r\n            \"Batch not delivered yet\"\r\n        );\r\n        require(batches[batchID].expiryDate > block.timestamp, \"Batch expired\");\r\n\r\n        batches[batchID].status = Status.Verified;\r\n        batchStatusTimestamps[batchID] = block.timestamp;\r\n        batchHistory[batchID].push(msg.sender);\r\n        emit BatchVerified(batchID, msg.sender);\r\n    }\r\n\r\n    function recallBatch(uint batchID) public batchExists(batchID) {\r\n        require(batches[batchID].status != Status.Recalled, \"Already Recalled\");\r\n        require(\r\n            msg.sender == regulator ||\r\n                (msg.sender == batches[batchID].manufacturer &&\r\n                    batches[batchID].status != Status.Verified) ||\r\n                (msg.sender == batches[batchID].healthcareProvider &&\r\n                    batches[batchID].status == Status.Delivered),\r\n            \"Not authorized to recall\"\r\n        );\r\n\r\n        batches[batchID].status = Status.Recalled;\r\n        batchStatusTimestamps[batchID] = block.timestamp;\r\n        batchHistory[batchID].push(msg.sender);\r\n        emit BatchRecalled(batchID, msg.sender);\r\n        emit ExpirationAlert(batchID, false, 0);\r\n    }\r\n\r\n    // View Functions\r\n    function getBatchDetails(\r\n        uint batchID\r\n    )\r\n        public\r\n        view\r\n        batchExists(batchID)\r\n        returns (\r\n            string memory drugName,\r\n            uint quantity,\r\n            uint manufacturingDate,\r\n            uint expiryDate,\r\n            Status status,\r\n            address payable manufacturer,\r\n            address payable distributor,\r\n            address payable healthcareProvider\r\n        )\r\n    {\r\n        Batch memory batch = batches[batchID];\r\n        return (\r\n            batch.drugName,\r\n            batch.quantity,\r\n            batch.manufacturingDate,\r\n            batch.expiryDate,\r\n            batch.status,\r\n            batch.manufacturer,\r\n            batch.distributor,\r\n            batch.healthcareProvider\r\n        );\r\n    }\r\n\r\n    function checkExpirationAlert(\r\n        uint batchID\r\n    )\r\n        public\r\n        view\r\n        batchExists(batchID)\r\n        onlyBatchAuthorized(batchID)\r\n        returns (\r\n            bool isExpired,\r\n            uint daysRemaining,\r\n            bool needsAttention,\r\n            bool isRecalled\r\n        )\r\n    {\r\n        Batch memory batch = batches[batchID];\r\n        isRecalled = (batch.status == Status.Recalled);\r\n\r\n        if (isRecalled) {\r\n            return (false, 0, false, true);\r\n        }\r\n\r\n        isExpired = (batch.expiryDate <= block.timestamp);\r\n        uint secondsRemaining = batch.expiryDate > block.timestamp\r\n            ? batch.expiryDate - block.timestamp\r\n            : 0;\r\n\r\n        daysRemaining = secondsRemaining / 1 days;\r\n        needsAttention = isExpired || daysRemaining <= 7;\r\n\r\n        return (isExpired, daysRemaining, needsAttention, false);\r\n    }\r\n\r\n    // Utility Functions\r\n    function getPendingRequests()\r\n        public\r\n        view\r\n        onlyRegulator\r\n        returns (address[] memory)\r\n    {\r\n        return pendingRequests;\r\n    }\r\n\r\n    function getRequestStatus(\r\n        address user\r\n    ) public view returns (RoleRequest memory) {\r\n        return roleRequests[user];\r\n    }\r\n\r\n    function getPendingRequestsWithRoles() \r\n        public \r\n        view \r\n        onlyRegulator \r\n        returns (PendingRequest[] memory) \r\n    {\r\n        PendingRequest[] memory requests = new PendingRequest[](pendingRequests.length);\r\n        \r\n        for (uint i = 0; i < pendingRequests.length; i++) {\r\n            address user = pendingRequests[i];\r\n            requests[i] = PendingRequest({\r\n                user: user,\r\n                requestedRole: roleRequests[user].requestedRole\r\n            });\r\n        }\r\n        \r\n        return requests;\r\n    }\r\n\r\n    // View Ownership Transfer History\r\n    function getBatchHistory(\r\n        uint batchID\r\n    ) public view batchExists(batchID) returns (address[] memory) {\r\n        return batchHistory[batchID];\r\n    }\r\n}\r\n",
  "sourcePath": "C:\\Users\\Monalisha\\Desktop\\pharma-supply-chain\\contracts\\pharmaSupplyChain.sol",
  "compiler": {
    "name": "solc",
    "version": "0.8.0+commit.c7dfd78e.Emscripten.clang"
  },
  "schemaVersion": "3.4.16",
  "updatedAt": "2025-04-15T04:27:26.278Z",
  "networkType": "ethereum",
  "devdoc": {
    "kind": "dev",
    "methods": {},
    "version": 1
  },
  "userdoc": {
    "kind": "user",
    "methods": {},
    "version": 1
  }
}