{
  "contractName": "PharmaSupplyChain",
  "abi": [
    {
      "inputs": [],
      "stateMutability": "nonpayable",
      "type": "constructor"
    },
    {
      "anonymous": false,
      "inputs": [
        {
          "indexed": false,
          "internalType": "uint256",
          "name": "batchID",
          "type": "uint256"
        },
        {
          "indexed": false,
          "internalType": "string",
          "name": "drugName",
          "type": "string"
        },
        {
          "indexed": false,
          "internalType": "uint256",
          "name": "quantity",
          "type": "uint256"
        },
        {
          "indexed": false,
          "internalType": "uint256",
          "name": "manufacturingDate",
          "type": "uint256"
        },
        {
          "indexed": false,
          "internalType": "uint256",
          "name": "expiryDate",
          "type": "uint256"
        },
        {
          "indexed": false,
          "internalType": "address",
          "name": "manufacturer",
          "type": "address"
        }
      ],
      "name": "BatchCreated",
      "type": "event"
    },
    {
      "anonymous": false,
      "inputs": [
        {
          "indexed": false,
          "internalType": "uint256",
          "name": "batchID",
          "type": "uint256"
        },
        {
          "indexed": false,
          "internalType": "address",
          "name": "recalledBy",
          "type": "address"
        }
      ],
      "name": "BatchRecalled",
      "type": "event"
    },
    {
      "anonymous": false,
      "inputs": [
        {
          "indexed": false,
          "internalType": "uint256",
          "name": "batchID",
          "type": "uint256"
        },
        {
          "indexed": false,
          "internalType": "address",
          "name": "to",
          "type": "address"
        },
        {
          "indexed": false,
          "internalType": "enum PharmaSupplyChain.Status",
          "name": "status",
          "type": "uint8"
        }
      ],
      "name": "BatchTransferred",
      "type": "event"
    },
    {
      "anonymous": false,
      "inputs": [
        {
          "indexed": false,
          "internalType": "uint256",
          "name": "batchID",
          "type": "uint256"
        },
        {
          "indexed": false,
          "internalType": "address",
          "name": "healthcareProvider",
          "type": "address"
        }
      ],
      "name": "BatchVerified",
      "type": "event"
    },
    {
      "anonymous": false,
      "inputs": [
        {
          "indexed": true,
          "internalType": "uint256",
          "name": "batchID",
          "type": "uint256"
        },
        {
          "indexed": false,
          "internalType": "bool",
          "name": "isExpired",
          "type": "bool"
        },
        {
          "indexed": false,
          "internalType": "uint256",
          "name": "daysRemaining",
          "type": "uint256"
        }
      ],
      "name": "ExpirationAlert",
      "type": "event"
    },
    {
      "anonymous": false,
      "inputs": [
        {
          "indexed": true,
          "internalType": "address",
          "name": "user",
          "type": "address"
        },
        {
          "indexed": false,
          "internalType": "enum PharmaSupplyChain.Role",
          "name": "role",
          "type": "uint8"
        }
      ],
      "name": "RoleApproved",
      "type": "event"
    },
    {
      "anonymous": false,
      "inputs": [
        {
          "indexed": true,
          "internalType": "address",
          "name": "user",
          "type": "address"
        },
        {
          "indexed": false,
          "internalType": "enum PharmaSupplyChain.Role",
          "name": "role",
          "type": "uint8"
        }
      ],
      "name": "RoleAssigned",
      "type": "event"
    },
    {
      "anonymous": false,
      "inputs": [
        {
          "indexed": true,
          "internalType": "address",
          "name": "user",
          "type": "address"
        },
        {
          "indexed": false,
          "internalType": "enum PharmaSupplyChain.Role",
          "name": "role",
          "type": "uint8"
        }
      ],
      "name": "RoleDenied",
      "type": "event"
    },
    {
      "anonymous": false,
      "inputs": [
        {
          "indexed": true,
          "internalType": "address",
          "name": "user",
          "type": "address"
        },
        {
          "indexed": false,
          "internalType": "enum PharmaSupplyChain.Role",
          "name": "requestedRole",
          "type": "uint8"
        }
      ],
      "name": "RoleRequested",
      "type": "event"
    },
    {
      "inputs": [
        {
          "internalType": "uint256",
          "name": "",
          "type": "uint256"
        },
        {
          "internalType": "uint256",
          "name": "",
          "type": "uint256"
        }
      ],
      "name": "batchHistory",
      "outputs": [
        {
          "internalType": "address",
          "name": "",
          "type": "address"
        }
      ],
      "stateMutability": "view",
      "type": "function",
      "constant": true
    },
    {
      "inputs": [
        {
          "internalType": "uint256",
          "name": "",
          "type": "uint256"
        }
      ],
      "name": "batchStatusTimestamps",
      "outputs": [
        {
          "internalType": "uint256",
          "name": "",
          "type": "uint256"
        }
      ],
      "stateMutability": "view",
      "type": "function",
      "constant": true
    },
    {
      "inputs": [
        {
          "internalType": "uint256",
          "name": "",
          "type": "uint256"
        }
      ],
      "name": "batches",
      "outputs": [
        {
          "internalType": "uint256",
          "name": "batchID",
          "type": "uint256"
        },
        {
          "internalType": "string",
          "name": "drugName",
          "type": "string"
        },
        {
          "internalType": "uint256",
          "name": "quantity",
          "type": "uint256"
        },
        {
          "internalType": "uint256",
          "name": "manufacturingDate",
          "type": "uint256"
        },
        {
          "internalType": "uint256",
          "name": "expiryDate",
          "type": "uint256"
        },
        {
          "internalType": "address payable",
          "name": "manufacturer",
          "type": "address"
        },
        {
          "internalType": "address payable",
          "name": "distributor",
          "type": "address"
        },
        {
          "internalType": "address payable",
          "name": "healthcareProvider",
          "type": "address"
        },
        {
          "internalType": "enum PharmaSupplyChain.Status",
          "name": "status",
          "type": "uint8"
        }
      ],
      "stateMutability": "view",
      "type": "function",
      "constant": true
    },
    {
      "inputs": [],
      "name": "nextBatchID",
      "outputs": [
        {
          "internalType": "uint256",
          "name": "",
          "type": "uint256"
        }
      ],
      "stateMutability": "view",
      "type": "function",
      "constant": true
    },
    {
      "inputs": [
        {
          "internalType": "uint256",
          "name": "",
          "type": "uint256"
        }
      ],
      "name": "pendingRequests",
      "outputs": [
        {
          "internalType": "address",
          "name": "",
          "type": "address"
        }
      ],
      "stateMutability": "view",
      "type": "function",
      "constant": true
    },
    {
      "inputs": [],
      "name": "regulator",
      "outputs": [
        {
          "internalType": "address payable",
          "name": "",
          "type": "address"
        }
      ],
      "stateMutability": "view",
      "type": "function",
      "constant": true
    },
    {
      "inputs": [
        {
          "internalType": "address",
          "name": "",
          "type": "address"
        }
      ],
      "name": "roleRequests",
      "outputs": [
        {
          "internalType": "enum PharmaSupplyChain.Role",
          "name": "requestedRole",
          "type": "uint8"
        },
        {
          "internalType": "bool",
          "name": "exists",
          "type": "bool"
        },
        {
          "internalType": "bool",
          "name": "approved",
          "type": "bool"
        },
        {
          "internalType": "bool",
          "name": "processed",
          "type": "bool"
        }
      ],
      "stateMutability": "view",
      "type": "function",
      "constant": true
    },
    {
      "inputs": [
        {
          "internalType": "address",
          "name": "",
          "type": "address"
        }
      ],
      "name": "userRoles",
      "outputs": [
        {
          "internalType": "enum PharmaSupplyChain.Role",
          "name": "",
          "type": "uint8"
        }
      ],
      "stateMutability": "view",
      "type": "function",
      "constant": true
    },
    {
      "inputs": [
        {
          "internalType": "enum PharmaSupplyChain.Role",
          "name": "requestedRole",
          "type": "uint8"
        }
      ],
      "name": "requestRole",
      "outputs": [],
      "stateMutability": "nonpayable",
      "type": "function"
    },
    {
      "inputs": [
        {
          "internalType": "address",
          "name": "user",
          "type": "address"
        }
      ],
      "name": "approveRoleRequest",
      "outputs": [],
      "stateMutability": "nonpayable",
      "type": "function"
    },
    {
      "inputs": [
        {
          "internalType": "address",
          "name": "user",
          "type": "address"
        }
      ],
      "name": "denyRoleRequest",
      "outputs": [],
      "stateMutability": "nonpayable",
      "type": "function"
    },
    {
      "inputs": [
        {
          "internalType": "string",
          "name": "drugName",
          "type": "string"
        },
        {
          "internalType": "uint256",
          "name": "quantity",
          "type": "uint256"
        },
        {
          "internalType": "uint256",
          "name": "manufacturingDate",
          "type": "uint256"
        },
        {
          "internalType": "uint256",
          "name": "expiryDate",
          "type": "uint256"
        }
      ],
      "name": "createBatch",
      "outputs": [],
      "stateMutability": "nonpayable",
      "type": "function"
    },
    {
      "inputs": [
        {
          "internalType": "uint256",
          "name": "batchID",
          "type": "uint256"
        },
        {
          "internalType": "address payable",
          "name": "distributor",
          "type": "address"
        }
      ],
      "name": "transferToDistributor",
      "outputs": [],
      "stateMutability": "nonpayable",
      "type": "function"
    },
    {
      "inputs": [
        {
          "internalType": "uint256",
          "name": "batchID",
          "type": "uint256"
        },
        {
          "internalType": "address payable",
          "name": "healthcareProvider",
          "type": "address"
        }
      ],
      "name": "transferToHealthcare",
      "outputs": [],
      "stateMutability": "nonpayable",
      "type": "function"
    },
    {
      "inputs": [
        {
          "internalType": "uint256",
          "name": "batchID",
          "type": "uint256"
        }
      ],
      "name": "verifyBatch",
      "outputs": [],
      "stateMutability": "nonpayable",
      "type": "function"
    },
    {
      "inputs": [
        {
          "internalType": "uint256",
          "name": "batchID",
          "type": "uint256"
        }
      ],
      "name": "recallBatch",
      "outputs": [],
      "stateMutability": "nonpayable",
      "type": "function"
    },
    {
      "inputs": [
        {
          "internalType": "uint256",
          "name": "batchID",
          "type": "uint256"
        }
      ],
      "name": "getBatchDetails",
      "outputs": [
        {
          "internalType": "string",
          "name": "drugName",
          "type": "string"
        },
        {
          "internalType": "uint256",
          "name": "quantity",
          "type": "uint256"
        },
        {
          "internalType": "uint256",
          "name": "manufacturingDate",
          "type": "uint256"
        },
        {
          "internalType": "uint256",
          "name": "expiryDate",
          "type": "uint256"
        },
        {
          "internalType": "enum PharmaSupplyChain.Status",
          "name": "status",
          "type": "uint8"
        },
        {
          "internalType": "address payable",
          "name": "manufacturer",
          "type": "address"
        },
        {
          "internalType": "address payable",
          "name": "distributor",
          "type": "address"
        },
        {
          "internalType": "address payable",
          "name": "healthcareProvider",
          "type": "address"
        }
      ],
      "stateMutability": "view",
      "type": "function",
      "constant": true
    },
    {
      "inputs": [
        {
          "internalType": "uint256",
          "name": "batchID",
          "type": "uint256"
        }
      ],
      "name": "checkExpirationAlert",
      "outputs": [
        {
          "internalType": "bool",
          "name": "isExpired",
          "type": "bool"
        },
        {
          "internalType": "uint256",
          "name": "daysRemaining",
          "type": "uint256"
        },
        {
          "internalType": "bool",
          "name": "needsAttention",
          "type": "bool"
        },
        {
          "internalType": "bool",
          "name": "isRecalled",
          "type": "bool"
        }
      ],
      "stateMutability": "view",
      "type": "function",
      "constant": true
    },
    {
      "inputs": [],
      "name": "getPendingRequests",
      "outputs": [
        {
          "internalType": "address[]",
          "name": "",
          "type": "address[]"
        }
      ],
      "stateMutability": "view",
      "type": "function",
      "constant": true
    },
    {
      "inputs": [
        {
          "internalType": "address",
          "name": "user",
          "type": "address"
        }
      ],
      "name": "getRequestStatus",
      "outputs": [
        {
          "components": [
            {
              "internalType": "enum PharmaSupplyChain.Role",
              "name": "requestedRole",
              "type": "uint8"
            },
            {
              "internalType": "bool",
              "name": "exists",
              "type": "bool"
            },
            {
              "internalType": "bool",
              "name": "approved",
              "type": "bool"
            },
            {
              "internalType": "bool",
              "name": "processed",
              "type": "bool"
            }
          ],
          "internalType": "struct PharmaSupplyChain.RoleRequest",
          "name": "",
          "type": "tuple"
        }
      ],
      "stateMutability": "view",
      "type": "function",
      "constant": true
    },
    {
      "inputs": [],
      "name": "getPendingRequestsWithRoles",
      "outputs": [
        {
          "components": [
            {
              "internalType": "address",
              "name": "user",
              "type": "address"
            },
            {
              "internalType": "enum PharmaSupplyChain.Role",
              "name": "requestedRole",
              "type": "uint8"
            }
          ],
          "internalType": "struct PharmaSupplyChain.PendingRequest[]",
          "name": "",
          "type": "tuple[]"
        }
      ],
      "stateMutability": "view",
      "type": "function",
      "constant": true
    },
    {
      "inputs": [
        {
          "internalType": "uint256",
          "name": "batchID",
          "type": "uint256"
        }
      ],
      "name": "getBatchHistory",
      "outputs": [
        {
          "internalType": "address[]",
          "name": "",
          "type": "address[]"
        }
      ],
      "stateMutability": "view",
      "type": "function",
      "constant": true
    },
    {
      "inputs": [],
      "name": "getAllBatchesWithStatus",
      "outputs": [
        {
          "components": [
            {
              "internalType": "uint256",
              "name": "batchID",
              "type": "uint256"
            },
            {
              "internalType": "enum PharmaSupplyChain.Status",
              "name": "status",
              "type": "uint8"
            },
            {
              "internalType": "uint256",
              "name": "expiryDate",
              "type": "uint256"
            }
          ],
          "internalType": "struct PharmaSupplyChain.BatchSummary[]",
          "name": "",
          "type": "tuple[]"
        }
      ],
      "stateMutability": "view",
      "type": "function",
      "constant": true
    },
    {
      "inputs": [],
      "name": "getBatchStatusCounts",
      "outputs": [
        {
          "internalType": "uint256",
          "name": "active",
          "type": "uint256"
        },
        {
          "internalType": "uint256",
          "name": "recalled",
          "type": "uint256"
        },
        {
          "internalType": "uint256",
          "name": "inTransit",
          "type": "uint256"
        }
      ],
      "stateMutability": "view",
      "type": "function",
      "constant": true
    }
  ],
  "bytecode": "0x60806040523480156200001157600080fd5b50336000806101000a81548173ffffffffffffffffffffffffffffffffffffffff021916908373ffffffffffffffffffffffffffffffffffffffff1602179055506004600260003373ffffffffffffffffffffffffffffffffffffffff1673ffffffffffffffffffffffffffffffffffffffff16815260200190815260200160002060006101000a81548160ff02191690836004811115620000dc577f4e487b7100000000000000000000000000000000000000000000000000000000600052602160045260246000fd5b0217905550600180819055503373ffffffffffffffffffffffffffffffffffffffff167f4ac36fa53f167ceb85964be512e01de2a3b8bdb9862f917da079deeeff689b38600460405162000131919062000150565b60405180910390a2620001dc565b6200014a8162000182565b82525050565b60006020820190506200016760008301846200013f565b92915050565b60008190506200017d82620001c5565b919050565b60006200018f826200016d565b9050919050565b7f4e487b7100000000000000000000000000000000000000000000000000000000600052602160045260246000fd5b60058110620001d957620001d862000196565b5b50565b615e1880620001ec6000396000f3fe608060405234801561001057600080fd5b50600436106101585760003560e01c8063a1c1743b116100c3578063d1061fef1161007c578063d1061fef1461040f578063dd8fee1414610442578063dfe3a3ae14610460578063e229f2cb1461047c578063ec5475d014610498578063f98fe628146104b857610158565b8063a1c1743b14610333578063a6e162b41461034f578063a72598ce1461036b578063b32c4d8d14610389578063c2f7fa30146103c1578063c7a8ccb1146103df57610158565b806379fa48b61161011557806379fa48b6146102435780637e2933b01461025f57806380a1f7121461027b5780639000cb961461029957806394a09bc5146102c95780639d47dcc0146102fc57610158565b80631896d2981461015d5780633126b965146101795780633c652a9a146101a95780634b41b679146101d95780634f5f9292146101f557806374d5e10014610213575b600080fd5b610177600480360381019061017291906148e6565b6104e8565b005b610193600480360381019061018e919061498a565b6109e4565b6040516101a09190615785565b60405180910390f35b6101c360048036038101906101be919061498a565b6109fc565b6040516101d091906152db565b60405180910390f35b6101f360048036038101906101ee91906148bd565b610a3b565b005b6101fd611158565b60405161020a9190615333565b60405180910390f35b61022d600480360381019061022891906148bd565b6112f0565b60405161023a91906153e5565b60405180910390f35b61025d600480360381019061025891906148bd565b611310565b005b610279600480360381019061027491906149b3565b6117ef565b005b610283611d71565b6040516102909190615311565b60405180910390f35b6102b360048036038101906102ae91906149ef565b611e8d565b6040516102c091906152db565b60405180910390f35b6102e360048036038101906102de919061498a565b611edb565b6040516102f394939291906153a0565b60405180910390f35b6103166004803603810190610311919061498a565b612609565b60405161032a989796959493929190615445565b60405180910390f35b61034d6004803603810190610348919061490f565b61291b565b005b6103696004803603810190610364919061498a565b612e1e565b005b61037361335b565b6040516103809190615785565b60405180910390f35b6103a3600480360381019061039e919061498a565b613361565b6040516103b899989796959493929190615868565b60405180910390f35b6103c96134a4565b6040516103d69190615355565b60405180910390f35b6103f960048036038101906103f4919061498a565b613742565b6040516104069190615311565b60405180910390f35b610429600480360381019061042491906148bd565b61383d565b6040516104399493929190615400565b60405180910390f35b61044a6138a1565b60405161045791906152f6565b60405180910390f35b61047a6004803603810190610475919061498a565b6138c5565b005b610496600480360381019061049191906149b3565b613c7a565b005b6104a06141fc565b6040516104af939291906158fc565b60405180910390f35b6104d260048036038101906104cd91906148bd565b614506565b6040516104df919061576a565b60405180910390f35b60006004811115610522577f4e487b7100000000000000000000000000000000000000000000000000000000600052602160045260246000fd5b600260003373ffffffffffffffffffffffffffffffffffffffff1673ffffffffffffffffffffffffffffffffffffffff16815260200190815260200160002060009054906101000a900460ff1660048111156105a7577f4e487b7100000000000000000000000000000000000000000000000000000000600052602160045260246000fd5b146105e7576040517f08c379a00000000000000000000000000000000000000000000000000000000081526004016105de9061550a565b60405180910390fd5b600480811115610620577f4e487b7100000000000000000000000000000000000000000000000000000000600052602160045260246000fd5b816004811115610659577f4e487b7100000000000000000000000000000000000000000000000000000000600052602160045260246000fd5b141561069a576040517f08c379a00000000000000000000000000000000000000000000000000000000081526004016106919061560a565b60405180910390fd5b600460003373ffffffffffffffffffffffffffffffffffffffff1673ffffffffffffffffffffffffffffffffffffffff16815260200190815260200160002060000160019054906101000a900460ff1615806107425750600460003373ffffffffffffffffffffffffffffffffffffffff1673ffffffffffffffffffffffffffffffffffffffff16815260200190815260200160002060000160039054906101000a900460ff165b610781576040517f08c379a00000000000000000000000000000000000000000000000000000000081526004016107789061564a565b60405180910390fd5b60405180608001604052808260048111156107c5577f4e487b7100000000000000000000000000000000000000000000000000000000600052602160045260246000fd5b815260200160011515815260200160001515815260200160001515815250600460003373ffffffffffffffffffffffffffffffffffffffff1673ffffffffffffffffffffffffffffffffffffffff16815260200190815260200160002060008201518160000160006101000a81548160ff02191690836004811115610873577f4e487b7100000000000000000000000000000000000000000000000000000000600052602160045260246000fd5b021790555060208201518160000160016101000a81548160ff02191690831515021790555060408201518160000160026101000a81548160ff02191690831515021790555060608201518160000160036101000a81548160ff0219169083151502179055509050506005339080600181540180825580915050600190039060005260206000200160009091909190916101000a81548173ffffffffffffffffffffffffffffffffffffffff021916908373ffffffffffffffffffffffffffffffffffffffff16021790555060016005805490506109509190615a8c565b600660003373ffffffffffffffffffffffffffffffffffffffff1673ffffffffffffffffffffffffffffffffffffffff168152602001908152602001600020819055503373ffffffffffffffffffffffffffffffffffffffff167ff895b94cb55ee9f608ecb65ff13cf68962fd45bdfcfb5a3eaafcaa1571571e02826040516109d991906153e5565b60405180910390a250565b60076020528060005260406000206000915090505481565b60058181548110610a0c57600080fd5b906000526020600020016000915054906101000a900473ffffffffffffffffffffffffffffffffffffffff1681565b60008054906101000a900473ffffffffffffffffffffffffffffffffffffffff1673ffffffffffffffffffffffffffffffffffffffff163373ffffffffffffffffffffffffffffffffffffffff1614610ac9576040517f08c379a0000000000000000000000000000000000000000000000000000000008152600401610ac0906156ea565b60405180910390fd5b600460008273ffffffffffffffffffffffffffffffffffffffff1673ffffffffffffffffffffffffffffffffffffffff16815260200190815260200160002060000160019054906101000a900460ff16610b58576040517f08c379a0000000000000000000000000000000000000000000000000000000008152600401610b4f9061566a565b60405180910390fd5b600460008273ffffffffffffffffffffffffffffffffffffffff1673ffffffffffffffffffffffffffffffffffffffff16815260200190815260200160002060000160039054906101000a900460ff1615610be8576040517f08c379a0000000000000000000000000000000000000000000000000000000008152600401610bdf9061558a565b60405180910390fd5b600480811115610c21577f4e487b7100000000000000000000000000000000000000000000000000000000600052602160045260246000fd5b600460008373ffffffffffffffffffffffffffffffffffffffff1673ffffffffffffffffffffffffffffffffffffffff16815260200190815260200160002060000160009054906101000a900460ff166004811115610ca9577f4e487b7100000000000000000000000000000000000000000000000000000000600052602160045260246000fd5b1415610cea576040517f08c379a0000000000000000000000000000000000000000000000000000000008152600401610ce1906156ca565b60405180910390fd5b6000600460008373ffffffffffffffffffffffffffffffffffffffff1673ffffffffffffffffffffffffffffffffffffffff16815260200190815260200160002060000160009054906101000a900460ff16905080600260008473ffffffffffffffffffffffffffffffffffffffff1673ffffffffffffffffffffffffffffffffffffffff16815260200190815260200160002060006101000a81548160ff02191690836004811115610dc6577f4e487b7100000000000000000000000000000000000000000000000000000000600052602160045260246000fd5b02179055506001600460008473ffffffffffffffffffffffffffffffffffffffff1673ffffffffffffffffffffffffffffffffffffffff16815260200190815260200160002060000160026101000a81548160ff0219169083151502179055506001600460008473ffffffffffffffffffffffffffffffffffffffff1673ffffffffffffffffffffffffffffffffffffffff16815260200190815260200160002060000160036101000a81548160ff0219169083151502179055506000600660008473ffffffffffffffffffffffffffffffffffffffff1673ffffffffffffffffffffffffffffffffffffffff168152602001908152602001600020549050600060056001600580549050610edb9190615a8c565b81548110610f12577f4e487b7100000000000000000000000000000000000000000000000000000000600052603260045260246000fd5b9060005260206000200160009054906101000a900473ffffffffffffffffffffffffffffffffffffffff1690508060058381548110610f7a577f4e487b7100000000000000000000000000000000000000000000000000000000600052603260045260246000fd5b9060005260206000200160006101000a81548173ffffffffffffffffffffffffffffffffffffffff021916908373ffffffffffffffffffffffffffffffffffffffff16021790555081600660008373ffffffffffffffffffffffffffffffffffffffff1673ffffffffffffffffffffffffffffffffffffffff16815260200190815260200160002081905550600580548061103e577f4e487b7100000000000000000000000000000000000000000000000000000000600052603160045260246000fd5b6001900381819060005260206000200160006101000a81549073ffffffffffffffffffffffffffffffffffffffff02191690559055600660008573ffffffffffffffffffffffffffffffffffffffff1673ffffffffffffffffffffffffffffffffffffffff168152602001908152602001600020600090558373ffffffffffffffffffffffffffffffffffffffff167f042f52f18ca9258767cef802b6283a39f6c1053fbd02bee367edc363da679f86846040516110fc91906153e5565b60405180910390a28373ffffffffffffffffffffffffffffffffffffffff167f4ac36fa53f167ceb85964be512e01de2a3b8bdb9862f917da079deeeff689b388460405161114a91906153e5565b60405180910390a250505050565b606060006001805461116a9190615a8c565b905060008167ffffffffffffffff8111156111ae577f4e487b7100000000000000000000000000000000000000000000000000000000600052604160045260246000fd5b6040519080825280602002602001820160405280156111e757816020015b6111d4614637565b8152602001906001900390816111cc5790505b5090506000600190505b8281116112e75760405180606001604052808281526020016003600084815260200190815260200160002060070160149054906101000a900460ff166004811115611265577f4e487b7100000000000000000000000000000000000000000000000000000000600052602160045260246000fd5b81526020016003600084815260200190815260200160002060040154815250826001836112929190615a8c565b815181106112c9577f4e487b7100000000000000000000000000000000000000000000000000000000600052603260045260246000fd5b602002602001018190525080806112df90615c20565b9150506111f1565b50809250505090565b60026020528060005260406000206000915054906101000a900460ff1681565b60008054906101000a900473ffffffffffffffffffffffffffffffffffffffff1673ffffffffffffffffffffffffffffffffffffffff163373ffffffffffffffffffffffffffffffffffffffff161461139e576040517f08c379a0000000000000000000000000000000000000000000000000000000008152600401611395906156ea565b60405180910390fd5b600460008273ffffffffffffffffffffffffffffffffffffffff1673ffffffffffffffffffffffffffffffffffffffff16815260200190815260200160002060000160019054906101000a900460ff1661142d576040517f08c379a00000000000000000000000000000000000000000000000000000000081526004016114249061566a565b60405180910390fd5b600460008273ffffffffffffffffffffffffffffffffffffffff1673ffffffffffffffffffffffffffffffffffffffff16815260200190815260200160002060000160039054906101000a900460ff16156114bd576040517f08c379a00000000000000000000000000000000000000000000000000000000081526004016114b49061558a565b60405180910390fd5b6001600460008373ffffffffffffffffffffffffffffffffffffffff1673ffffffffffffffffffffffffffffffffffffffff16815260200190815260200160002060000160036101000a81548160ff0219169083151502179055506000600660008373ffffffffffffffffffffffffffffffffffffffff1673ffffffffffffffffffffffffffffffffffffffff1681526020019081526020016000205490506000600560016005805490506115729190615a8c565b815481106115a9577f4e487b7100000000000000000000000000000000000000000000000000000000600052603260045260246000fd5b9060005260206000200160009054906101000a900473ffffffffffffffffffffffffffffffffffffffff1690508060058381548110611611577f4e487b7100000000000000000000000000000000000000000000000000000000600052603260045260246000fd5b9060005260206000200160006101000a81548173ffffffffffffffffffffffffffffffffffffffff021916908373ffffffffffffffffffffffffffffffffffffffff16021790555081600660008373ffffffffffffffffffffffffffffffffffffffff1673ffffffffffffffffffffffffffffffffffffffff1681526020019081526020016000208190555060058054806116d5577f4e487b7100000000000000000000000000000000000000000000000000000000600052603160045260246000fd5b6001900381819060005260206000200160006101000a81549073ffffffffffffffffffffffffffffffffffffffff02191690559055600660008473ffffffffffffffffffffffffffffffffffffffff1673ffffffffffffffffffffffffffffffffffffffff168152602001908152602001600020600090558273ffffffffffffffffffffffffffffffffffffffff167fa1207d3124c17356cdedc2646d94f345e7c937ffc4aab39b4f804c1f66bd8a0e600460008673ffffffffffffffffffffffffffffffffffffffff1673ffffffffffffffffffffffffffffffffffffffff16815260200190815260200160002060000160009054906101000a900460ff166040516117e291906153e5565b60405180910390a2505050565b600280600481111561182a577f4e487b7100000000000000000000000000000000000000000000000000000000600052602160045260246000fd5b600260003373ffffffffffffffffffffffffffffffffffffffff1673ffffffffffffffffffffffffffffffffffffffff16815260200190815260200160002060009054906101000a900460ff1660048111156118af577f4e487b7100000000000000000000000000000000000000000000000000000000600052602160045260246000fd5b146118ef576040517f08c379a00000000000000000000000000000000000000000000000000000000081526004016118e69061572a565b60405180910390fd5b8280600360008381526020019081526020016000206000015414611948576040517f08c379a000000000000000000000000000000000000000000000000000000000815260040161193f9061552a565b60405180910390fd5b60036004811115611982577f4e487b7100000000000000000000000000000000000000000000000000000000600052602160045260246000fd5b600260008573ffffffffffffffffffffffffffffffffffffffff1673ffffffffffffffffffffffffffffffffffffffff16815260200190815260200160002060009054906101000a900460ff166004811115611a07577f4e487b7100000000000000000000000000000000000000000000000000000000600052602160045260246000fd5b14611a47576040517f08c379a0000000000000000000000000000000000000000000000000000000008152600401611a3e906155ea565b60405180910390fd5b60016004811115611a81577f4e487b7100000000000000000000000000000000000000000000000000000000600052602160045260246000fd5b6003600086815260200190815260200160002060070160149054906101000a900460ff166004811115611add577f4e487b7100000000000000000000000000000000000000000000000000000000600052602160045260246000fd5b14611b1d576040517f08c379a0000000000000000000000000000000000000000000000000000000008152600401611b14906156aa565b60405180910390fd5b42600360008681526020019081526020016000206004015411611b75576040517f08c379a0000000000000000000000000000000000000000000000000000000008152600401611b6c9061554a565b60405180910390fd5b826003600086815260200190815260200160002060070160006101000a81548173ffffffffffffffffffffffffffffffffffffffff021916908373ffffffffffffffffffffffffffffffffffffffff16021790555060026003600086815260200190815260200160002060070160146101000a81548160ff02191690836004811115611c2a577f4e487b7100000000000000000000000000000000000000000000000000000000600052602160045260246000fd5b021790555042600760008681526020019081526020016000208190555060086000858152602001908152602001600020339080600181540180825580915050600190039060005260206000200160009091909190916101000a81548173ffffffffffffffffffffffffffffffffffffffff021916908373ffffffffffffffffffffffffffffffffffffffff16021790555060086000858152602001908152602001600020839080600181540180825580915050600190039060005260206000200160009091909190916101000a81548173ffffffffffffffffffffffffffffffffffffffff021916908373ffffffffffffffffffffffffffffffffffffffff1602179055507f7b1f1b9f258343e4507ba533f8ff285eb463d07c0adf8a9bf47be97ecc39b12b84846002604051611d63939291906157c9565b60405180910390a150505050565b606060008054906101000a900473ffffffffffffffffffffffffffffffffffffffff1673ffffffffffffffffffffffffffffffffffffffff163373ffffffffffffffffffffffffffffffffffffffff1614611e01576040517f08c379a0000000000000000000000000000000000000000000000000000000008152600401611df8906156ea565b60405180910390fd5b6005805480602002602001604051908101604052809291908181526020018280548015611e8357602002820191906000526020600020905b8160009054906101000a900473ffffffffffffffffffffffffffffffffffffffff1673ffffffffffffffffffffffffffffffffffffffff1681526020019060010190808311611e39575b5050505050905090565b60086020528160005260406000208181548110611ea957600080fd5b906000526020600020016000915091509054906101000a900473ffffffffffffffffffffffffffffffffffffffff1681565b6000806000808480600360008381526020019081526020016000206000015414611f3a576040517f08c379a0000000000000000000000000000000000000000000000000000000008152600401611f319061552a565b60405180910390fd5b856000600360008381526020019081526020016000206040518061012001604052908160008201548152602001600182018054611f7690615bee565b80601f0160208091040260200160405190810160405280929190818152602001828054611fa290615bee565b8015611fef5780601f10611fc457610100808354040283529160200191611fef565b820191906000526020600020905b815481529060010190602001808311611fd257829003601f168201915b505050505081526020016002820154815260200160038201548152602001600482015481526020016005820160009054906101000a900473ffffffffffffffffffffffffffffffffffffffff1673ffffffffffffffffffffffffffffffffffffffff1673ffffffffffffffffffffffffffffffffffffffff1681526020016006820160009054906101000a900473ffffffffffffffffffffffffffffffffffffffff1673ffffffffffffffffffffffffffffffffffffffff1673ffffffffffffffffffffffffffffffffffffffff1681526020016007820160009054906101000a900473ffffffffffffffffffffffffffffffffffffffff1673ffffffffffffffffffffffffffffffffffffffff1673ffffffffffffffffffffffffffffffffffffffff1681526020016007820160149054906101000a900460ff166004811115612163577f4e487b7100000000000000000000000000000000000000000000000000000000600052602160045260246000fd5b600481111561219b577f4e487b7100000000000000000000000000000000000000000000000000000000600052602160045260246000fd5b81525050905060008054906101000a900473ffffffffffffffffffffffffffffffffffffffff1673ffffffffffffffffffffffffffffffffffffffff163373ffffffffffffffffffffffffffffffffffffffff16148061222a57508060a0015173ffffffffffffffffffffffffffffffffffffffff163373ffffffffffffffffffffffffffffffffffffffff16145b8061226457508060e0015173ffffffffffffffffffffffffffffffffffffffff163373ffffffffffffffffffffffffffffffffffffffff16145b6122a3576040517f08c379a000000000000000000000000000000000000000000000000000000000815260040161229a9061556a565b60405180910390fd5b6000600360008a815260200190815260200160002060405180610120016040529081600082015481526020016001820180546122de90615bee565b80601f016020809104026020016040519081016040528092919081815260200182805461230a90615bee565b80156123575780601f1061232c57610100808354040283529160200191612357565b820191906000526020600020905b81548152906001019060200180831161233a57829003601f168201915b505050505081526020016002820154815260200160038201548152602001600482015481526020016005820160009054906101000a900473ffffffffffffffffffffffffffffffffffffffff1673ffffffffffffffffffffffffffffffffffffffff1673ffffffffffffffffffffffffffffffffffffffff1681526020016006820160009054906101000a900473ffffffffffffffffffffffffffffffffffffffff1673ffffffffffffffffffffffffffffffffffffffff1673ffffffffffffffffffffffffffffffffffffffff1681526020016007820160009054906101000a900473ffffffffffffffffffffffffffffffffffffffff1673ffffffffffffffffffffffffffffffffffffffff1673ffffffffffffffffffffffffffffffffffffffff1681526020016007820160149054906101000a900460ff1660048111156124cb577f4e487b7100000000000000000000000000000000000000000000000000000000600052602160045260246000fd5b6004811115612503577f4e487b7100000000000000000000000000000000000000000000000000000000600052602160045260246000fd5b815250509050600480811115612542577f4e487b7100000000000000000000000000000000000000000000000000000000600052602160045260246000fd5b8161010001516004811115612580577f4e487b7100000000000000000000000000000000000000000000000000000000600052602160045260246000fd5b149450841561259e57600080600060019750975097509750506125ff565b428160800151111597506000428260800151116125bc5760006125cd565b4282608001516125cc9190615a8c565b5b905062015180816125de9190615a5b565b975088806125ed575060078811155b96508888886000985098509850985050505b5050509193509193565b60606000806000806000806000888060036000838152602001908152602001600020600001541461266f576040517f08c379a00000000000000000000000000000000000000000000000000000000081526004016126669061552a565b60405180910390fd5b6000600360008c815260200190815260200160002060405180610120016040529081600082015481526020016001820180546126aa90615bee565b80601f01602080910402602001604051908101604052809291908181526020018280546126d690615bee565b80156127235780601f106126f857610100808354040283529160200191612723565b820191906000526020600020905b81548152906001019060200180831161270657829003601f168201915b505050505081526020016002820154815260200160038201548152602001600482015481526020016005820160009054906101000a900473ffffffffffffffffffffffffffffffffffffffff1673ffffffffffffffffffffffffffffffffffffffff1673ffffffffffffffffffffffffffffffffffffffff1681526020016006820160009054906101000a900473ffffffffffffffffffffffffffffffffffffffff1673ffffffffffffffffffffffffffffffffffffffff1673ffffffffffffffffffffffffffffffffffffffff1681526020016007820160009054906101000a900473ffffffffffffffffffffffffffffffffffffffff1673ffffffffffffffffffffffffffffffffffffffff1673ffffffffffffffffffffffffffffffffffffffff1681526020016007820160149054906101000a900460ff166004811115612897577f4e487b7100000000000000000000000000000000000000000000000000000000600052602160045260246000fd5b60048111156128cf577f4e487b7100000000000000000000000000000000000000000000000000000000600052602160045260246000fd5b81525050905080602001518160400151826060015183608001518461010001518560a001518660c001518760e00151995099509950995099509950995099505050919395975091939597565b6001806004811115612956577f4e487b7100000000000000000000000000000000000000000000000000000000600052602160045260246000fd5b600260003373ffffffffffffffffffffffffffffffffffffffff1673ffffffffffffffffffffffffffffffffffffffff16815260200190815260200160002060009054906101000a900460ff1660048111156129db577f4e487b7100000000000000000000000000000000000000000000000000000000600052602160045260246000fd5b14612a1b576040517f08c379a0000000000000000000000000000000000000000000000000000000008152600401612a129061572a565b60405180910390fd5b6000855111612a5f576040517f08c379a0000000000000000000000000000000000000000000000000000000008152600401612a56906155ca565b60405180910390fd5b818310612aa1576040517f08c379a0000000000000000000000000000000000000000000000000000000008152600401612a989061574a565b60405180910390fd5b42831115612ae4576040517f08c379a0000000000000000000000000000000000000000000000000000000008152600401612adb9061570a565b60405180910390fd5b60405180610120016040528060015481526020018681526020018581526020018481526020018381526020013373ffffffffffffffffffffffffffffffffffffffff168152602001600073ffffffffffffffffffffffffffffffffffffffff168152602001600073ffffffffffffffffffffffffffffffffffffffff16815260200160006004811115612ba0577f4e487b7100000000000000000000000000000000000000000000000000000000600052602160045260246000fd5b815250600360006001548152602001908152602001600020600082015181600001556020820151816001019080519060200190612bde929190614690565b5060408201518160020155606082015181600301556080820151816004015560a08201518160050160006101000a81548173ffffffffffffffffffffffffffffffffffffffff021916908373ffffffffffffffffffffffffffffffffffffffff16021790555060c08201518160060160006101000a81548173ffffffffffffffffffffffffffffffffffffffff021916908373ffffffffffffffffffffffffffffffffffffffff16021790555060e08201518160070160006101000a81548173ffffffffffffffffffffffffffffffffffffffff021916908373ffffffffffffffffffffffffffffffffffffffff1602179055506101008201518160070160146101000a81548160ff02191690836004811115612d24577f4e487b7100000000000000000000000000000000000000000000000000000000600052602160045260246000fd5b02179055509050504260076000600154815260200190815260200160002081905550600860006001548152602001908152602001600020339080600181540180825580915050600190039060005260206000200160009091909190916101000a81548173ffffffffffffffffffffffffffffffffffffffff021916908373ffffffffffffffffffffffffffffffffffffffff1602179055507fd79033df2fcd9480827785cc2b6fe3bd6fd5bfefd10987f4a6cd991f5a0ccdc26001548686868633604051612df796959493929190615800565b60405180910390a160016000815480929190612e1290615c20565b91905055505050505050565b8080600360008381526020019081526020016000206000015414612e77576040517f08c379a0000000000000000000000000000000000000000000000000000000008152600401612e6e9061552a565b60405180910390fd5b600480811115612eb0577f4e487b7100000000000000000000000000000000000000000000000000000000600052602160045260246000fd5b6003600084815260200190815260200160002060070160149054906101000a900460ff166004811115612f0c577f4e487b7100000000000000000000000000000000000000000000000000000000600052602160045260246000fd5b1415612f4d576040517f08c379a0000000000000000000000000000000000000000000000000000000008152600401612f44906154ca565b60405180910390fd5b60008054906101000a900473ffffffffffffffffffffffffffffffffffffffff1673ffffffffffffffffffffffffffffffffffffffff163373ffffffffffffffffffffffffffffffffffffffff1614806130a857506003600083815260200190815260200160002060050160009054906101000a900473ffffffffffffffffffffffffffffffffffffffff1673ffffffffffffffffffffffffffffffffffffffff163373ffffffffffffffffffffffffffffffffffffffff161480156130a7575060036004811115613048577f4e487b7100000000000000000000000000000000000000000000000000000000600052602160045260246000fd5b6003600084815260200190815260200160002060070160149054906101000a900460ff1660048111156130a4577f4e487b7100000000000000000000000000000000000000000000000000000000600052602160045260246000fd5b14155b5b806131b357506003600083815260200190815260200160002060070160009054906101000a900473ffffffffffffffffffffffffffffffffffffffff1673ffffffffffffffffffffffffffffffffffffffff163373ffffffffffffffffffffffffffffffffffffffff161480156131b2575060026004811115613154577f4e487b7100000000000000000000000000000000000000000000000000000000600052602160045260246000fd5b6003600084815260200190815260200160002060070160149054906101000a900460ff1660048111156131b0577f4e487b7100000000000000000000000000000000000000000000000000000000600052602160045260246000fd5b145b5b6131f2576040517f08c379a00000000000000000000000000000000000000000000000000000000081526004016131e9906155aa565b60405180910390fd5b60046003600084815260200190815260200160002060070160146101000a81548160ff02191690836004811115613252577f4e487b7100000000000000000000000000000000000000000000000000000000600052602160045260246000fd5b021790555042600760008481526020019081526020016000208190555060086000838152602001908152602001600020339080600181540180825580915050600190039060005260206000200160009091909190916101000a81548173ffffffffffffffffffffffffffffffffffffffff021916908373ffffffffffffffffffffffffffffffffffffffff1602179055507f5a41088291f050dab11b8aeaaeaa8fd33f2225751a5d64008f812e0362ef472582336040516133149291906157a0565b60405180910390a1817fb5eb47cf092caf5aa3d3a45128033de074debc2b4f6a9475df76f993dc72c08b60008060405161334f929190615377565b60405180910390a25050565b60015481565b600360205280600052604060002060009150905080600001549080600101805461338a90615bee565b80601f01602080910402602001604051908101604052809291908181526020018280546133b690615bee565b80156134035780601f106133d857610100808354040283529160200191613403565b820191906000526020600020905b8154815290600101906020018083116133e657829003601f168201915b5050505050908060020154908060030154908060040154908060050160009054906101000a900473ffffffffffffffffffffffffffffffffffffffff16908060060160009054906101000a900473ffffffffffffffffffffffffffffffffffffffff16908060070160009054906101000a900473ffffffffffffffffffffffffffffffffffffffff16908060070160149054906101000a900460ff16905089565b606060008054906101000a900473ffffffffffffffffffffffffffffffffffffffff1673ffffffffffffffffffffffffffffffffffffffff163373ffffffffffffffffffffffffffffffffffffffff1614613534576040517f08c379a000000000000000000000000000000000000000000000000000000000815260040161352b906156ea565b60405180910390fd5b600060058054905067ffffffffffffffff81111561357b577f4e487b7100000000000000000000000000000000000000000000000000000000600052604160045260246000fd5b6040519080825280602002602001820160405280156135b457816020015b6135a1614716565b8152602001906001900390816135995790505b50905060005b60058054905081101561373a57600060058281548110613603577f4e487b7100000000000000000000000000000000000000000000000000000000600052603260045260246000fd5b9060005260206000200160009054906101000a900473ffffffffffffffffffffffffffffffffffffffff16905060405180604001604052808273ffffffffffffffffffffffffffffffffffffffff168152602001600460008473ffffffffffffffffffffffffffffffffffffffff1673ffffffffffffffffffffffffffffffffffffffff16815260200190815260200160002060000160009054906101000a900460ff1660048111156136df577f4e487b7100000000000000000000000000000000000000000000000000000000600052602160045260246000fd5b81525083838151811061371b577f4e487b7100000000000000000000000000000000000000000000000000000000600052603260045260246000fd5b602002602001018190525050808061373290615c20565b9150506135ba565b508091505090565b6060818060036000838152602001908152602001600020600001541461379d576040517f08c379a00000000000000000000000000000000000000000000000000000000081526004016137949061552a565b60405180910390fd5b6008600084815260200190815260200160002080548060200260200160405190810160405280929190818152602001828054801561383057602002820191906000526020600020905b8160009054906101000a900473ffffffffffffffffffffffffffffffffffffffff1673ffffffffffffffffffffffffffffffffffffffff16815260200190600101908083116137e6575b5050505050915050919050565b60046020528060005260406000206000915090508060000160009054906101000a900460ff16908060000160019054906101000a900460ff16908060000160029054906101000a900460ff16908060000160039054906101000a900460ff16905084565b60008054906101000a900473ffffffffffffffffffffffffffffffffffffffff1681565b6003806004811115613900577f4e487b7100000000000000000000000000000000000000000000000000000000600052602160045260246000fd5b600260003373ffffffffffffffffffffffffffffffffffffffff1673ffffffffffffffffffffffffffffffffffffffff16815260200190815260200160002060009054906101000a900460ff166004811115613985577f4e487b7100000000000000000000000000000000000000000000000000000000600052602160045260246000fd5b146139c5576040517f08c379a00000000000000000000000000000000000000000000000000000000081526004016139bc9061572a565b60405180910390fd5b8180600360008381526020019081526020016000206000015414613a1e576040517f08c379a0000000000000000000000000000000000000000000000000000000008152600401613a159061552a565b60405180910390fd5b60026004811115613a58577f4e487b7100000000000000000000000000000000000000000000000000000000600052602160045260246000fd5b6003600085815260200190815260200160002060070160149054906101000a900460ff166004811115613ab4577f4e487b7100000000000000000000000000000000000000000000000000000000600052602160045260246000fd5b14613af4576040517f08c379a0000000000000000000000000000000000000000000000000000000008152600401613aeb9061562a565b60405180910390fd5b42600360008581526020019081526020016000206004015411613b4c576040517f08c379a0000000000000000000000000000000000000000000000000000000008152600401613b439061554a565b60405180910390fd5b600380600085815260200190815260200160002060070160146101000a81548160ff02191690836004811115613bab577f4e487b7100000000000000000000000000000000000000000000000000000000600052602160045260246000fd5b021790555042600760008581526020019081526020016000208190555060086000848152602001908152602001600020339080600181540180825580915050600190039060005260206000200160009091909190916101000a81548173ffffffffffffffffffffffffffffffffffffffff021916908373ffffffffffffffffffffffffffffffffffffffff1602179055507f5e4f9a3d8e8d8fc42bbe98104b324b50682ae0e3f892f0294dd16a226d48c21c8333604051613c6d9291906157a0565b60405180910390a1505050565b6001806004811115613cb5577f4e487b7100000000000000000000000000000000000000000000000000000000600052602160045260246000fd5b600260003373ffffffffffffffffffffffffffffffffffffffff1673ffffffffffffffffffffffffffffffffffffffff16815260200190815260200160002060009054906101000a900460ff166004811115613d3a577f4e487b7100000000000000000000000000000000000000000000000000000000600052602160045260246000fd5b14613d7a576040517f08c379a0000000000000000000000000000000000000000000000000000000008152600401613d719061572a565b60405180910390fd5b8280600360008381526020019081526020016000206000015414613dd3576040517f08c379a0000000000000000000000000000000000000000000000000000000008152600401613dca9061552a565b60405180910390fd5b60026004811115613e0d577f4e487b7100000000000000000000000000000000000000000000000000000000600052602160045260246000fd5b600260008573ffffffffffffffffffffffffffffffffffffffff1673ffffffffffffffffffffffffffffffffffffffff16815260200190815260200160002060009054906101000a900460ff166004811115613e92577f4e487b7100000000000000000000000000000000000000000000000000000000600052602160045260246000fd5b14613ed2576040517f08c379a0000000000000000000000000000000000000000000000000000000008152600401613ec99061568a565b60405180910390fd5b60006004811115613f0c577f4e487b7100000000000000000000000000000000000000000000000000000000600052602160045260246000fd5b6003600086815260200190815260200160002060070160149054906101000a900460ff166004811115613f68577f4e487b7100000000000000000000000000000000000000000000000000000000600052602160045260246000fd5b14613fa8576040517f08c379a0000000000000000000000000000000000000000000000000000000008152600401613f9f906154ea565b60405180910390fd5b42600360008681526020019081526020016000206004015411614000576040517f08c379a0000000000000000000000000000000000000000000000000000000008152600401613ff79061554a565b60405180910390fd5b826003600086815260200190815260200160002060060160006101000a81548173ffffffffffffffffffffffffffffffffffffffff021916908373ffffffffffffffffffffffffffffffffffffffff16021790555060016003600086815260200190815260200160002060070160146101000a81548160ff021916908360048111156140b5577f4e487b7100000000000000000000000000000000000000000000000000000000600052602160045260246000fd5b021790555042600760008681526020019081526020016000208190555060086000858152602001908152602001600020339080600181540180825580915050600190039060005260206000200160009091909190916101000a81548173ffffffffffffffffffffffffffffffffffffffff021916908373ffffffffffffffffffffffffffffffffffffffff16021790555060086000858152602001908152602001600020839080600181540180825580915050600190039060005260206000200160009091909190916101000a81548173ffffffffffffffffffffffffffffffffffffffff021916908373ffffffffffffffffffffffffffffffffffffffff1602179055507f7b1f1b9f258343e4507ba533f8ff285eb463d07c0adf8a9bf47be97ecc39b12b848460016040516141ee939291906157c9565b60405180910390a150505050565b600080600080600180546142109190615a8c565b90506000935060009250600091506000600190505b8181116144ff5760006003600083815260200190815260200160002060070160149054906101000a900460ff1690506003600481111561428e577f4e487b7100000000000000000000000000000000000000000000000000000000600052602160045260246000fd5b8160048111156142c7577f4e487b7100000000000000000000000000000000000000000000000000000000600052602160045260246000fd5b1480614343575060026004811115614308577f4e487b7100000000000000000000000000000000000000000000000000000000600052602160045260246000fd5b816004811115614341577f4e487b7100000000000000000000000000000000000000000000000000000000600052602160045260246000fd5b145b806143be575060006004811115614383577f4e487b7100000000000000000000000000000000000000000000000000000000600052602160045260246000fd5b8160048111156143bc577f4e487b7100000000000000000000000000000000000000000000000000000000600052602160045260246000fd5b145b156143d65785806143ce90615c20565b9650506144eb565b60048081111561440f577f4e487b7100000000000000000000000000000000000000000000000000000000600052602160045260246000fd5b816004811115614448577f4e487b7100000000000000000000000000000000000000000000000000000000600052602160045260246000fd5b141561446157848061445990615c20565b9550506144ea565b6001600481111561449b577f4e487b7100000000000000000000000000000000000000000000000000000000600052602160045260246000fd5b8160048111156144d4577f4e487b7100000000000000000000000000000000000000000000000000000000600052602160045260246000fd5b14156144e95783806144e590615c20565b9450505b5b5b5080806144f790615c20565b915050614225565b5050909192565b61450e61477e565b600460008373ffffffffffffffffffffffffffffffffffffffff1673ffffffffffffffffffffffffffffffffffffffff1681526020019081526020016000206040518060800160405290816000820160009054906101000a900460ff1660048111156145a3577f4e487b7100000000000000000000000000000000000000000000000000000000600052602160045260246000fd5b60048111156145db577f4e487b7100000000000000000000000000000000000000000000000000000000600052602160045260246000fd5b81526020016000820160019054906101000a900460ff161515151581526020016000820160029054906101000a900460ff161515151581526020016000820160039054906101000a900460ff1615151515815250509050919050565b60405180606001604052806000815260200160006004811115614683577f4e487b7100000000000000000000000000000000000000000000000000000000600052602160045260246000fd5b8152602001600081525090565b82805461469c90615bee565b90600052602060002090601f0160209004810192826146be5760008555614705565b82601f106146d757805160ff1916838001178555614705565b82800160010185558215614705579182015b828111156147045782518255916020019190600101906146e9565b5b50905061471291906147e4565b5090565b6040518060400160405280600073ffffffffffffffffffffffffffffffffffffffff16815260200160006004811115614778577f4e487b7100000000000000000000000000000000000000000000000000000000600052602160045260246000fd5b81525090565b6040518060800160405280600060048111156147c3577f4e487b7100000000000000000000000000000000000000000000000000000000600052602160045260246000fd5b81526020016000151581526020016000151581526020016000151581525090565b5b808211156147fd5760008160009055506001016147e5565b5090565b600061481461480f84615964565b615933565b90508281526020810184848401111561482c57600080fd5b614837848285615bac565b509392505050565b60008135905061484e81615d8d565b92915050565b60008135905061486381615da4565b92915050565b60008135905061487881615dbb565b92915050565b600082601f83011261488f57600080fd5b813561489f848260208601614801565b91505092915050565b6000813590506148b781615dcb565b92915050565b6000602082840312156148cf57600080fd5b60006148dd8482850161483f565b91505092915050565b6000602082840312156148f857600080fd5b600061490684828501614869565b91505092915050565b6000806000806080858703121561492557600080fd5b600085013567ffffffffffffffff81111561493f57600080fd5b61494b8782880161487e565b945050602061495c878288016148a8565b935050604061496d878288016148a8565b925050606061497e878288016148a8565b91505092959194509250565b60006020828403121561499c57600080fd5b60006149aa848285016148a8565b91505092915050565b600080604083850312156149c657600080fd5b60006149d4858286016148a8565b92505060206149e585828601614854565b9150509250929050565b60008060408385031215614a0257600080fd5b6000614a10858286016148a8565b9250506020614a21858286016148a8565b9150509250929050565b6000614a378383614a91565b60208301905092915050565b6000614a4f83836151f7565b60608301905092915050565b6000614a678383615239565b60408301905092915050565b614a7c81615b40565b82525050565b614a8b81615ad2565b82525050565b614a9a81615ac0565b82525050565b614aa981615ac0565b82525050565b6000614aba826159c4565b614ac48185615a17565b9350614acf83615994565b8060005b83811015614b00578151614ae78882614a2b565b9750614af2836159f0565b925050600181019050614ad3565b5085935050505092915050565b6000614b18826159cf565b614b228185615a28565b9350614b2d836159a4565b8060005b83811015614b5e578151614b458882614a43565b9750614b50836159fd565b925050600181019050614b31565b5085935050505092915050565b6000614b76826159da565b614b808185615a39565b9350614b8b836159b4565b8060005b83811015614bbc578151614ba38882614a5b565b9750614bae83615a0a565b925050600181019050614b8f565b5085935050505092915050565b614bd281615ae4565b82525050565b614be181615ae4565b82525050565b614bf081615b52565b82525050565b614bff81615b52565b82525050565b614c0e81615b64565b82525050565b614c1d81615b64565b82525050565b614c2c81615b76565b82525050565b6000614c3d826159e5565b614c478185615a4a565b9350614c57818560208601615bbb565b614c6081615d54565b840191505092915050565b6000614c78601083615a4a565b91507f416c726561647920526563616c6c6564000000000000000000000000000000006000830152602082019050919050565b6000614cb8601c83615a4a565b91507f4261746368206e6f7420726561647920666f72207472616e73666572000000006000830152602082019050919050565b6000614cf8601283615a4a565b91507f416c726561647920686173206120726f6c6500000000000000000000000000006000830152602082019050919050565b6000614d38601483615a4a565b91507f426174636820646f6573206e6f742065786973740000000000000000000000006000830152602082019050919050565b6000614d78600d83615a4a565b91507f42617463682065787069726564000000000000000000000000000000000000006000830152602082019050919050565b6000614db8601f83615a4a565b91507f4e6f7420617574686f72697a656420666f7220626174636820616c65727473006000830152602082019050919050565b6000614df8601983615a4a565b91507f5265717565737420616c72656164792070726f636573736564000000000000006000830152602082019050919050565b6000614e38601883615a4a565b91507f4e6f7420617574686f72697a656420746f20726563616c6c00000000000000006000830152602082019050919050565b6000614e78601283615a4a565b91507f44727567206e616d6520726571756972656400000000000000000000000000006000830152602082019050919050565b6000614eb8601083615a4a565b91507f496e76616c69642070726f7669646572000000000000000000000000000000006000830152602082019050919050565b6000614ef8601d83615a4a565b91507f43616e6e6f74207265717565737420526567756c61746f7220726f6c650000006000830152602082019050919050565b6000614f38601783615a4a565b91507f4261746368206e6f742064656c697665726564207965740000000000000000006000830152602082019050919050565b6000614f78601783615a4a565b91507f5265717565737420616c72656164792070656e64696e670000000000000000006000830152602082019050919050565b6000614fb8601083615a4a565b91507f4e6f207265717565737420666f756e64000000000000000000000000000000006000830152602082019050919050565b6000614ff8601383615a4a565b91507f496e76616c6964206469737472696275746f72000000000000000000000000006000830152602082019050919050565b6000615038601483615a4a565b91507f4261746368206e6f7420696e207472616e7369740000000000000000000000006000830152602082019050919050565b6000615078601c83615a4a565b91507f43616e6e6f742061737369676e20526567756c61746f7220726f6c65000000006000830152602082019050919050565b60006150b8601f83615a4a565b91507f4f6e6c7920726567756c61746f722063616e2061737369676e20726f6c6573006000830152602082019050919050565b60006150f8602a83615a4a565b91507f4d616e75666163747572696e6720646174652063616e6e6f7420626520696e2060008301527f74686520667574757265000000000000000000000000000000000000000000006020830152604082019050919050565b600061515e601e83615a4a565b91507f4e6f7420617574686f72697a656420666f72207468697320616374696f6e00006000830152602082019050919050565b600061519e602183615a4a565b91507f496e76616c6964206d616e75666163747572696e672f6578706972792064617460008301527f65000000000000000000000000000000000000000000000000000000000000006020830152604082019050919050565b60608201600082015161520d60008501826152bd565b5060208201516152206020850182614c05565b50604082015161523360408501826152bd565b50505050565b60408201600082015161524f6000850182614a91565b5060208201516152626020850182614be7565b50505050565b60808201600082015161527e6000850182614be7565b5060208201516152916020850182614bc9565b5060408201516152a46040850182614bc9565b5060608201516152b76060850182614bc9565b50505050565b6152c681615b36565b82525050565b6152d581615b36565b82525050565b60006020820190506152f06000830184614aa0565b92915050565b600060208201905061530b6000830184614a82565b92915050565b6000602082019050818103600083015261532b8184614aaf565b905092915050565b6000602082019050818103600083015261534d8184614b0d565b905092915050565b6000602082019050818103600083015261536f8184614b6b565b905092915050565b600060408201905061538c6000830185614bd8565b6153996020830184614c23565b9392505050565b60006080820190506153b56000830187614bd8565b6153c260208301866152cc565b6153cf6040830185614bd8565b6153dc6060830184614bd8565b95945050505050565b60006020820190506153fa6000830184614bf6565b92915050565b60006080820190506154156000830187614bf6565b6154226020830186614bd8565b61542f6040830185614bd8565b61543c6060830184614bd8565b95945050505050565b6000610100820190508181036000830152615460818b614c32565b905061546f602083018a6152cc565b61547c60408301896152cc565b61548960608301886152cc565b6154966080830187614c14565b6154a360a0830186614a82565b6154b060c0830185614a82565b6154bd60e0830184614a82565b9998505050505050505050565b600060208201905081810360008301526154e381614c6b565b9050919050565b6000602082019050818103600083015261550381614cab565b9050919050565b6000602082019050818103600083015261552381614ceb565b9050919050565b6000602082019050818103600083015261554381614d2b565b9050919050565b6000602082019050818103600083015261556381614d6b565b9050919050565b6000602082019050818103600083015261558381614dab565b9050919050565b600060208201905081810360008301526155a381614deb565b9050919050565b600060208201905081810360008301526155c381614e2b565b9050919050565b600060208201905081810360008301526155e381614e6b565b9050919050565b6000602082019050818103600083015261560381614eab565b9050919050565b6000602082019050818103600083015261562381614eeb565b9050919050565b6000602082019050818103600083015261564381614f2b565b9050919050565b6000602082019050818103600083015261566381614f6b565b9050919050565b6000602082019050818103600083015261568381614fab565b9050919050565b600060208201905081810360008301526156a381614feb565b9050919050565b600060208201905081810360008301526156c38161502b565b9050919050565b600060208201905081810360008301526156e38161506b565b9050919050565b60006020820190508181036000830152615703816150ab565b9050919050565b60006020820190508181036000830152615723816150eb565b9050919050565b6000602082019050818103600083015261574381615151565b9050919050565b6000602082019050818103600083015261576381615191565b9050919050565b600060808201905061577f6000830184615268565b92915050565b600060208201905061579a60008301846152cc565b92915050565b60006040820190506157b560008301856152cc565b6157c26020830184614aa0565b9392505050565b60006060820190506157de60008301866152cc565b6157eb6020830185614a73565b6157f86040830184614c14565b949350505050565b600060c08201905061581560008301896152cc565b81810360208301526158278188614c32565b905061583660408301876152cc565b61584360608301866152cc565b61585060808301856152cc565b61585d60a0830184614aa0565b979650505050505050565b60006101208201905061587e600083018c6152cc565b8181036020830152615890818b614c32565b905061589f604083018a6152cc565b6158ac60608301896152cc565b6158b960808301886152cc565b6158c660a0830187614a82565b6158d360c0830186614a82565b6158e060e0830185614a82565b6158ee610100830184614c14565b9a9950505050505050505050565b600060608201905061591160008301866152cc565b61591e60208301856152cc565b61592b60408301846152cc565b949350505050565b6000604051905081810181811067ffffffffffffffff8211171561595a57615959615d25565b5b8060405250919050565b600067ffffffffffffffff82111561597f5761597e615d25565b5b601f19601f8301169050602081019050919050565b6000819050602082019050919050565b6000819050602082019050919050565b6000819050602082019050919050565b600081519050919050565b600081519050919050565b600081519050919050565b600081519050919050565b6000602082019050919050565b6000602082019050919050565b6000602082019050919050565b600082825260208201905092915050565b600082825260208201905092915050565b600082825260208201905092915050565b600082825260208201905092915050565b6000615a6682615b36565b9150615a7183615b36565b925082615a8157615a80615c98565b5b828204905092915050565b6000615a9782615b36565b9150615aa283615b36565b925082821015615ab557615ab4615c69565b5b828203905092915050565b6000615acb82615b16565b9050919050565b6000615add82615b16565b9050919050565b60008115159050919050565b6000819050615afe82615d65565b919050565b6000819050615b1182615d79565b919050565b600073ffffffffffffffffffffffffffffffffffffffff82169050919050565b6000819050919050565b6000615b4b82615b88565b9050919050565b6000615b5d82615af0565b9050919050565b6000615b6f82615b03565b9050919050565b6000615b8182615b36565b9050919050565b6000615b9382615b9a565b9050919050565b6000615ba582615b16565b9050919050565b82818337600083830152505050565b60005b83811015615bd9578082015181840152602081019050615bbe565b83811115615be8576000848401525b50505050565b60006002820490506001821680615c0657607f821691505b60208210811415615c1a57615c19615cf6565b5b50919050565b6000615c2b82615b36565b91507fffffffffffffffffffffffffffffffffffffffffffffffffffffffffffffffff821415615c5e57615c5d615c69565b5b600182019050919050565b7f4e487b7100000000000000000000000000000000000000000000000000000000600052601160045260246000fd5b7f4e487b7100000000000000000000000000000000000000000000000000000000600052601260045260246000fd5b7f4e487b7100000000000000000000000000000000000000000000000000000000600052602160045260246000fd5b7f4e487b7100000000000000000000000000000000000000000000000000000000600052602260045260246000fd5b7f4e487b7100000000000000000000000000000000000000000000000000000000600052604160045260246000fd5b6000601f19601f8301169050919050565b60058110615d7657615d75615cc7565b5b50565b60058110615d8a57615d89615cc7565b5b50565b615d9681615ac0565b8114615da157600080fd5b50565b615dad81615ad2565b8114615db857600080fd5b50565b60058110615dc857600080fd5b50565b615dd481615b36565b8114615ddf57600080fd5b5056fea26469706673582212203b32e5da6f310f1108088c9b5dd16be247962e641e54c0f8052db24a023939d364736f6c63430008000033",
  "immutableReferences": {},
  "source": "// SPDX-License-Identifier: MIT\r\npragma solidity ^0.8.0;\r\n\r\ncontract PharmaSupplyChain {\r\n    // Role Definitions\r\n    enum Role {\r\n        None,\r\n        Manufacturer,\r\n        Distributor,\r\n        HealthcareProvider,\r\n        Regulator\r\n    }\r\n    enum Status {\r\n        Created,\r\n        InTransit,\r\n        Delivered,\r\n        Verified,\r\n        Recalled\r\n    }\r\n\r\n    struct Batch {\r\n        uint batchID;\r\n        string drugName;\r\n        uint quantity;\r\n        uint manufacturingDate;\r\n        uint expiryDate;\r\n        address payable manufacturer;\r\n        address payable distributor;\r\n        address payable healthcareProvider;\r\n        Status status;\r\n    }\r\n\r\n    struct RoleRequest {\r\n        Role requestedRole;\r\n        bool exists;\r\n        bool approved;\r\n        bool processed;\r\n    }\r\n\r\n    struct PendingRequest {\r\n        address user;\r\n        Role requestedRole;\r\n    }\r\n\r\n    struct BatchSummary {\r\n        uint batchID;\r\n        Status status;\r\n        uint expiryDate;\r\n    }\r\n\r\n    // State Variables\r\n    address payable public regulator;\r\n    uint public nextBatchID;\r\n    mapping(address => Role) public userRoles;\r\n    mapping(uint => Batch) public batches;\r\n    mapping(address => RoleRequest) public roleRequests;\r\n    address[] public pendingRequests;\r\n    mapping(address => uint) private requestIndices;\r\n    mapping(uint => uint) public batchStatusTimestamps;\r\n    mapping(uint => address[]) public batchHistory;\r\n\r\n    // Events\r\n    event RoleAssigned(address indexed user, Role role);\r\n    event BatchCreated(\r\n        uint batchID,\r\n        string drugName,\r\n        uint quantity,\r\n        uint manufacturingDate,\r\n        uint expiryDate,\r\n        address manufacturer\r\n    );\r\n    event BatchTransferred(uint batchID, address to, Status status);\r\n    event BatchVerified(uint batchID, address healthcareProvider);\r\n    event BatchRecalled(uint batchID, address recalledBy);\r\n    event ExpirationAlert(\r\n        uint indexed batchID,\r\n        bool isExpired,\r\n        uint daysRemaining\r\n    );\r\n    event RoleRequested(address indexed user, Role requestedRole);\r\n    event RoleApproved(address indexed user, Role role);\r\n    event RoleDenied(address indexed user, Role role);\r\n\r\n    // Modifiers\r\n    modifier onlyRole(Role requiredRole) {\r\n        require(\r\n            userRoles[msg.sender] == requiredRole,\r\n            \"Not authorized for this action\"\r\n        );\r\n        _;\r\n    }\r\n\r\n    modifier onlyRegulator() {\r\n        require(msg.sender == regulator, \"Only regulator can assign roles\");\r\n        _;\r\n    }\r\n\r\n    modifier batchExists(uint batchID) {\r\n        require(batches[batchID].batchID == batchID, \"Batch does not exist\");\r\n        _;\r\n    }\r\n\r\n    modifier onlyBatchAuthorized(uint batchID) {\r\n        Batch memory batch = batches[batchID];\r\n        require(\r\n            msg.sender == regulator ||\r\n                msg.sender == batch.manufacturer ||\r\n                msg.sender == batch.healthcareProvider,\r\n            \"Not authorized for batch alerts\"\r\n        );\r\n        _;\r\n    }\r\n\r\n    // Constructor\r\n    constructor() {\r\n        regulator = payable(msg.sender);\r\n        userRoles[msg.sender] = Role.Regulator;\r\n        nextBatchID = 1;\r\n        emit RoleAssigned(msg.sender, Role.Regulator);\r\n    }\r\n\r\n    // Role Management Functions\r\n    function requestRole(Role requestedRole) public {\r\n        require(userRoles[msg.sender] == Role.None, \"Already has a role\");\r\n        require(\r\n            requestedRole != Role.Regulator,\r\n            \"Cannot request Regulator role\"\r\n        );\r\n        require(\r\n            !roleRequests[msg.sender].exists ||\r\n                roleRequests[msg.sender].processed,\r\n            \"Request already pending\"\r\n        );\r\n\r\n        roleRequests[msg.sender] = RoleRequest({\r\n            requestedRole: requestedRole,\r\n            exists: true,\r\n            approved: false,\r\n            processed: false\r\n        });\r\n\r\n        pendingRequests.push(msg.sender);\r\n        requestIndices[msg.sender] = pendingRequests.length - 1;\r\n        emit RoleRequested(msg.sender, requestedRole);\r\n    }\r\n\r\n    function approveRoleRequest(address user) public onlyRegulator {\r\n        require(roleRequests[user].exists, \"No request found\");\r\n        require(!roleRequests[user].processed, \"Request already processed\");\r\n        require(\r\n            roleRequests[user].requestedRole != Role.Regulator,\r\n            \"Cannot assign Regulator role\"\r\n        );\r\n\r\n        Role requestedRole = roleRequests[user].requestedRole;\r\n        userRoles[user] = requestedRole;\r\n        roleRequests[user].approved = true;\r\n        roleRequests[user].processed = true;\r\n\r\n        // Efficient removal using swap-and-pop\r\n        uint idx = requestIndices[user];\r\n        address last = pendingRequests[pendingRequests.length - 1];\r\n        pendingRequests[idx] = last;\r\n        requestIndices[last] = idx;\r\n        pendingRequests.pop();\r\n        delete requestIndices[user];\r\n\r\n        emit RoleApproved(user, requestedRole);\r\n        emit RoleAssigned(user, requestedRole);\r\n    }\r\n\r\n    function denyRoleRequest(address user) public onlyRegulator {\r\n        require(roleRequests[user].exists, \"No request found\");\r\n        require(!roleRequests[user].processed, \"Request already processed\");\r\n\r\n        roleRequests[user].processed = true;\r\n\r\n        // Efficient removal using swap-and-pop\r\n        uint idx = requestIndices[user];\r\n        address last = pendingRequests[pendingRequests.length - 1];\r\n        pendingRequests[idx] = last;\r\n        requestIndices[last] = idx;\r\n        pendingRequests.pop();\r\n        delete requestIndices[user];\r\n\r\n        emit RoleDenied(user, roleRequests[user].requestedRole);\r\n    }\r\n\r\n    // Batch Lifecycle Functions\r\n    function createBatch(\r\n        string memory drugName,\r\n        uint quantity,\r\n        uint manufacturingDate,\r\n        uint expiryDate\r\n    ) public onlyRole(Role.Manufacturer) {\r\n        require(bytes(drugName).length > 0, \"Drug name required\");\r\n        require(\r\n            manufacturingDate < expiryDate,\r\n            \"Invalid manufacturing/expiry date\"\r\n        );\r\n        require(\r\n            manufacturingDate <= block.timestamp,\r\n            \"Manufacturing date cannot be in the future\"\r\n        );\r\n\r\n        batches[nextBatchID] = Batch({\r\n            batchID: nextBatchID,\r\n            drugName: drugName,\r\n            quantity: quantity,\r\n            manufacturingDate: manufacturingDate,\r\n            expiryDate: expiryDate,\r\n            manufacturer: payable(msg.sender),\r\n            distributor: payable(address(0)),\r\n            healthcareProvider: payable(address(0)),\r\n            status: Status.Created\r\n        });\r\n\r\n        batchStatusTimestamps[nextBatchID] = block.timestamp;\r\n        batchHistory[nextBatchID].push(msg.sender);\r\n        emit BatchCreated(\r\n            nextBatchID,\r\n            drugName,\r\n            quantity,\r\n            manufacturingDate,\r\n            expiryDate,\r\n            msg.sender\r\n        );\r\n        nextBatchID++;\r\n    }\r\n\r\n    function transferToDistributor(\r\n        uint batchID,\r\n        address payable distributor\r\n    ) public onlyRole(Role.Manufacturer) batchExists(batchID) {\r\n        require(\r\n            userRoles[distributor] == Role.Distributor,\r\n            \"Invalid distributor\"\r\n        );\r\n        require(\r\n            batches[batchID].status == Status.Created,\r\n            \"Batch not ready for transfer\"\r\n        );\r\n        require(batches[batchID].expiryDate > block.timestamp, \"Batch expired\");\r\n\r\n        batches[batchID].distributor = distributor;\r\n        batches[batchID].status = Status.InTransit;\r\n        batchStatusTimestamps[batchID] = block.timestamp;\r\n        batchHistory[batchID].push(msg.sender);\r\n        batchHistory[batchID].push(distributor);\r\n        emit BatchTransferred(batchID, distributor, Status.InTransit);\r\n    }\r\n\r\n    function transferToHealthcare(\r\n        uint batchID,\r\n        address payable healthcareProvider\r\n    ) public onlyRole(Role.Distributor) batchExists(batchID) {\r\n        require(\r\n            userRoles[healthcareProvider] == Role.HealthcareProvider,\r\n            \"Invalid provider\"\r\n        );\r\n        require(\r\n            batches[batchID].status == Status.InTransit,\r\n            \"Batch not in transit\"\r\n        );\r\n        require(batches[batchID].expiryDate > block.timestamp, \"Batch expired\");\r\n\r\n        batches[batchID].healthcareProvider = healthcareProvider;\r\n        batches[batchID].status = Status.Delivered;\r\n        batchStatusTimestamps[batchID] = block.timestamp;\r\n        batchHistory[batchID].push(msg.sender);\r\n        batchHistory[batchID].push(healthcareProvider);\r\n        emit BatchTransferred(batchID, healthcareProvider, Status.Delivered);\r\n    }\r\n\r\n    function verifyBatch(\r\n        uint batchID\r\n    ) public onlyRole(Role.HealthcareProvider) batchExists(batchID) {\r\n        require(\r\n            batches[batchID].status == Status.Delivered,\r\n            \"Batch not delivered yet\"\r\n        );\r\n        require(batches[batchID].expiryDate > block.timestamp, \"Batch expired\");\r\n\r\n        batches[batchID].status = Status.Verified;\r\n        batchStatusTimestamps[batchID] = block.timestamp;\r\n        batchHistory[batchID].push(msg.sender);\r\n        emit BatchVerified(batchID, msg.sender);\r\n    }\r\n\r\n    function recallBatch(uint batchID) public batchExists(batchID) {\r\n        require(batches[batchID].status != Status.Recalled, \"Already Recalled\");\r\n        require(\r\n            msg.sender == regulator ||\r\n                (msg.sender == batches[batchID].manufacturer &&\r\n                    batches[batchID].status != Status.Verified) ||\r\n                (msg.sender == batches[batchID].healthcareProvider &&\r\n                    batches[batchID].status == Status.Delivered),\r\n            \"Not authorized to recall\"\r\n        );\r\n\r\n        batches[batchID].status = Status.Recalled;\r\n        batchStatusTimestamps[batchID] = block.timestamp;\r\n        batchHistory[batchID].push(msg.sender);\r\n        emit BatchRecalled(batchID, msg.sender);\r\n        emit ExpirationAlert(batchID, false, 0);\r\n    }\r\n\r\n    // View Functions\r\n    function getBatchDetails(\r\n        uint batchID\r\n    )\r\n        public\r\n        view\r\n        batchExists(batchID)\r\n        returns (\r\n            string memory drugName,\r\n            uint quantity,\r\n            uint manufacturingDate,\r\n            uint expiryDate,\r\n            Status status,\r\n            address payable manufacturer,\r\n            address payable distributor,\r\n            address payable healthcareProvider\r\n        )\r\n    {\r\n        Batch memory batch = batches[batchID];\r\n        return (\r\n            batch.drugName,\r\n            batch.quantity,\r\n            batch.manufacturingDate,\r\n            batch.expiryDate,\r\n            batch.status,\r\n            batch.manufacturer,\r\n            batch.distributor,\r\n            batch.healthcareProvider\r\n        );\r\n    }\r\n\r\n    function checkExpirationAlert(\r\n        uint batchID\r\n    )\r\n        public\r\n        view\r\n        batchExists(batchID)\r\n        onlyBatchAuthorized(batchID)\r\n        returns (\r\n            bool isExpired,\r\n            uint daysRemaining,\r\n            bool needsAttention,\r\n            bool isRecalled\r\n        )\r\n    {\r\n        Batch memory batch = batches[batchID];\r\n        isRecalled = (batch.status == Status.Recalled);\r\n\r\n        if (isRecalled) {\r\n            return (false, 0, false, true);\r\n        }\r\n\r\n        isExpired = (batch.expiryDate <= block.timestamp);\r\n        uint secondsRemaining = batch.expiryDate > block.timestamp\r\n            ? batch.expiryDate - block.timestamp\r\n            : 0;\r\n\r\n        daysRemaining = secondsRemaining / 1 days;\r\n        needsAttention = isExpired || daysRemaining <= 7;\r\n\r\n        return (isExpired, daysRemaining, needsAttention, false);\r\n    }\r\n\r\n    // Utility Functions\r\n    function getPendingRequests()\r\n        public\r\n        view\r\n        onlyRegulator\r\n        returns (address[] memory)\r\n    {\r\n        return pendingRequests;\r\n    }\r\n\r\n    function getRequestStatus(\r\n        address user\r\n    ) public view returns (RoleRequest memory) {\r\n        return roleRequests[user];\r\n    }\r\n\r\n    function getPendingRequestsWithRoles() \r\n        public \r\n        view \r\n        onlyRegulator \r\n        returns (PendingRequest[] memory) \r\n    {\r\n        PendingRequest[] memory requests = new PendingRequest[](pendingRequests.length);\r\n        \r\n        for (uint i = 0; i < pendingRequests.length; i++) {\r\n            address user = pendingRequests[i];\r\n            requests[i] = PendingRequest({\r\n                user: user,\r\n                requestedRole: roleRequests[user].requestedRole\r\n            });\r\n        }\r\n        \r\n        return requests;\r\n    }\r\n\r\n    // View Ownership Transfer History\r\n    function getBatchHistory(\r\n        uint batchID\r\n    ) public view batchExists(batchID) returns (address[] memory) {\r\n        return batchHistory[batchID];\r\n    }\r\n    \r\n    function getAllBatchesWithStatus() public view returns (BatchSummary[] memory) {\r\n        uint totalBatches = nextBatchID - 1;\r\n        BatchSummary[] memory summaries = new BatchSummary[](totalBatches);\r\n\r\n        for (uint i = 1; i <= totalBatches; i++) {\r\n            summaries[i - 1] = BatchSummary({\r\n                batchID: i,\r\n                status: batches[i].status,\r\n                expiryDate: batches[i].expiryDate\r\n            });\r\n        }\r\n\r\n        return summaries;\r\n    }\r\n\r\n    function getBatchStatusCounts() public view returns (uint active, uint recalled, uint inTransit) {\r\n    uint totalBatches = nextBatchID - 1;\r\n    active = 0;\r\n    recalled = 0;\r\n    inTransit = 0;\r\n\r\n    for (uint i = 1; i <= totalBatches; i++) {\r\n        Status status = batches[i].status;\r\n\r\n        if (status == Status.Verified || status == Status.Delivered || status == Status.Created) {\r\n            active++;\r\n        } else if (status == Status.Recalled) {\r\n            recalled++;\r\n        } else if (status == Status.InTransit) {\r\n            inTransit++;\r\n        }\r\n    }\r\n\r\n    return (active, recalled, inTransit);\r\n}\r\n\r\n}\r\n",
  "sourcePath": "C:\\Users\\Monalisha\\Desktop\\pharma-supply-chain\\contracts\\pharmaSupplyChain.sol",
  "compiler": {
    "name": "solc",
    "version": "0.8.0+commit.c7dfd78e.Emscripten.clang"
  },
  "schemaVersion": "3.4.16",
  "updatedAt": "2025-04-15T17:14:25.327Z",
  "networkType": "ethereum",
  "devdoc": {
    "kind": "dev",
    "methods": {},
    "version": 1
  },
  "userdoc": {
    "kind": "user",
    "methods": {},
    "version": 1
  }
}