{
  "contractName": "PharmaSupplyChain",
  "abi": [
    {
      "inputs": [],
      "stateMutability": "nonpayable",
      "type": "constructor"
    },
    {
      "anonymous": false,
      "inputs": [
        {
          "indexed": false,
          "internalType": "uint256",
          "name": "batchID",
          "type": "uint256"
        },
        {
          "indexed": false,
          "internalType": "string",
          "name": "drugName",
          "type": "string"
        },
        {
          "indexed": false,
          "internalType": "uint256",
          "name": "quantity",
          "type": "uint256"
        },
        {
          "indexed": false,
          "internalType": "uint256",
          "name": "manufacturingDate",
          "type": "uint256"
        },
        {
          "indexed": false,
          "internalType": "uint256",
          "name": "expiryDate",
          "type": "uint256"
        },
        {
          "indexed": false,
          "internalType": "address",
          "name": "manufacturer",
          "type": "address"
        }
      ],
      "name": "BatchCreated",
      "type": "event"
    },
    {
      "anonymous": false,
      "inputs": [
        {
          "indexed": false,
          "internalType": "uint256",
          "name": "batchID",
          "type": "uint256"
        },
        {
          "indexed": false,
          "internalType": "address",
          "name": "recalledBy",
          "type": "address"
        }
      ],
      "name": "BatchRecalled",
      "type": "event"
    },
    {
      "anonymous": false,
      "inputs": [
        {
          "indexed": false,
          "internalType": "uint256",
          "name": "batchID",
          "type": "uint256"
        },
        {
          "indexed": false,
          "internalType": "address",
          "name": "to",
          "type": "address"
        },
        {
          "indexed": false,
          "internalType": "enum PharmaSupplyChain.Status",
          "name": "status",
          "type": "uint8"
        }
      ],
      "name": "BatchTransferred",
      "type": "event"
    },
    {
      "anonymous": false,
      "inputs": [
        {
          "indexed": false,
          "internalType": "uint256",
          "name": "batchID",
          "type": "uint256"
        },
        {
          "indexed": false,
          "internalType": "address",
          "name": "healthcareProvider",
          "type": "address"
        }
      ],
      "name": "BatchVerified",
      "type": "event"
    },
    {
      "anonymous": false,
      "inputs": [
        {
          "indexed": true,
          "internalType": "uint256",
          "name": "batchID",
          "type": "uint256"
        },
        {
          "indexed": false,
          "internalType": "bool",
          "name": "isExpired",
          "type": "bool"
        },
        {
          "indexed": false,
          "internalType": "uint256",
          "name": "daysRemaining",
          "type": "uint256"
        }
      ],
      "name": "ExpirationAlert",
      "type": "event"
    },
    {
      "anonymous": false,
      "inputs": [
        {
          "indexed": true,
          "internalType": "address",
          "name": "user",
          "type": "address"
        },
        {
          "indexed": false,
          "internalType": "enum PharmaSupplyChain.Role",
          "name": "role",
          "type": "uint8"
        }
      ],
      "name": "RoleApproved",
      "type": "event"
    },
    {
      "anonymous": false,
      "inputs": [
        {
          "indexed": true,
          "internalType": "address",
          "name": "user",
          "type": "address"
        },
        {
          "indexed": false,
          "internalType": "enum PharmaSupplyChain.Role",
          "name": "role",
          "type": "uint8"
        }
      ],
      "name": "RoleAssigned",
      "type": "event"
    },
    {
      "anonymous": false,
      "inputs": [
        {
          "indexed": true,
          "internalType": "address",
          "name": "user",
          "type": "address"
        },
        {
          "indexed": false,
          "internalType": "enum PharmaSupplyChain.Role",
          "name": "role",
          "type": "uint8"
        }
      ],
      "name": "RoleDenied",
      "type": "event"
    },
    {
      "anonymous": false,
      "inputs": [
        {
          "indexed": true,
          "internalType": "address",
          "name": "user",
          "type": "address"
        },
        {
          "indexed": false,
          "internalType": "enum PharmaSupplyChain.Role",
          "name": "requestedRole",
          "type": "uint8"
        }
      ],
      "name": "RoleRequested",
      "type": "event"
    },
    {
      "inputs": [
        {
          "internalType": "uint256",
          "name": "",
          "type": "uint256"
        },
        {
          "internalType": "uint256",
          "name": "",
          "type": "uint256"
        }
      ],
      "name": "batchHistory",
      "outputs": [
        {
          "internalType": "address",
          "name": "",
          "type": "address"
        }
      ],
      "stateMutability": "view",
      "type": "function",
      "constant": true
    },
    {
      "inputs": [
        {
          "internalType": "uint256",
          "name": "",
          "type": "uint256"
        }
      ],
      "name": "batchStatusTimestamps",
      "outputs": [
        {
          "internalType": "uint256",
          "name": "",
          "type": "uint256"
        }
      ],
      "stateMutability": "view",
      "type": "function",
      "constant": true
    },
    {
      "inputs": [
        {
          "internalType": "uint256",
          "name": "",
          "type": "uint256"
        }
      ],
      "name": "batches",
      "outputs": [
        {
          "internalType": "uint256",
          "name": "batchID",
          "type": "uint256"
        },
        {
          "internalType": "string",
          "name": "drugName",
          "type": "string"
        },
        {
          "internalType": "uint256",
          "name": "quantity",
          "type": "uint256"
        },
        {
          "internalType": "uint256",
          "name": "manufacturingDate",
          "type": "uint256"
        },
        {
          "internalType": "uint256",
          "name": "expiryDate",
          "type": "uint256"
        },
        {
          "internalType": "address payable",
          "name": "manufacturer",
          "type": "address"
        },
        {
          "internalType": "address payable",
          "name": "distributor",
          "type": "address"
        },
        {
          "internalType": "address payable",
          "name": "healthcareProvider",
          "type": "address"
        },
        {
          "internalType": "enum PharmaSupplyChain.Status",
          "name": "status",
          "type": "uint8"
        }
      ],
      "stateMutability": "view",
      "type": "function",
      "constant": true
    },
    {
      "inputs": [],
      "name": "nextBatchID",
      "outputs": [
        {
          "internalType": "uint256",
          "name": "",
          "type": "uint256"
        }
      ],
      "stateMutability": "view",
      "type": "function",
      "constant": true
    },
    {
      "inputs": [
        {
          "internalType": "uint256",
          "name": "",
          "type": "uint256"
        }
      ],
      "name": "pendingRequests",
      "outputs": [
        {
          "internalType": "address",
          "name": "",
          "type": "address"
        }
      ],
      "stateMutability": "view",
      "type": "function",
      "constant": true
    },
    {
      "inputs": [],
      "name": "regulator",
      "outputs": [
        {
          "internalType": "address payable",
          "name": "",
          "type": "address"
        }
      ],
      "stateMutability": "view",
      "type": "function",
      "constant": true
    },
    {
      "inputs": [
        {
          "internalType": "address",
          "name": "",
          "type": "address"
        }
      ],
      "name": "roleRequests",
      "outputs": [
        {
          "internalType": "enum PharmaSupplyChain.Role",
          "name": "requestedRole",
          "type": "uint8"
        },
        {
          "internalType": "bool",
          "name": "exists",
          "type": "bool"
        },
        {
          "internalType": "bool",
          "name": "approved",
          "type": "bool"
        },
        {
          "internalType": "bool",
          "name": "processed",
          "type": "bool"
        }
      ],
      "stateMutability": "view",
      "type": "function",
      "constant": true
    },
    {
      "inputs": [
        {
          "internalType": "address",
          "name": "",
          "type": "address"
        }
      ],
      "name": "userRoles",
      "outputs": [
        {
          "internalType": "enum PharmaSupplyChain.Role",
          "name": "",
          "type": "uint8"
        }
      ],
      "stateMutability": "view",
      "type": "function",
      "constant": true
    },
    {
      "inputs": [
        {
          "internalType": "enum PharmaSupplyChain.Role",
          "name": "requestedRole",
          "type": "uint8"
        }
      ],
      "name": "requestRole",
      "outputs": [],
      "stateMutability": "nonpayable",
      "type": "function"
    },
    {
      "inputs": [
        {
          "internalType": "address",
          "name": "user",
          "type": "address"
        }
      ],
      "name": "approveRoleRequest",
      "outputs": [],
      "stateMutability": "nonpayable",
      "type": "function"
    },
    {
      "inputs": [
        {
          "internalType": "address",
          "name": "user",
          "type": "address"
        }
      ],
      "name": "denyRoleRequest",
      "outputs": [],
      "stateMutability": "nonpayable",
      "type": "function"
    },
    {
      "inputs": [
        {
          "internalType": "string",
          "name": "drugName",
          "type": "string"
        },
        {
          "internalType": "uint256",
          "name": "quantity",
          "type": "uint256"
        },
        {
          "internalType": "uint256",
          "name": "manufacturingDate",
          "type": "uint256"
        },
        {
          "internalType": "uint256",
          "name": "expiryDate",
          "type": "uint256"
        }
      ],
      "name": "createBatch",
      "outputs": [],
      "stateMutability": "nonpayable",
      "type": "function"
    },
    {
      "inputs": [
        {
          "internalType": "uint256",
          "name": "batchID",
          "type": "uint256"
        },
        {
          "internalType": "address payable",
          "name": "distributor",
          "type": "address"
        }
      ],
      "name": "transferToDistributor",
      "outputs": [],
      "stateMutability": "nonpayable",
      "type": "function"
    },
    {
      "inputs": [
        {
          "internalType": "uint256",
          "name": "batchID",
          "type": "uint256"
        },
        {
          "internalType": "address payable",
          "name": "healthcareProvider",
          "type": "address"
        }
      ],
      "name": "transferToHealthcare",
      "outputs": [],
      "stateMutability": "nonpayable",
      "type": "function"
    },
    {
      "inputs": [
        {
          "internalType": "uint256",
          "name": "batchID",
          "type": "uint256"
        }
      ],
      "name": "verifyBatch",
      "outputs": [],
      "stateMutability": "nonpayable",
      "type": "function"
    },
    {
      "inputs": [
        {
          "internalType": "uint256",
          "name": "batchID",
          "type": "uint256"
        }
      ],
      "name": "recallBatch",
      "outputs": [],
      "stateMutability": "nonpayable",
      "type": "function"
    },
    {
      "inputs": [
        {
          "internalType": "uint256",
          "name": "batchID",
          "type": "uint256"
        }
      ],
      "name": "getBatchDetails",
      "outputs": [
        {
          "internalType": "string",
          "name": "drugName",
          "type": "string"
        },
        {
          "internalType": "uint256",
          "name": "quantity",
          "type": "uint256"
        },
        {
          "internalType": "uint256",
          "name": "manufacturingDate",
          "type": "uint256"
        },
        {
          "internalType": "uint256",
          "name": "expiryDate",
          "type": "uint256"
        },
        {
          "internalType": "enum PharmaSupplyChain.Status",
          "name": "status",
          "type": "uint8"
        },
        {
          "internalType": "address payable",
          "name": "manufacturer",
          "type": "address"
        },
        {
          "internalType": "address payable",
          "name": "distributor",
          "type": "address"
        },
        {
          "internalType": "address payable",
          "name": "healthcareProvider",
          "type": "address"
        }
      ],
      "stateMutability": "view",
      "type": "function",
      "constant": true
    },
    {
      "inputs": [
        {
          "internalType": "address",
          "name": "user",
          "type": "address"
        }
      ],
      "name": "getRequestStatus",
      "outputs": [
        {
          "components": [
            {
              "internalType": "enum PharmaSupplyChain.Role",
              "name": "requestedRole",
              "type": "uint8"
            },
            {
              "internalType": "bool",
              "name": "exists",
              "type": "bool"
            },
            {
              "internalType": "bool",
              "name": "approved",
              "type": "bool"
            },
            {
              "internalType": "bool",
              "name": "processed",
              "type": "bool"
            }
          ],
          "internalType": "struct PharmaSupplyChain.RoleRequest",
          "name": "",
          "type": "tuple"
        }
      ],
      "stateMutability": "view",
      "type": "function",
      "constant": true
    },
    {
      "inputs": [],
      "name": "getPendingRequestsWithRoles",
      "outputs": [
        {
          "components": [
            {
              "internalType": "address",
              "name": "user",
              "type": "address"
            },
            {
              "internalType": "enum PharmaSupplyChain.Role",
              "name": "requestedRole",
              "type": "uint8"
            }
          ],
          "internalType": "struct PharmaSupplyChain.PendingRequest[]",
          "name": "",
          "type": "tuple[]"
        }
      ],
      "stateMutability": "view",
      "type": "function",
      "constant": true
    },
    {
      "inputs": [
        {
          "internalType": "uint256",
          "name": "batchID",
          "type": "uint256"
        }
      ],
      "name": "getBatchHistory",
      "outputs": [
        {
          "internalType": "address[]",
          "name": "",
          "type": "address[]"
        }
      ],
      "stateMutability": "view",
      "type": "function",
      "constant": true
    },
    {
      "inputs": [],
      "name": "getAllBatchesWithStatus",
      "outputs": [
        {
          "components": [
            {
              "internalType": "uint256",
              "name": "batchID",
              "type": "uint256"
            },
            {
              "internalType": "enum PharmaSupplyChain.Status",
              "name": "status",
              "type": "uint8"
            },
            {
              "internalType": "uint256",
              "name": "expiryDate",
              "type": "uint256"
            }
          ],
          "internalType": "struct PharmaSupplyChain.BatchSummary[]",
          "name": "",
          "type": "tuple[]"
        }
      ],
      "stateMutability": "view",
      "type": "function",
      "constant": true
    },
    {
      "inputs": [],
      "name": "getBatchStatusCounts",
      "outputs": [
        {
          "internalType": "uint256",
          "name": "active",
          "type": "uint256"
        },
        {
          "internalType": "uint256",
          "name": "recalled",
          "type": "uint256"
        },
        {
          "internalType": "uint256",
          "name": "inTransit",
          "type": "uint256"
        }
      ],
      "stateMutability": "view",
      "type": "function",
      "constant": true
    },
    {
      "inputs": [],
      "name": "getRecalledBatches",
      "outputs": [
        {
          "components": [
            {
              "internalType": "uint256",
              "name": "batchID",
              "type": "uint256"
            },
            {
              "internalType": "enum PharmaSupplyChain.Status",
              "name": "status",
              "type": "uint8"
            },
            {
              "internalType": "uint256",
              "name": "expiryDate",
              "type": "uint256"
            }
          ],
          "internalType": "struct PharmaSupplyChain.BatchSummary[]",
          "name": "",
          "type": "tuple[]"
        }
      ],
      "stateMutability": "view",
      "type": "function",
      "constant": true
    }
  ],
  "bytecode": "0x60806040523480156200001157600080fd5b50336000806101000a81548173ffffffffffffffffffffffffffffffffffffffff021916908373ffffffffffffffffffffffffffffffffffffffff1602179055506004600260003373ffffffffffffffffffffffffffffffffffffffff1673ffffffffffffffffffffffffffffffffffffffff16815260200190815260200160002060006101000a81548160ff02191690836004811115620000dc577f4e487b7100000000000000000000000000000000000000000000000000000000600052602160045260246000fd5b0217905550600180819055503373ffffffffffffffffffffffffffffffffffffffff167f4ac36fa53f167ceb85964be512e01de2a3b8bdb9862f917da079deeeff689b38600460405162000131919062000150565b60405180910390a2620001dc565b6200014a8162000182565b82525050565b60006020820190506200016760008301846200013f565b92915050565b60008190506200017d82620001c5565b919050565b60006200018f826200016d565b9050919050565b7f4e487b7100000000000000000000000000000000000000000000000000000000600052602160045260246000fd5b60058110620001d957620001d862000196565b5b50565b61579180620001ec6000396000f3fe608060405234801561001057600080fd5b506004361061014d5760003560e01c8063a1c1743b116100c3578063d1061fef1161007c578063d1061fef146103d1578063dd8fee1414610404578063dfe3a3ae14610422578063e229f2cb1461043e578063ec5475d01461045a578063f98fe6281461047a5761014d565b8063a1c1743b146102f5578063a6e162b414610311578063a72598ce1461032d578063b32c4d8d1461034b578063c2f7fa3014610383578063c7a8ccb1146103a15761014d565b80634f5f9292116101155780634f5f92921461020857806374d5e1001461022657806379fa48b6146102565780637e2933b0146102725780639000cb961461028e5780639d47dcc0146102be5761014d565b80630b123e75146101525780631896d298146101705780633126b9651461018c5780633c652a9a146101bc5780634b41b679146101ec575b600080fd5b61015a6104aa565b6040516101679190614d71565b60405180910390f35b61018a60048036038101906101859190614364565b6107b0565b005b6101a660048036038101906101a19190614408565b610cac565b6040516101b3919061515e565b60405180910390f35b6101d660048036038101906101d19190614408565b610cc4565b6040516101e39190614d19565b60405180910390f35b6102066004803603810190610201919061433b565b610d03565b005b610210611420565b60405161021d9190614d71565b60405180910390f35b610240600480360381019061023b919061433b565b6115b8565b60405161024d9190614dde565b60405180910390f35b610270600480360381019061026b919061433b565b6115d8565b005b61028c60048036038101906102879190614431565b611ab7565b005b6102a860048036038101906102a3919061446d565b612039565b6040516102b59190614d19565b60405180910390f35b6102d860048036038101906102d39190614408565b612087565b6040516102ec989796959493929190614e3e565b60405180910390f35b61030f600480360381019061030a919061438d565b612399565b005b61032b60048036038101906103269190614408565b61289c565b005b610335612dd9565b604051610342919061515e565b60405180910390f35b61036560048036038101906103609190614408565b612ddf565b60405161037a99989796959493929190615241565b60405180910390f35b61038b612f22565b6040516103989190614d93565b60405180910390f35b6103bb60048036038101906103b69190614408565b6131c0565b6040516103c89190614d4f565b60405180910390f35b6103eb60048036038101906103e6919061433b565b6132bb565b6040516103fb9493929190614df9565b60405180910390f35b61040c61331f565b6040516104199190614d34565b60405180910390f35b61043c60048036038101906104379190614408565b613343565b005b61045860048036038101906104539190614431565b6136f8565b005b610462613c7a565b604051610471939291906152d5565b60405180910390f35b610494600480360381019061048f919061433b565b613f84565b6040516104a19190615143565b60405180910390f35b60606000600180546104bc9190615434565b9050600080600190505b82811161058a57600480811115610506577f4e487b7100000000000000000000000000000000000000000000000000000000600052602160045260246000fd5b6003600083815260200190815260200160002060070160149054906101000a900460ff166004811115610562577f4e487b7100000000000000000000000000000000000000000000000000000000600052602160045260246000fd5b1415610577578180610573906155c8565b9250505b8080610582906155c8565b9150506104c6565b5060008167ffffffffffffffff8111156105cd577f4e487b7100000000000000000000000000000000000000000000000000000000600052604160045260246000fd5b60405190808252806020026020018201604052801561060657816020015b6105f36140b5565b8152602001906001900390816105eb5790505b509050600080600190505b8481116107a557600480811115610651577f4e487b7100000000000000000000000000000000000000000000000000000000600052602160045260246000fd5b6003600083815260200190815260200160002060070160149054906101000a900460ff1660048111156106ad577f4e487b7100000000000000000000000000000000000000000000000000000000600052602160045260246000fd5b14156107925760405180606001604052808281526020016003600084815260200190815260200160002060070160149054906101000a900460ff166004811115610720577f4e487b7100000000000000000000000000000000000000000000000000000000600052602160045260246000fd5b81526020016003600084815260200190815260200160002060040154815250838381518110610778577f4e487b7100000000000000000000000000000000000000000000000000000000600052603260045260246000fd5b6020026020010181905250818061078e906155c8565b9250505b808061079d906155c8565b915050610611565b508194505050505090565b600060048111156107ea577f4e487b7100000000000000000000000000000000000000000000000000000000600052602160045260246000fd5b600260003373ffffffffffffffffffffffffffffffffffffffff1673ffffffffffffffffffffffffffffffffffffffff16815260200190815260200160002060009054906101000a900460ff16600481111561086f577f4e487b7100000000000000000000000000000000000000000000000000000000600052602160045260246000fd5b146108af576040517f08c379a00000000000000000000000000000000000000000000000000000000081526004016108a690614f03565b60405180910390fd5b6004808111156108e8577f4e487b7100000000000000000000000000000000000000000000000000000000600052602160045260246000fd5b816004811115610921577f4e487b7100000000000000000000000000000000000000000000000000000000600052602160045260246000fd5b1415610962576040517f08c379a000000000000000000000000000000000000000000000000000000000815260040161095990614fe3565b60405180910390fd5b600460003373ffffffffffffffffffffffffffffffffffffffff1673ffffffffffffffffffffffffffffffffffffffff16815260200190815260200160002060000160019054906101000a900460ff161580610a0a5750600460003373ffffffffffffffffffffffffffffffffffffffff1673ffffffffffffffffffffffffffffffffffffffff16815260200190815260200160002060000160039054906101000a900460ff165b610a49576040517f08c379a0000000000000000000000000000000000000000000000000000000008152600401610a4090615023565b60405180910390fd5b6040518060800160405280826004811115610a8d577f4e487b7100000000000000000000000000000000000000000000000000000000600052602160045260246000fd5b815260200160011515815260200160001515815260200160001515815250600460003373ffffffffffffffffffffffffffffffffffffffff1673ffffffffffffffffffffffffffffffffffffffff16815260200190815260200160002060008201518160000160006101000a81548160ff02191690836004811115610b3b577f4e487b7100000000000000000000000000000000000000000000000000000000600052602160045260246000fd5b021790555060208201518160000160016101000a81548160ff02191690831515021790555060408201518160000160026101000a81548160ff02191690831515021790555060608201518160000160036101000a81548160ff0219169083151502179055509050506005339080600181540180825580915050600190039060005260206000200160009091909190916101000a81548173ffffffffffffffffffffffffffffffffffffffff021916908373ffffffffffffffffffffffffffffffffffffffff1602179055506001600580549050610c189190615434565b600660003373ffffffffffffffffffffffffffffffffffffffff1673ffffffffffffffffffffffffffffffffffffffff168152602001908152602001600020819055503373ffffffffffffffffffffffffffffffffffffffff167ff895b94cb55ee9f608ecb65ff13cf68962fd45bdfcfb5a3eaafcaa1571571e0282604051610ca19190614dde565b60405180910390a250565b60076020528060005260406000206000915090505481565b60058181548110610cd457600080fd5b906000526020600020016000915054906101000a900473ffffffffffffffffffffffffffffffffffffffff1681565b60008054906101000a900473ffffffffffffffffffffffffffffffffffffffff1673ffffffffffffffffffffffffffffffffffffffff163373ffffffffffffffffffffffffffffffffffffffff1614610d91576040517f08c379a0000000000000000000000000000000000000000000000000000000008152600401610d88906150c3565b60405180910390fd5b600460008273ffffffffffffffffffffffffffffffffffffffff1673ffffffffffffffffffffffffffffffffffffffff16815260200190815260200160002060000160019054906101000a900460ff16610e20576040517f08c379a0000000000000000000000000000000000000000000000000000000008152600401610e1790615043565b60405180910390fd5b600460008273ffffffffffffffffffffffffffffffffffffffff1673ffffffffffffffffffffffffffffffffffffffff16815260200190815260200160002060000160039054906101000a900460ff1615610eb0576040517f08c379a0000000000000000000000000000000000000000000000000000000008152600401610ea790614f63565b60405180910390fd5b600480811115610ee9577f4e487b7100000000000000000000000000000000000000000000000000000000600052602160045260246000fd5b600460008373ffffffffffffffffffffffffffffffffffffffff1673ffffffffffffffffffffffffffffffffffffffff16815260200190815260200160002060000160009054906101000a900460ff166004811115610f71577f4e487b7100000000000000000000000000000000000000000000000000000000600052602160045260246000fd5b1415610fb2576040517f08c379a0000000000000000000000000000000000000000000000000000000008152600401610fa9906150a3565b60405180910390fd5b6000600460008373ffffffffffffffffffffffffffffffffffffffff1673ffffffffffffffffffffffffffffffffffffffff16815260200190815260200160002060000160009054906101000a900460ff16905080600260008473ffffffffffffffffffffffffffffffffffffffff1673ffffffffffffffffffffffffffffffffffffffff16815260200190815260200160002060006101000a81548160ff0219169083600481111561108e577f4e487b7100000000000000000000000000000000000000000000000000000000600052602160045260246000fd5b02179055506001600460008473ffffffffffffffffffffffffffffffffffffffff1673ffffffffffffffffffffffffffffffffffffffff16815260200190815260200160002060000160026101000a81548160ff0219169083151502179055506001600460008473ffffffffffffffffffffffffffffffffffffffff1673ffffffffffffffffffffffffffffffffffffffff16815260200190815260200160002060000160036101000a81548160ff0219169083151502179055506000600660008473ffffffffffffffffffffffffffffffffffffffff1673ffffffffffffffffffffffffffffffffffffffff1681526020019081526020016000205490506000600560016005805490506111a39190615434565b815481106111da577f4e487b7100000000000000000000000000000000000000000000000000000000600052603260045260246000fd5b9060005260206000200160009054906101000a900473ffffffffffffffffffffffffffffffffffffffff1690508060058381548110611242577f4e487b7100000000000000000000000000000000000000000000000000000000600052603260045260246000fd5b9060005260206000200160006101000a81548173ffffffffffffffffffffffffffffffffffffffff021916908373ffffffffffffffffffffffffffffffffffffffff16021790555081600660008373ffffffffffffffffffffffffffffffffffffffff1673ffffffffffffffffffffffffffffffffffffffff168152602001908152602001600020819055506005805480611306577f4e487b7100000000000000000000000000000000000000000000000000000000600052603160045260246000fd5b6001900381819060005260206000200160006101000a81549073ffffffffffffffffffffffffffffffffffffffff02191690559055600660008573ffffffffffffffffffffffffffffffffffffffff1673ffffffffffffffffffffffffffffffffffffffff168152602001908152602001600020600090558373ffffffffffffffffffffffffffffffffffffffff167f042f52f18ca9258767cef802b6283a39f6c1053fbd02bee367edc363da679f86846040516113c49190614dde565b60405180910390a28373ffffffffffffffffffffffffffffffffffffffff167f4ac36fa53f167ceb85964be512e01de2a3b8bdb9862f917da079deeeff689b38846040516114129190614dde565b60405180910390a250505050565b60606000600180546114329190615434565b905060008167ffffffffffffffff811115611476577f4e487b7100000000000000000000000000000000000000000000000000000000600052604160045260246000fd5b6040519080825280602002602001820160405280156114af57816020015b61149c6140b5565b8152602001906001900390816114945790505b5090506000600190505b8281116115af5760405180606001604052808281526020016003600084815260200190815260200160002060070160149054906101000a900460ff16600481111561152d577f4e487b7100000000000000000000000000000000000000000000000000000000600052602160045260246000fd5b815260200160036000848152602001908152602001600020600401548152508260018361155a9190615434565b81518110611591577f4e487b7100000000000000000000000000000000000000000000000000000000600052603260045260246000fd5b602002602001018190525080806115a7906155c8565b9150506114b9565b50809250505090565b60026020528060005260406000206000915054906101000a900460ff1681565b60008054906101000a900473ffffffffffffffffffffffffffffffffffffffff1673ffffffffffffffffffffffffffffffffffffffff163373ffffffffffffffffffffffffffffffffffffffff1614611666576040517f08c379a000000000000000000000000000000000000000000000000000000000815260040161165d906150c3565b60405180910390fd5b600460008273ffffffffffffffffffffffffffffffffffffffff1673ffffffffffffffffffffffffffffffffffffffff16815260200190815260200160002060000160019054906101000a900460ff166116f5576040517f08c379a00000000000000000000000000000000000000000000000000000000081526004016116ec90615043565b60405180910390fd5b600460008273ffffffffffffffffffffffffffffffffffffffff1673ffffffffffffffffffffffffffffffffffffffff16815260200190815260200160002060000160039054906101000a900460ff1615611785576040517f08c379a000000000000000000000000000000000000000000000000000000000815260040161177c90614f63565b60405180910390fd5b6001600460008373ffffffffffffffffffffffffffffffffffffffff1673ffffffffffffffffffffffffffffffffffffffff16815260200190815260200160002060000160036101000a81548160ff0219169083151502179055506000600660008373ffffffffffffffffffffffffffffffffffffffff1673ffffffffffffffffffffffffffffffffffffffff16815260200190815260200160002054905060006005600160058054905061183a9190615434565b81548110611871577f4e487b7100000000000000000000000000000000000000000000000000000000600052603260045260246000fd5b9060005260206000200160009054906101000a900473ffffffffffffffffffffffffffffffffffffffff16905080600583815481106118d9577f4e487b7100000000000000000000000000000000000000000000000000000000600052603260045260246000fd5b9060005260206000200160006101000a81548173ffffffffffffffffffffffffffffffffffffffff021916908373ffffffffffffffffffffffffffffffffffffffff16021790555081600660008373ffffffffffffffffffffffffffffffffffffffff1673ffffffffffffffffffffffffffffffffffffffff16815260200190815260200160002081905550600580548061199d577f4e487b7100000000000000000000000000000000000000000000000000000000600052603160045260246000fd5b6001900381819060005260206000200160006101000a81549073ffffffffffffffffffffffffffffffffffffffff02191690559055600660008473ffffffffffffffffffffffffffffffffffffffff1673ffffffffffffffffffffffffffffffffffffffff168152602001908152602001600020600090558273ffffffffffffffffffffffffffffffffffffffff167fa1207d3124c17356cdedc2646d94f345e7c937ffc4aab39b4f804c1f66bd8a0e600460008673ffffffffffffffffffffffffffffffffffffffff1673ffffffffffffffffffffffffffffffffffffffff16815260200190815260200160002060000160009054906101000a900460ff16604051611aaa9190614dde565b60405180910390a2505050565b6002806004811115611af2577f4e487b7100000000000000000000000000000000000000000000000000000000600052602160045260246000fd5b600260003373ffffffffffffffffffffffffffffffffffffffff1673ffffffffffffffffffffffffffffffffffffffff16815260200190815260200160002060009054906101000a900460ff166004811115611b77577f4e487b7100000000000000000000000000000000000000000000000000000000600052602160045260246000fd5b14611bb7576040517f08c379a0000000000000000000000000000000000000000000000000000000008152600401611bae90615103565b60405180910390fd5b8280600360008381526020019081526020016000206000015414611c10576040517f08c379a0000000000000000000000000000000000000000000000000000000008152600401611c0790614f23565b60405180910390fd5b60036004811115611c4a577f4e487b7100000000000000000000000000000000000000000000000000000000600052602160045260246000fd5b600260008573ffffffffffffffffffffffffffffffffffffffff1673ffffffffffffffffffffffffffffffffffffffff16815260200190815260200160002060009054906101000a900460ff166004811115611ccf577f4e487b7100000000000000000000000000000000000000000000000000000000600052602160045260246000fd5b14611d0f576040517f08c379a0000000000000000000000000000000000000000000000000000000008152600401611d0690614fc3565b60405180910390fd5b60016004811115611d49577f4e487b7100000000000000000000000000000000000000000000000000000000600052602160045260246000fd5b6003600086815260200190815260200160002060070160149054906101000a900460ff166004811115611da5577f4e487b7100000000000000000000000000000000000000000000000000000000600052602160045260246000fd5b14611de5576040517f08c379a0000000000000000000000000000000000000000000000000000000008152600401611ddc90615083565b60405180910390fd5b42600360008681526020019081526020016000206004015411611e3d576040517f08c379a0000000000000000000000000000000000000000000000000000000008152600401611e3490614f43565b60405180910390fd5b826003600086815260200190815260200160002060070160006101000a81548173ffffffffffffffffffffffffffffffffffffffff021916908373ffffffffffffffffffffffffffffffffffffffff16021790555060026003600086815260200190815260200160002060070160146101000a81548160ff02191690836004811115611ef2577f4e487b7100000000000000000000000000000000000000000000000000000000600052602160045260246000fd5b021790555042600760008681526020019081526020016000208190555060086000858152602001908152602001600020339080600181540180825580915050600190039060005260206000200160009091909190916101000a81548173ffffffffffffffffffffffffffffffffffffffff021916908373ffffffffffffffffffffffffffffffffffffffff16021790555060086000858152602001908152602001600020839080600181540180825580915050600190039060005260206000200160009091909190916101000a81548173ffffffffffffffffffffffffffffffffffffffff021916908373ffffffffffffffffffffffffffffffffffffffff1602179055507f7b1f1b9f258343e4507ba533f8ff285eb463d07c0adf8a9bf47be97ecc39b12b8484600260405161202b939291906151a2565b60405180910390a150505050565b6008602052816000526040600020818154811061205557600080fd5b906000526020600020016000915091509054906101000a900473ffffffffffffffffffffffffffffffffffffffff1681565b6060600080600080600080600088806003600083815260200190815260200160002060000154146120ed576040517f08c379a00000000000000000000000000000000000000000000000000000000081526004016120e490614f23565b60405180910390fd5b6000600360008c8152602001908152602001600020604051806101200160405290816000820154815260200160018201805461212890615596565b80601f016020809104026020016040519081016040528092919081815260200182805461215490615596565b80156121a15780601f10612176576101008083540402835291602001916121a1565b820191906000526020600020905b81548152906001019060200180831161218457829003601f168201915b505050505081526020016002820154815260200160038201548152602001600482015481526020016005820160009054906101000a900473ffffffffffffffffffffffffffffffffffffffff1673ffffffffffffffffffffffffffffffffffffffff1673ffffffffffffffffffffffffffffffffffffffff1681526020016006820160009054906101000a900473ffffffffffffffffffffffffffffffffffffffff1673ffffffffffffffffffffffffffffffffffffffff1673ffffffffffffffffffffffffffffffffffffffff1681526020016007820160009054906101000a900473ffffffffffffffffffffffffffffffffffffffff1673ffffffffffffffffffffffffffffffffffffffff1673ffffffffffffffffffffffffffffffffffffffff1681526020016007820160149054906101000a900460ff166004811115612315577f4e487b7100000000000000000000000000000000000000000000000000000000600052602160045260246000fd5b600481111561234d577f4e487b7100000000000000000000000000000000000000000000000000000000600052602160045260246000fd5b81525050905080602001518160400151826060015183608001518461010001518560a001518660c001518760e00151995099509950995099509950995099505050919395975091939597565b60018060048111156123d4577f4e487b7100000000000000000000000000000000000000000000000000000000600052602160045260246000fd5b600260003373ffffffffffffffffffffffffffffffffffffffff1673ffffffffffffffffffffffffffffffffffffffff16815260200190815260200160002060009054906101000a900460ff166004811115612459577f4e487b7100000000000000000000000000000000000000000000000000000000600052602160045260246000fd5b14612499576040517f08c379a000000000000000000000000000000000000000000000000000000000815260040161249090615103565b60405180910390fd5b60008551116124dd576040517f08c379a00000000000000000000000000000000000000000000000000000000081526004016124d490614fa3565b60405180910390fd5b81831061251f576040517f08c379a000000000000000000000000000000000000000000000000000000000815260040161251690615123565b60405180910390fd5b42831115612562576040517f08c379a0000000000000000000000000000000000000000000000000000000008152600401612559906150e3565b60405180910390fd5b60405180610120016040528060015481526020018681526020018581526020018481526020018381526020013373ffffffffffffffffffffffffffffffffffffffff168152602001600073ffffffffffffffffffffffffffffffffffffffff168152602001600073ffffffffffffffffffffffffffffffffffffffff1681526020016000600481111561261e577f4e487b7100000000000000000000000000000000000000000000000000000000600052602160045260246000fd5b81525060036000600154815260200190815260200160002060008201518160000155602082015181600101908051906020019061265c92919061410e565b5060408201518160020155606082015181600301556080820151816004015560a08201518160050160006101000a81548173ffffffffffffffffffffffffffffffffffffffff021916908373ffffffffffffffffffffffffffffffffffffffff16021790555060c08201518160060160006101000a81548173ffffffffffffffffffffffffffffffffffffffff021916908373ffffffffffffffffffffffffffffffffffffffff16021790555060e08201518160070160006101000a81548173ffffffffffffffffffffffffffffffffffffffff021916908373ffffffffffffffffffffffffffffffffffffffff1602179055506101008201518160070160146101000a81548160ff021916908360048111156127a2577f4e487b7100000000000000000000000000000000000000000000000000000000600052602160045260246000fd5b02179055509050504260076000600154815260200190815260200160002081905550600860006001548152602001908152602001600020339080600181540180825580915050600190039060005260206000200160009091909190916101000a81548173ffffffffffffffffffffffffffffffffffffffff021916908373ffffffffffffffffffffffffffffffffffffffff1602179055507fd79033df2fcd9480827785cc2b6fe3bd6fd5bfefd10987f4a6cd991f5a0ccdc26001548686868633604051612875969594939291906151d9565b60405180910390a160016000815480929190612890906155c8565b91905055505050505050565b80806003600083815260200190815260200160002060000154146128f5576040517f08c379a00000000000000000000000000000000000000000000000000000000081526004016128ec90614f23565b60405180910390fd5b60048081111561292e577f4e487b7100000000000000000000000000000000000000000000000000000000600052602160045260246000fd5b6003600084815260200190815260200160002060070160149054906101000a900460ff16600481111561298a577f4e487b7100000000000000000000000000000000000000000000000000000000600052602160045260246000fd5b14156129cb576040517f08c379a00000000000000000000000000000000000000000000000000000000081526004016129c290614ec3565b60405180910390fd5b60008054906101000a900473ffffffffffffffffffffffffffffffffffffffff1673ffffffffffffffffffffffffffffffffffffffff163373ffffffffffffffffffffffffffffffffffffffff161480612b2657506003600083815260200190815260200160002060050160009054906101000a900473ffffffffffffffffffffffffffffffffffffffff1673ffffffffffffffffffffffffffffffffffffffff163373ffffffffffffffffffffffffffffffffffffffff16148015612b25575060036004811115612ac6577f4e487b7100000000000000000000000000000000000000000000000000000000600052602160045260246000fd5b6003600084815260200190815260200160002060070160149054906101000a900460ff166004811115612b22577f4e487b7100000000000000000000000000000000000000000000000000000000600052602160045260246000fd5b14155b5b80612c3157506003600083815260200190815260200160002060070160009054906101000a900473ffffffffffffffffffffffffffffffffffffffff1673ffffffffffffffffffffffffffffffffffffffff163373ffffffffffffffffffffffffffffffffffffffff16148015612c30575060026004811115612bd2577f4e487b7100000000000000000000000000000000000000000000000000000000600052602160045260246000fd5b6003600084815260200190815260200160002060070160149054906101000a900460ff166004811115612c2e577f4e487b7100000000000000000000000000000000000000000000000000000000600052602160045260246000fd5b145b5b612c70576040517f08c379a0000000000000000000000000000000000000000000000000000000008152600401612c6790614f83565b60405180910390fd5b60046003600084815260200190815260200160002060070160146101000a81548160ff02191690836004811115612cd0577f4e487b7100000000000000000000000000000000000000000000000000000000600052602160045260246000fd5b021790555042600760008481526020019081526020016000208190555060086000838152602001908152602001600020339080600181540180825580915050600190039060005260206000200160009091909190916101000a81548173ffffffffffffffffffffffffffffffffffffffff021916908373ffffffffffffffffffffffffffffffffffffffff1602179055507f5a41088291f050dab11b8aeaaeaa8fd33f2225751a5d64008f812e0362ef47258233604051612d92929190615179565b60405180910390a1817fb5eb47cf092caf5aa3d3a45128033de074debc2b4f6a9475df76f993dc72c08b600080604051612dcd929190614db5565b60405180910390a25050565b60015481565b6003602052806000526040600020600091509050806000015490806001018054612e0890615596565b80601f0160208091040260200160405190810160405280929190818152602001828054612e3490615596565b8015612e815780601f10612e5657610100808354040283529160200191612e81565b820191906000526020600020905b815481529060010190602001808311612e6457829003601f168201915b5050505050908060020154908060030154908060040154908060050160009054906101000a900473ffffffffffffffffffffffffffffffffffffffff16908060060160009054906101000a900473ffffffffffffffffffffffffffffffffffffffff16908060070160009054906101000a900473ffffffffffffffffffffffffffffffffffffffff16908060070160149054906101000a900460ff16905089565b606060008054906101000a900473ffffffffffffffffffffffffffffffffffffffff1673ffffffffffffffffffffffffffffffffffffffff163373ffffffffffffffffffffffffffffffffffffffff1614612fb2576040517f08c379a0000000000000000000000000000000000000000000000000000000008152600401612fa9906150c3565b60405180910390fd5b600060058054905067ffffffffffffffff811115612ff9577f4e487b7100000000000000000000000000000000000000000000000000000000600052604160045260246000fd5b60405190808252806020026020018201604052801561303257816020015b61301f614194565b8152602001906001900390816130175790505b50905060005b6005805490508110156131b857600060058281548110613081577f4e487b7100000000000000000000000000000000000000000000000000000000600052603260045260246000fd5b9060005260206000200160009054906101000a900473ffffffffffffffffffffffffffffffffffffffff16905060405180604001604052808273ffffffffffffffffffffffffffffffffffffffff168152602001600460008473ffffffffffffffffffffffffffffffffffffffff1673ffffffffffffffffffffffffffffffffffffffff16815260200190815260200160002060000160009054906101000a900460ff16600481111561315d577f4e487b7100000000000000000000000000000000000000000000000000000000600052602160045260246000fd5b815250838381518110613199577f4e487b7100000000000000000000000000000000000000000000000000000000600052603260045260246000fd5b60200260200101819052505080806131b0906155c8565b915050613038565b508091505090565b6060818060036000838152602001908152602001600020600001541461321b576040517f08c379a000000000000000000000000000000000000000000000000000000000815260040161321290614f23565b60405180910390fd5b600860008481526020019081526020016000208054806020026020016040519081016040528092919081815260200182805480156132ae57602002820191906000526020600020905b8160009054906101000a900473ffffffffffffffffffffffffffffffffffffffff1673ffffffffffffffffffffffffffffffffffffffff1681526020019060010190808311613264575b5050505050915050919050565b60046020528060005260406000206000915090508060000160009054906101000a900460ff16908060000160019054906101000a900460ff16908060000160029054906101000a900460ff16908060000160039054906101000a900460ff16905084565b60008054906101000a900473ffffffffffffffffffffffffffffffffffffffff1681565b600380600481111561337e577f4e487b7100000000000000000000000000000000000000000000000000000000600052602160045260246000fd5b600260003373ffffffffffffffffffffffffffffffffffffffff1673ffffffffffffffffffffffffffffffffffffffff16815260200190815260200160002060009054906101000a900460ff166004811115613403577f4e487b7100000000000000000000000000000000000000000000000000000000600052602160045260246000fd5b14613443576040517f08c379a000000000000000000000000000000000000000000000000000000000815260040161343a90615103565b60405180910390fd5b818060036000838152602001908152602001600020600001541461349c576040517f08c379a000000000000000000000000000000000000000000000000000000000815260040161349390614f23565b60405180910390fd5b600260048111156134d6577f4e487b7100000000000000000000000000000000000000000000000000000000600052602160045260246000fd5b6003600085815260200190815260200160002060070160149054906101000a900460ff166004811115613532577f4e487b7100000000000000000000000000000000000000000000000000000000600052602160045260246000fd5b14613572576040517f08c379a000000000000000000000000000000000000000000000000000000000815260040161356990615003565b60405180910390fd5b426003600085815260200190815260200160002060040154116135ca576040517f08c379a00000000000000000000000000000000000000000000000000000000081526004016135c190614f43565b60405180910390fd5b600380600085815260200190815260200160002060070160146101000a81548160ff02191690836004811115613629577f4e487b7100000000000000000000000000000000000000000000000000000000600052602160045260246000fd5b021790555042600760008581526020019081526020016000208190555060086000848152602001908152602001600020339080600181540180825580915050600190039060005260206000200160009091909190916101000a81548173ffffffffffffffffffffffffffffffffffffffff021916908373ffffffffffffffffffffffffffffffffffffffff1602179055507f5e4f9a3d8e8d8fc42bbe98104b324b50682ae0e3f892f0294dd16a226d48c21c83336040516136eb929190615179565b60405180910390a1505050565b6001806004811115613733577f4e487b7100000000000000000000000000000000000000000000000000000000600052602160045260246000fd5b600260003373ffffffffffffffffffffffffffffffffffffffff1673ffffffffffffffffffffffffffffffffffffffff16815260200190815260200160002060009054906101000a900460ff1660048111156137b8577f4e487b7100000000000000000000000000000000000000000000000000000000600052602160045260246000fd5b146137f8576040517f08c379a00000000000000000000000000000000000000000000000000000000081526004016137ef90615103565b60405180910390fd5b8280600360008381526020019081526020016000206000015414613851576040517f08c379a000000000000000000000000000000000000000000000000000000000815260040161384890614f23565b60405180910390fd5b6002600481111561388b577f4e487b7100000000000000000000000000000000000000000000000000000000600052602160045260246000fd5b600260008573ffffffffffffffffffffffffffffffffffffffff1673ffffffffffffffffffffffffffffffffffffffff16815260200190815260200160002060009054906101000a900460ff166004811115613910577f4e487b7100000000000000000000000000000000000000000000000000000000600052602160045260246000fd5b14613950576040517f08c379a000000000000000000000000000000000000000000000000000000000815260040161394790615063565b60405180910390fd5b6000600481111561398a577f4e487b7100000000000000000000000000000000000000000000000000000000600052602160045260246000fd5b6003600086815260200190815260200160002060070160149054906101000a900460ff1660048111156139e6577f4e487b7100000000000000000000000000000000000000000000000000000000600052602160045260246000fd5b14613a26576040517f08c379a0000000000000000000000000000000000000000000000000000000008152600401613a1d90614ee3565b60405180910390fd5b42600360008681526020019081526020016000206004015411613a7e576040517f08c379a0000000000000000000000000000000000000000000000000000000008152600401613a7590614f43565b60405180910390fd5b826003600086815260200190815260200160002060060160006101000a81548173ffffffffffffffffffffffffffffffffffffffff021916908373ffffffffffffffffffffffffffffffffffffffff16021790555060016003600086815260200190815260200160002060070160146101000a81548160ff02191690836004811115613b33577f4e487b7100000000000000000000000000000000000000000000000000000000600052602160045260246000fd5b021790555042600760008681526020019081526020016000208190555060086000858152602001908152602001600020339080600181540180825580915050600190039060005260206000200160009091909190916101000a81548173ffffffffffffffffffffffffffffffffffffffff021916908373ffffffffffffffffffffffffffffffffffffffff16021790555060086000858152602001908152602001600020839080600181540180825580915050600190039060005260206000200160009091909190916101000a81548173ffffffffffffffffffffffffffffffffffffffff021916908373ffffffffffffffffffffffffffffffffffffffff1602179055507f7b1f1b9f258343e4507ba533f8ff285eb463d07c0adf8a9bf47be97ecc39b12b84846001604051613c6c939291906151a2565b60405180910390a150505050565b60008060008060018054613c8e9190615434565b90506000935060009250600091506000600190505b818111613f7d5760006003600083815260200190815260200160002060070160149054906101000a900460ff16905060036004811115613d0c577f4e487b7100000000000000000000000000000000000000000000000000000000600052602160045260246000fd5b816004811115613d45577f4e487b7100000000000000000000000000000000000000000000000000000000600052602160045260246000fd5b1480613dc1575060026004811115613d86577f4e487b7100000000000000000000000000000000000000000000000000000000600052602160045260246000fd5b816004811115613dbf577f4e487b7100000000000000000000000000000000000000000000000000000000600052602160045260246000fd5b145b80613e3c575060006004811115613e01577f4e487b7100000000000000000000000000000000000000000000000000000000600052602160045260246000fd5b816004811115613e3a577f4e487b7100000000000000000000000000000000000000000000000000000000600052602160045260246000fd5b145b15613e54578580613e4c906155c8565b965050613f69565b600480811115613e8d577f4e487b7100000000000000000000000000000000000000000000000000000000600052602160045260246000fd5b816004811115613ec6577f4e487b7100000000000000000000000000000000000000000000000000000000600052602160045260246000fd5b1415613edf578480613ed7906155c8565b955050613f68565b60016004811115613f19577f4e487b7100000000000000000000000000000000000000000000000000000000600052602160045260246000fd5b816004811115613f52577f4e487b7100000000000000000000000000000000000000000000000000000000600052602160045260246000fd5b1415613f67578380613f63906155c8565b9450505b5b5b508080613f75906155c8565b915050613ca3565b5050909192565b613f8c6141fc565b600460008373ffffffffffffffffffffffffffffffffffffffff1673ffffffffffffffffffffffffffffffffffffffff1681526020019081526020016000206040518060800160405290816000820160009054906101000a900460ff166004811115614021577f4e487b7100000000000000000000000000000000000000000000000000000000600052602160045260246000fd5b6004811115614059577f4e487b7100000000000000000000000000000000000000000000000000000000600052602160045260246000fd5b81526020016000820160019054906101000a900460ff161515151581526020016000820160029054906101000a900460ff161515151581526020016000820160039054906101000a900460ff1615151515815250509050919050565b60405180606001604052806000815260200160006004811115614101577f4e487b7100000000000000000000000000000000000000000000000000000000600052602160045260246000fd5b8152602001600081525090565b82805461411a90615596565b90600052602060002090601f01602090048101928261413c5760008555614183565b82601f1061415557805160ff1916838001178555614183565b82800160010185558215614183579182015b82811115614182578251825591602001919060010190614167565b5b5090506141909190614262565b5090565b6040518060400160405280600073ffffffffffffffffffffffffffffffffffffffff168152602001600060048111156141f6577f4e487b7100000000000000000000000000000000000000000000000000000000600052602160045260246000fd5b81525090565b604051806080016040528060006004811115614241577f4e487b7100000000000000000000000000000000000000000000000000000000600052602160045260246000fd5b81526020016000151581526020016000151581526020016000151581525090565b5b8082111561427b576000816000905550600101614263565b5090565b600061429261428d8461533d565b61530c565b9050828152602081018484840111156142aa57600080fd5b6142b5848285615554565b509392505050565b6000813590506142cc81615706565b92915050565b6000813590506142e18161571d565b92915050565b6000813590506142f681615734565b92915050565b600082601f83011261430d57600080fd5b813561431d84826020860161427f565b91505092915050565b60008135905061433581615744565b92915050565b60006020828403121561434d57600080fd5b600061435b848285016142bd565b91505092915050565b60006020828403121561437657600080fd5b6000614384848285016142e7565b91505092915050565b600080600080608085870312156143a357600080fd5b600085013567ffffffffffffffff8111156143bd57600080fd5b6143c9878288016142fc565b94505060206143da87828801614326565b93505060406143eb87828801614326565b92505060606143fc87828801614326565b91505092959194509250565b60006020828403121561441a57600080fd5b600061442884828501614326565b91505092915050565b6000806040838503121561444457600080fd5b600061445285828601614326565b9250506020614463858286016142d2565b9150509250929050565b6000806040838503121561448057600080fd5b600061448e85828601614326565b925050602061449f85828601614326565b9150509250929050565b60006144b5838361450f565b60208301905092915050565b60006144cd8383614c35565b60608301905092915050565b60006144e58383614c77565b60408301905092915050565b6144fa816154e8565b82525050565b6145098161547a565b82525050565b61451881615468565b82525050565b61452781615468565b82525050565b60006145388261539d565b61454281856153f0565b935061454d8361536d565b8060005b8381101561457e57815161456588826144a9565b9750614570836153c9565b925050600181019050614551565b5085935050505092915050565b6000614596826153a8565b6145a08185615401565b93506145ab8361537d565b8060005b838110156145dc5781516145c388826144c1565b97506145ce836153d6565b9250506001810190506145af565b5085935050505092915050565b60006145f4826153b3565b6145fe8185615412565b93506146098361538d565b8060005b8381101561463a57815161462188826144d9565b975061462c836153e3565b92505060018101905061460d565b5085935050505092915050565b6146508161548c565b82525050565b61465f8161548c565b82525050565b61466e816154fa565b82525050565b61467d816154fa565b82525050565b61468c8161550c565b82525050565b61469b8161550c565b82525050565b6146aa8161551e565b82525050565b60006146bb826153be565b6146c58185615423565b93506146d5818560208601615563565b6146de816156cd565b840191505092915050565b60006146f6601083615423565b91507f416c726561647920526563616c6c6564000000000000000000000000000000006000830152602082019050919050565b6000614736601c83615423565b91507f4261746368206e6f7420726561647920666f72207472616e73666572000000006000830152602082019050919050565b6000614776601283615423565b91507f416c726561647920686173206120726f6c6500000000000000000000000000006000830152602082019050919050565b60006147b6601483615423565b91507f426174636820646f6573206e6f742065786973740000000000000000000000006000830152602082019050919050565b60006147f6600d83615423565b91507f42617463682065787069726564000000000000000000000000000000000000006000830152602082019050919050565b6000614836601983615423565b91507f5265717565737420616c72656164792070726f636573736564000000000000006000830152602082019050919050565b6000614876601883615423565b91507f4e6f7420617574686f72697a656420746f20726563616c6c00000000000000006000830152602082019050919050565b60006148b6601283615423565b91507f44727567206e616d6520726571756972656400000000000000000000000000006000830152602082019050919050565b60006148f6601083615423565b91507f496e76616c69642070726f7669646572000000000000000000000000000000006000830152602082019050919050565b6000614936601d83615423565b91507f43616e6e6f74207265717565737420526567756c61746f7220726f6c650000006000830152602082019050919050565b6000614976601783615423565b91507f4261746368206e6f742064656c697665726564207965740000000000000000006000830152602082019050919050565b60006149b6601783615423565b91507f5265717565737420616c72656164792070656e64696e670000000000000000006000830152602082019050919050565b60006149f6601083615423565b91507f4e6f207265717565737420666f756e64000000000000000000000000000000006000830152602082019050919050565b6000614a36601383615423565b91507f496e76616c6964206469737472696275746f72000000000000000000000000006000830152602082019050919050565b6000614a76601483615423565b91507f4261746368206e6f7420696e207472616e7369740000000000000000000000006000830152602082019050919050565b6000614ab6601c83615423565b91507f43616e6e6f742061737369676e20526567756c61746f7220726f6c65000000006000830152602082019050919050565b6000614af6601f83615423565b91507f4f6e6c7920726567756c61746f722063616e2061737369676e20726f6c6573006000830152602082019050919050565b6000614b36602a83615423565b91507f4d616e75666163747572696e6720646174652063616e6e6f7420626520696e2060008301527f74686520667574757265000000000000000000000000000000000000000000006020830152604082019050919050565b6000614b9c601e83615423565b91507f4e6f7420617574686f72697a656420666f72207468697320616374696f6e00006000830152602082019050919050565b6000614bdc602183615423565b91507f496e76616c6964206d616e75666163747572696e672f6578706972792064617460008301527f65000000000000000000000000000000000000000000000000000000000000006020830152604082019050919050565b606082016000820151614c4b6000850182614cfb565b506020820151614c5e6020850182614683565b506040820151614c716040850182614cfb565b50505050565b604082016000820151614c8d600085018261450f565b506020820151614ca06020850182614665565b50505050565b608082016000820151614cbc6000850182614665565b506020820151614ccf6020850182614647565b506040820151614ce26040850182614647565b506060820151614cf56060850182614647565b50505050565b614d04816154de565b82525050565b614d13816154de565b82525050565b6000602082019050614d2e600083018461451e565b92915050565b6000602082019050614d496000830184614500565b92915050565b60006020820190508181036000830152614d69818461452d565b905092915050565b60006020820190508181036000830152614d8b818461458b565b905092915050565b60006020820190508181036000830152614dad81846145e9565b905092915050565b6000604082019050614dca6000830185614656565b614dd760208301846146a1565b9392505050565b6000602082019050614df36000830184614674565b92915050565b6000608082019050614e0e6000830187614674565b614e1b6020830186614656565b614e286040830185614656565b614e356060830184614656565b95945050505050565b6000610100820190508181036000830152614e59818b6146b0565b9050614e68602083018a614d0a565b614e756040830189614d0a565b614e826060830188614d0a565b614e8f6080830187614692565b614e9c60a0830186614500565b614ea960c0830185614500565b614eb660e0830184614500565b9998505050505050505050565b60006020820190508181036000830152614edc816146e9565b9050919050565b60006020820190508181036000830152614efc81614729565b9050919050565b60006020820190508181036000830152614f1c81614769565b9050919050565b60006020820190508181036000830152614f3c816147a9565b9050919050565b60006020820190508181036000830152614f5c816147e9565b9050919050565b60006020820190508181036000830152614f7c81614829565b9050919050565b60006020820190508181036000830152614f9c81614869565b9050919050565b60006020820190508181036000830152614fbc816148a9565b9050919050565b60006020820190508181036000830152614fdc816148e9565b9050919050565b60006020820190508181036000830152614ffc81614929565b9050919050565b6000602082019050818103600083015261501c81614969565b9050919050565b6000602082019050818103600083015261503c816149a9565b9050919050565b6000602082019050818103600083015261505c816149e9565b9050919050565b6000602082019050818103600083015261507c81614a29565b9050919050565b6000602082019050818103600083015261509c81614a69565b9050919050565b600060208201905081810360008301526150bc81614aa9565b9050919050565b600060208201905081810360008301526150dc81614ae9565b9050919050565b600060208201905081810360008301526150fc81614b29565b9050919050565b6000602082019050818103600083015261511c81614b8f565b9050919050565b6000602082019050818103600083015261513c81614bcf565b9050919050565b60006080820190506151586000830184614ca6565b92915050565b60006020820190506151736000830184614d0a565b92915050565b600060408201905061518e6000830185614d0a565b61519b602083018461451e565b9392505050565b60006060820190506151b76000830186614d0a565b6151c460208301856144f1565b6151d16040830184614692565b949350505050565b600060c0820190506151ee6000830189614d0a565b818103602083015261520081886146b0565b905061520f6040830187614d0a565b61521c6060830186614d0a565b6152296080830185614d0a565b61523660a083018461451e565b979650505050505050565b600061012082019050615257600083018c614d0a565b8181036020830152615269818b6146b0565b9050615278604083018a614d0a565b6152856060830189614d0a565b6152926080830188614d0a565b61529f60a0830187614500565b6152ac60c0830186614500565b6152b960e0830185614500565b6152c7610100830184614692565b9a9950505050505050505050565b60006060820190506152ea6000830186614d0a565b6152f76020830185614d0a565b6153046040830184614d0a565b949350505050565b6000604051905081810181811067ffffffffffffffff821117156153335761533261569e565b5b8060405250919050565b600067ffffffffffffffff8211156153585761535761569e565b5b601f19601f8301169050602081019050919050565b6000819050602082019050919050565b6000819050602082019050919050565b6000819050602082019050919050565b600081519050919050565b600081519050919050565b600081519050919050565b600081519050919050565b6000602082019050919050565b6000602082019050919050565b6000602082019050919050565b600082825260208201905092915050565b600082825260208201905092915050565b600082825260208201905092915050565b600082825260208201905092915050565b600061543f826154de565b915061544a836154de565b92508282101561545d5761545c615611565b5b828203905092915050565b6000615473826154be565b9050919050565b6000615485826154be565b9050919050565b60008115159050919050565b60008190506154a6826156de565b919050565b60008190506154b9826156f2565b919050565b600073ffffffffffffffffffffffffffffffffffffffff82169050919050565b6000819050919050565b60006154f382615530565b9050919050565b600061550582615498565b9050919050565b6000615517826154ab565b9050919050565b6000615529826154de565b9050919050565b600061553b82615542565b9050919050565b600061554d826154be565b9050919050565b82818337600083830152505050565b60005b83811015615581578082015181840152602081019050615566565b83811115615590576000848401525b50505050565b600060028204905060018216806155ae57607f821691505b602082108114156155c2576155c161566f565b5b50919050565b60006155d3826154de565b91507fffffffffffffffffffffffffffffffffffffffffffffffffffffffffffffffff82141561560657615605615611565b5b600182019050919050565b7f4e487b7100000000000000000000000000000000000000000000000000000000600052601160045260246000fd5b7f4e487b7100000000000000000000000000000000000000000000000000000000600052602160045260246000fd5b7f4e487b7100000000000000000000000000000000000000000000000000000000600052602260045260246000fd5b7f4e487b7100000000000000000000000000000000000000000000000000000000600052604160045260246000fd5b6000601f19601f8301169050919050565b600581106156ef576156ee615640565b5b50565b6005811061570357615702615640565b5b50565b61570f81615468565b811461571a57600080fd5b50565b6157268161547a565b811461573157600080fd5b50565b6005811061574157600080fd5b50565b61574d816154de565b811461575857600080fd5b5056fea264697066735822122092793de5eb79d7a3c8964914e573c4e59a4d389fe9e661f3ac455c0877c017b764736f6c63430008000033",
  "immutableReferences": {},
  "source": "// SPDX-License-Identifier: MIT\r\npragma solidity ^0.8.0;\r\n\r\ncontract PharmaSupplyChain {\r\n    // Role Definitions\r\n    enum Role {\r\n        None,\r\n        Manufacturer,\r\n        Distributor,\r\n        HealthcareProvider,\r\n        Regulator\r\n    }\r\n    enum Status {\r\n        Created,\r\n        InTransit,\r\n        Delivered,\r\n        Verified,\r\n        Recalled\r\n    }\r\n\r\n    struct Batch {\r\n        uint batchID;\r\n        string drugName;\r\n        uint quantity;\r\n        uint manufacturingDate;\r\n        uint expiryDate;\r\n        address payable manufacturer;\r\n        address payable distributor;\r\n        address payable healthcareProvider;\r\n        Status status;\r\n    }\r\n\r\n    struct RoleRequest {\r\n        Role requestedRole;\r\n        bool exists;\r\n        bool approved;\r\n        bool processed;\r\n    }\r\n\r\n    struct PendingRequest {\r\n        address user;\r\n        Role requestedRole;\r\n    }\r\n\r\n    struct BatchSummary {\r\n        uint batchID;\r\n        Status status;\r\n        uint expiryDate;\r\n    }\r\n\r\n    // State Variables\r\n    address payable public regulator;\r\n    uint public nextBatchID;\r\n    mapping(address => Role) public userRoles;\r\n    mapping(uint => Batch) public batches;\r\n    mapping(address => RoleRequest) public roleRequests;\r\n    address[] public pendingRequests;\r\n    mapping(address => uint) private requestIndices;\r\n    mapping(uint => uint) public batchStatusTimestamps;\r\n    mapping(uint => address[]) public batchHistory;\r\n\r\n    // Events\r\n    event RoleAssigned(address indexed user, Role role);\r\n    event BatchCreated(\r\n        uint batchID,\r\n        string drugName,\r\n        uint quantity,\r\n        uint manufacturingDate,\r\n        uint expiryDate,\r\n        address manufacturer\r\n    );\r\n    event BatchTransferred(uint batchID, address to, Status status);\r\n    event BatchVerified(uint batchID, address healthcareProvider);\r\n    event BatchRecalled(uint batchID, address recalledBy);\r\n    event ExpirationAlert(\r\n        uint indexed batchID,\r\n        bool isExpired,\r\n        uint daysRemaining\r\n    );\r\n    event RoleRequested(address indexed user, Role requestedRole);\r\n    event RoleApproved(address indexed user, Role role);\r\n    event RoleDenied(address indexed user, Role role);\r\n\r\n    // Modifiers\r\n    modifier onlyRole(Role requiredRole) {\r\n        require(\r\n            userRoles[msg.sender] == requiredRole,\r\n            \"Not authorized for this action\"\r\n        );\r\n        _;\r\n    }\r\n\r\n    modifier onlyRegulator() {\r\n        require(msg.sender == regulator, \"Only regulator can assign roles\");\r\n        _;\r\n    }\r\n\r\n    modifier batchExists(uint batchID) {\r\n        require(batches[batchID].batchID == batchID, \"Batch does not exist\");\r\n        _;\r\n    }\r\n\r\n    modifier onlyBatchAuthorized(uint batchID) {\r\n        Batch memory batch = batches[batchID];\r\n        require(\r\n            msg.sender == regulator ||\r\n                msg.sender == batch.manufacturer ||\r\n                msg.sender == batch.healthcareProvider,\r\n            \"Not authorized for batch alerts\"\r\n        );\r\n        _;\r\n    }\r\n\r\n    // Constructor\r\n    constructor() {\r\n        regulator = payable(msg.sender);\r\n        userRoles[msg.sender] = Role.Regulator;\r\n        nextBatchID = 1;\r\n        emit RoleAssigned(msg.sender, Role.Regulator);\r\n    }\r\n\r\n    // Role Management Functions\r\n    function requestRole(Role requestedRole) public {\r\n        require(userRoles[msg.sender] == Role.None, \"Already has a role\");\r\n        require(\r\n            requestedRole != Role.Regulator,\r\n            \"Cannot request Regulator role\"\r\n        );\r\n        require(\r\n            !roleRequests[msg.sender].exists ||\r\n                roleRequests[msg.sender].processed,\r\n            \"Request already pending\"\r\n        );\r\n\r\n        roleRequests[msg.sender] = RoleRequest({\r\n            requestedRole: requestedRole,\r\n            exists: true,\r\n            approved: false,\r\n            processed: false\r\n        });\r\n\r\n        pendingRequests.push(msg.sender);\r\n        requestIndices[msg.sender] = pendingRequests.length - 1;\r\n        emit RoleRequested(msg.sender, requestedRole);\r\n    }\r\n\r\n    function approveRoleRequest(address user) public onlyRegulator {\r\n        require(roleRequests[user].exists, \"No request found\");\r\n        require(!roleRequests[user].processed, \"Request already processed\");\r\n        require(\r\n            roleRequests[user].requestedRole != Role.Regulator,\r\n            \"Cannot assign Regulator role\"\r\n        );\r\n\r\n        Role requestedRole = roleRequests[user].requestedRole;\r\n        userRoles[user] = requestedRole;\r\n        roleRequests[user].approved = true;\r\n        roleRequests[user].processed = true;\r\n\r\n        // Efficient removal using swap-and-pop\r\n        uint idx = requestIndices[user];\r\n        address last = pendingRequests[pendingRequests.length - 1];\r\n        pendingRequests[idx] = last;\r\n        requestIndices[last] = idx;\r\n        pendingRequests.pop();\r\n        delete requestIndices[user];\r\n\r\n        emit RoleApproved(user, requestedRole);\r\n        emit RoleAssigned(user, requestedRole);\r\n    }\r\n\r\n    function denyRoleRequest(address user) public onlyRegulator {\r\n        require(roleRequests[user].exists, \"No request found\");\r\n        require(!roleRequests[user].processed, \"Request already processed\");\r\n\r\n        roleRequests[user].processed = true;\r\n\r\n        // Efficient removal using swap-and-pop\r\n        uint idx = requestIndices[user];\r\n        address last = pendingRequests[pendingRequests.length - 1];\r\n        pendingRequests[idx] = last;\r\n        requestIndices[last] = idx;\r\n        pendingRequests.pop();\r\n        delete requestIndices[user];\r\n\r\n        emit RoleDenied(user, roleRequests[user].requestedRole);\r\n    }\r\n\r\n    // Batch Lifecycle Functions\r\n    function createBatch(\r\n        string memory drugName,\r\n        uint quantity,\r\n        uint manufacturingDate,\r\n        uint expiryDate\r\n    ) public onlyRole(Role.Manufacturer) {\r\n        require(bytes(drugName).length > 0, \"Drug name required\");\r\n        require(\r\n            manufacturingDate < expiryDate,\r\n            \"Invalid manufacturing/expiry date\"\r\n        );\r\n        require(\r\n            manufacturingDate <= block.timestamp,\r\n            \"Manufacturing date cannot be in the future\"\r\n        );\r\n\r\n        batches[nextBatchID] = Batch({\r\n            batchID: nextBatchID,\r\n            drugName: drugName,\r\n            quantity: quantity,\r\n            manufacturingDate: manufacturingDate,\r\n            expiryDate: expiryDate,\r\n            manufacturer: payable(msg.sender),\r\n            distributor: payable(address(0)),\r\n            healthcareProvider: payable(address(0)),\r\n            status: Status.Created\r\n        });\r\n\r\n        batchStatusTimestamps[nextBatchID] = block.timestamp;\r\n        batchHistory[nextBatchID].push(msg.sender);\r\n        emit BatchCreated(\r\n            nextBatchID,\r\n            drugName,\r\n            quantity,\r\n            manufacturingDate,\r\n            expiryDate,\r\n            msg.sender\r\n        );\r\n        nextBatchID++;\r\n    }\r\n\r\n    function transferToDistributor(\r\n        uint batchID,\r\n        address payable distributor\r\n    ) public onlyRole(Role.Manufacturer) batchExists(batchID) {\r\n        require(\r\n            userRoles[distributor] == Role.Distributor,\r\n            \"Invalid distributor\"\r\n        );\r\n        require(\r\n            batches[batchID].status == Status.Created,\r\n            \"Batch not ready for transfer\"\r\n        );\r\n        require(batches[batchID].expiryDate > block.timestamp, \"Batch expired\");\r\n\r\n        batches[batchID].distributor = distributor;\r\n        batches[batchID].status = Status.InTransit;\r\n        batchStatusTimestamps[batchID] = block.timestamp;\r\n        batchHistory[batchID].push(msg.sender);\r\n        batchHistory[batchID].push(distributor);\r\n        emit BatchTransferred(batchID, distributor, Status.InTransit);\r\n    }\r\n\r\n    function transferToHealthcare(\r\n        uint batchID,\r\n        address payable healthcareProvider\r\n    ) public onlyRole(Role.Distributor) batchExists(batchID) {\r\n        require(\r\n            userRoles[healthcareProvider] == Role.HealthcareProvider,\r\n            \"Invalid provider\"\r\n        );\r\n        require(\r\n            batches[batchID].status == Status.InTransit,\r\n            \"Batch not in transit\"\r\n        );\r\n        require(batches[batchID].expiryDate > block.timestamp, \"Batch expired\");\r\n\r\n        batches[batchID].healthcareProvider = healthcareProvider;\r\n        batches[batchID].status = Status.Delivered;\r\n        batchStatusTimestamps[batchID] = block.timestamp;\r\n        batchHistory[batchID].push(msg.sender);\r\n        batchHistory[batchID].push(healthcareProvider);\r\n        emit BatchTransferred(batchID, healthcareProvider, Status.Delivered);\r\n    }\r\n\r\n    function verifyBatch(\r\n        uint batchID\r\n    ) public onlyRole(Role.HealthcareProvider) batchExists(batchID) {\r\n        require(\r\n            batches[batchID].status == Status.Delivered,\r\n            \"Batch not delivered yet\"\r\n        );\r\n        require(batches[batchID].expiryDate > block.timestamp, \"Batch expired\");\r\n\r\n        batches[batchID].status = Status.Verified;\r\n        batchStatusTimestamps[batchID] = block.timestamp;\r\n        batchHistory[batchID].push(msg.sender);\r\n        emit BatchVerified(batchID, msg.sender);\r\n    }\r\n\r\n    function recallBatch(uint batchID) public batchExists(batchID) {\r\n        require(batches[batchID].status != Status.Recalled, \"Already Recalled\");\r\n        require(\r\n            msg.sender == regulator ||\r\n                (msg.sender == batches[batchID].manufacturer &&\r\n                    batches[batchID].status != Status.Verified) ||\r\n                (msg.sender == batches[batchID].healthcareProvider &&\r\n                    batches[batchID].status == Status.Delivered),\r\n            \"Not authorized to recall\"\r\n        );\r\n\r\n        batches[batchID].status = Status.Recalled;\r\n        batchStatusTimestamps[batchID] = block.timestamp;\r\n        batchHistory[batchID].push(msg.sender);\r\n        emit BatchRecalled(batchID, msg.sender);\r\n        emit ExpirationAlert(batchID, false, 0);\r\n    }\r\n\r\n    // View Functions\r\n    function getBatchDetails(\r\n        uint batchID\r\n    )\r\n        public\r\n        view\r\n        batchExists(batchID)\r\n        returns (\r\n            string memory drugName,\r\n            uint quantity,\r\n            uint manufacturingDate,\r\n            uint expiryDate,\r\n            Status status,\r\n            address payable manufacturer,\r\n            address payable distributor,\r\n            address payable healthcareProvider\r\n        )\r\n    {\r\n        Batch memory batch = batches[batchID];\r\n        return (\r\n            batch.drugName,\r\n            batch.quantity,\r\n            batch.manufacturingDate,\r\n            batch.expiryDate,\r\n            batch.status,\r\n            batch.manufacturer,\r\n            batch.distributor,\r\n            batch.healthcareProvider\r\n        );\r\n    }\r\n\r\n    // function checkExpirationAlert(\r\n    //     uint batchID\r\n    // )\r\n    //     public\r\n    //     view\r\n    //     batchExists(batchID)\r\n    //     onlyBatchAuthorized(batchID)\r\n    //     returns (\r\n    //         bool isExpired,\r\n    //         uint daysRemaining,\r\n    //         bool needsAttention,\r\n    //         bool isRecalled\r\n    //     )\r\n    // {\r\n    //     Batch memory batch = batches[batchID];\r\n    //     isRecalled = (batch.status == Status.Recalled);\r\n\r\n    //     if (isRecalled) {\r\n    //         return (false, 0, false, true);\r\n    //     }\r\n\r\n    //     isExpired = (batch.expiryDate <= block.timestamp);\r\n    //     uint secondsRemaining = batch.expiryDate > block.timestamp\r\n    //         ? batch.expiryDate - block.timestamp\r\n    //         : 0;\r\n\r\n    //     daysRemaining = secondsRemaining / 1 days;\r\n    //     needsAttention = isExpired || daysRemaining <= 7;\r\n\r\n    //     return (isExpired, daysRemaining, needsAttention, false);\r\n    // }\r\n\r\n    function getRequestStatus(\r\n        address user\r\n    ) public view returns (RoleRequest memory) {\r\n        return roleRequests[user];\r\n    }\r\n\r\n    function getPendingRequestsWithRoles()\r\n        public\r\n        view\r\n        onlyRegulator\r\n        returns (PendingRequest[] memory)\r\n    {\r\n        PendingRequest[] memory requests = new PendingRequest[](\r\n            pendingRequests.length\r\n        );\r\n\r\n        for (uint i = 0; i < pendingRequests.length; i++) {\r\n            address user = pendingRequests[i];\r\n            requests[i] = PendingRequest({\r\n                user: user,\r\n                requestedRole: roleRequests[user].requestedRole\r\n            });\r\n        }\r\n\r\n        return requests;\r\n    }\r\n\r\n    // View Ownership Transfer History\r\n    function getBatchHistory(\r\n        uint batchID\r\n    ) public view batchExists(batchID) returns (address[] memory) {\r\n        return batchHistory[batchID];\r\n    }\r\n\r\n    function getAllBatchesWithStatus()\r\n        public\r\n        view\r\n        returns (BatchSummary[] memory)\r\n    {\r\n        uint totalBatches = nextBatchID - 1;\r\n        BatchSummary[] memory summaries = new BatchSummary[](totalBatches);\r\n\r\n        for (uint i = 1; i <= totalBatches; i++) {\r\n            summaries[i - 1] = BatchSummary({\r\n                batchID: i,\r\n                status: batches[i].status,\r\n                expiryDate: batches[i].expiryDate\r\n            });\r\n        }\r\n\r\n        return summaries;\r\n    }\r\n\r\n    function getBatchStatusCounts()\r\n        public\r\n        view\r\n        returns (uint active, uint recalled, uint inTransit)\r\n    {\r\n        uint totalBatches = nextBatchID - 1;\r\n        active = 0;\r\n        recalled = 0;\r\n        inTransit = 0;\r\n\r\n        for (uint i = 1; i <= totalBatches; i++) {\r\n            Status status = batches[i].status;\r\n\r\n            if (\r\n                status == Status.Verified ||\r\n                status == Status.Delivered ||\r\n                status == Status.Created\r\n            ) {\r\n                active++;\r\n            } else if (status == Status.Recalled) {\r\n                recalled++;\r\n            } else if (status == Status.InTransit) {\r\n                inTransit++;\r\n            }\r\n        }\r\n\r\n        return (active, recalled, inTransit);\r\n    }\r\n\r\n    function getRecalledBatches() public view returns (BatchSummary[] memory) {\r\n        uint totalBatches = nextBatchID - 1;\r\n        uint count = 0;\r\n\r\n        for (uint i = 1; i <= totalBatches; i++) {\r\n            if (batches[i].status == Status.Recalled) {\r\n                count++;\r\n            }\r\n        }\r\n\r\n        BatchSummary[] memory recalledBatches = new BatchSummary[](count);\r\n        uint index = 0;\r\n\r\n        for (uint i = 1; i <= totalBatches; i++) {\r\n            if (batches[i].status == Status.Recalled) {\r\n                recalledBatches[index] = BatchSummary({\r\n                    batchID: i,\r\n                    status: batches[i].status,\r\n                    expiryDate: batches[i].expiryDate\r\n                });\r\n                index++;\r\n            }\r\n        }\r\n\r\n        return recalledBatches;\r\n    }\r\n}",
  "sourcePath": "C:\\Users\\Monalisha\\Desktop\\pharma-supply-chain\\contracts\\pharmaSupplyChain.sol",
  "compiler": {
    "name": "solc",
    "version": "0.8.0+commit.c7dfd78e.Emscripten.clang"
  },
  "schemaVersion": "3.4.16",
  "updatedAt": "2025-04-17T03:34:18.903Z",
  "networkType": "ethereum",
  "devdoc": {
    "kind": "dev",
    "methods": {},
    "version": 1
  },
  "userdoc": {
    "kind": "user",
    "methods": {},
    "version": 1
  }
}