{
  "contractName": "PharmaSupplyChain",
  "abi": [
    {
      "inputs": [],
      "stateMutability": "nonpayable",
      "type": "constructor"
    },
    {
      "anonymous": false,
      "inputs": [
        {
          "indexed": false,
          "internalType": "uint256",
          "name": "batchID",
          "type": "uint256"
        },
        {
          "indexed": false,
          "internalType": "string",
          "name": "drugName",
          "type": "string"
        },
        {
          "indexed": false,
          "internalType": "uint256",
          "name": "quantity",
          "type": "uint256"
        },
        {
          "indexed": false,
          "internalType": "uint256",
          "name": "manufacturingDate",
          "type": "uint256"
        },
        {
          "indexed": false,
          "internalType": "uint256",
          "name": "expiryDate",
          "type": "uint256"
        },
        {
          "indexed": false,
          "internalType": "address",
          "name": "manufacturer",
          "type": "address"
        }
      ],
      "name": "BatchCreated",
      "type": "event"
    },
    {
      "anonymous": false,
      "inputs": [
        {
          "indexed": false,
          "internalType": "uint256",
          "name": "batchID",
          "type": "uint256"
        },
        {
          "indexed": false,
          "internalType": "address",
          "name": "recalledBy",
          "type": "address"
        }
      ],
      "name": "BatchRecalled",
      "type": "event"
    },
    {
      "anonymous": false,
      "inputs": [
        {
          "indexed": false,
          "internalType": "uint256",
          "name": "batchID",
          "type": "uint256"
        },
        {
          "indexed": false,
          "internalType": "address",
          "name": "to",
          "type": "address"
        },
        {
          "indexed": false,
          "internalType": "enum PharmaSupplyChain.Status",
          "name": "status",
          "type": "uint8"
        }
      ],
      "name": "BatchTransferred",
      "type": "event"
    },
    {
      "anonymous": false,
      "inputs": [
        {
          "indexed": false,
          "internalType": "uint256",
          "name": "batchID",
          "type": "uint256"
        },
        {
          "indexed": false,
          "internalType": "address",
          "name": "healthcareProvider",
          "type": "address"
        }
      ],
      "name": "BatchVerified",
      "type": "event"
    },
    {
      "anonymous": false,
      "inputs": [
        {
          "indexed": true,
          "internalType": "uint256",
          "name": "batchID",
          "type": "uint256"
        },
        {
          "indexed": false,
          "internalType": "bool",
          "name": "isExpired",
          "type": "bool"
        },
        {
          "indexed": false,
          "internalType": "uint256",
          "name": "daysRemaining",
          "type": "uint256"
        }
      ],
      "name": "ExpirationAlert",
      "type": "event"
    },
    {
      "anonymous": false,
      "inputs": [
        {
          "indexed": true,
          "internalType": "address",
          "name": "user",
          "type": "address"
        },
        {
          "indexed": false,
          "internalType": "enum PharmaSupplyChain.Role",
          "name": "role",
          "type": "uint8"
        }
      ],
      "name": "RoleApproved",
      "type": "event"
    },
    {
      "anonymous": false,
      "inputs": [
        {
          "indexed": true,
          "internalType": "address",
          "name": "user",
          "type": "address"
        },
        {
          "indexed": false,
          "internalType": "enum PharmaSupplyChain.Role",
          "name": "role",
          "type": "uint8"
        }
      ],
      "name": "RoleAssigned",
      "type": "event"
    },
    {
      "anonymous": false,
      "inputs": [
        {
          "indexed": true,
          "internalType": "address",
          "name": "user",
          "type": "address"
        },
        {
          "indexed": false,
          "internalType": "enum PharmaSupplyChain.Role",
          "name": "role",
          "type": "uint8"
        }
      ],
      "name": "RoleDenied",
      "type": "event"
    },
    {
      "anonymous": false,
      "inputs": [
        {
          "indexed": true,
          "internalType": "address",
          "name": "user",
          "type": "address"
        },
        {
          "indexed": false,
          "internalType": "enum PharmaSupplyChain.Role",
          "name": "requestedRole",
          "type": "uint8"
        }
      ],
      "name": "RoleRequested",
      "type": "event"
    },
    {
      "inputs": [
        {
          "internalType": "uint256",
          "name": "",
          "type": "uint256"
        },
        {
          "internalType": "uint256",
          "name": "",
          "type": "uint256"
        }
      ],
      "name": "batchHistory",
      "outputs": [
        {
          "internalType": "address",
          "name": "",
          "type": "address"
        }
      ],
      "stateMutability": "view",
      "type": "function",
      "constant": true
    },
    {
      "inputs": [
        {
          "internalType": "uint256",
          "name": "",
          "type": "uint256"
        }
      ],
      "name": "batchStatusTimestamps",
      "outputs": [
        {
          "internalType": "uint256",
          "name": "",
          "type": "uint256"
        }
      ],
      "stateMutability": "view",
      "type": "function",
      "constant": true
    },
    {
      "inputs": [
        {
          "internalType": "uint256",
          "name": "",
          "type": "uint256"
        }
      ],
      "name": "batches",
      "outputs": [
        {
          "internalType": "uint256",
          "name": "batchID",
          "type": "uint256"
        },
        {
          "internalType": "string",
          "name": "drugName",
          "type": "string"
        },
        {
          "internalType": "uint256",
          "name": "quantity",
          "type": "uint256"
        },
        {
          "internalType": "uint256",
          "name": "manufacturingDate",
          "type": "uint256"
        },
        {
          "internalType": "uint256",
          "name": "expiryDate",
          "type": "uint256"
        },
        {
          "internalType": "address payable",
          "name": "manufacturer",
          "type": "address"
        },
        {
          "internalType": "address payable",
          "name": "distributor",
          "type": "address"
        },
        {
          "internalType": "address payable",
          "name": "healthcareProvider",
          "type": "address"
        },
        {
          "internalType": "enum PharmaSupplyChain.Status",
          "name": "status",
          "type": "uint8"
        }
      ],
      "stateMutability": "view",
      "type": "function",
      "constant": true
    },
    {
      "inputs": [],
      "name": "nextBatchID",
      "outputs": [
        {
          "internalType": "uint256",
          "name": "",
          "type": "uint256"
        }
      ],
      "stateMutability": "view",
      "type": "function",
      "constant": true
    },
    {
      "inputs": [
        {
          "internalType": "uint256",
          "name": "",
          "type": "uint256"
        }
      ],
      "name": "pendingRequests",
      "outputs": [
        {
          "internalType": "address",
          "name": "",
          "type": "address"
        }
      ],
      "stateMutability": "view",
      "type": "function",
      "constant": true
    },
    {
      "inputs": [],
      "name": "regulator",
      "outputs": [
        {
          "internalType": "address payable",
          "name": "",
          "type": "address"
        }
      ],
      "stateMutability": "view",
      "type": "function",
      "constant": true
    },
    {
      "inputs": [
        {
          "internalType": "address",
          "name": "",
          "type": "address"
        }
      ],
      "name": "roleRequests",
      "outputs": [
        {
          "internalType": "enum PharmaSupplyChain.Role",
          "name": "requestedRole",
          "type": "uint8"
        },
        {
          "internalType": "bool",
          "name": "exists",
          "type": "bool"
        },
        {
          "internalType": "bool",
          "name": "approved",
          "type": "bool"
        },
        {
          "internalType": "bool",
          "name": "processed",
          "type": "bool"
        }
      ],
      "stateMutability": "view",
      "type": "function",
      "constant": true
    },
    {
      "inputs": [
        {
          "internalType": "address",
          "name": "",
          "type": "address"
        }
      ],
      "name": "userRoles",
      "outputs": [
        {
          "internalType": "enum PharmaSupplyChain.Role",
          "name": "",
          "type": "uint8"
        }
      ],
      "stateMutability": "view",
      "type": "function",
      "constant": true
    },
    {
      "inputs": [
        {
          "internalType": "enum PharmaSupplyChain.Role",
          "name": "requestedRole",
          "type": "uint8"
        }
      ],
      "name": "requestRole",
      "outputs": [],
      "stateMutability": "nonpayable",
      "type": "function"
    },
    {
      "inputs": [
        {
          "internalType": "address",
          "name": "user",
          "type": "address"
        }
      ],
      "name": "approveRoleRequest",
      "outputs": [],
      "stateMutability": "nonpayable",
      "type": "function"
    },
    {
      "inputs": [
        {
          "internalType": "address",
          "name": "user",
          "type": "address"
        }
      ],
      "name": "denyRoleRequest",
      "outputs": [],
      "stateMutability": "nonpayable",
      "type": "function"
    },
    {
      "inputs": [
        {
          "internalType": "string",
          "name": "drugName",
          "type": "string"
        },
        {
          "internalType": "uint256",
          "name": "quantity",
          "type": "uint256"
        },
        {
          "internalType": "uint256",
          "name": "manufacturingDate",
          "type": "uint256"
        },
        {
          "internalType": "uint256",
          "name": "expiryDate",
          "type": "uint256"
        }
      ],
      "name": "createBatch",
      "outputs": [],
      "stateMutability": "nonpayable",
      "type": "function"
    },
    {
      "inputs": [
        {
          "internalType": "uint256",
          "name": "batchID",
          "type": "uint256"
        },
        {
          "internalType": "address payable",
          "name": "distributor",
          "type": "address"
        }
      ],
      "name": "transferToDistributor",
      "outputs": [],
      "stateMutability": "nonpayable",
      "type": "function"
    },
    {
      "inputs": [
        {
          "internalType": "uint256",
          "name": "batchID",
          "type": "uint256"
        },
        {
          "internalType": "address payable",
          "name": "healthcareProvider",
          "type": "address"
        }
      ],
      "name": "transferToHealthcare",
      "outputs": [],
      "stateMutability": "nonpayable",
      "type": "function"
    },
    {
      "inputs": [
        {
          "internalType": "uint256",
          "name": "batchID",
          "type": "uint256"
        }
      ],
      "name": "verifyBatch",
      "outputs": [],
      "stateMutability": "nonpayable",
      "type": "function"
    },
    {
      "inputs": [
        {
          "internalType": "uint256",
          "name": "batchID",
          "type": "uint256"
        }
      ],
      "name": "recallBatch",
      "outputs": [],
      "stateMutability": "nonpayable",
      "type": "function"
    },
    {
      "inputs": [
        {
          "internalType": "uint256",
          "name": "batchID",
          "type": "uint256"
        }
      ],
      "name": "getBatchDetails",
      "outputs": [
        {
          "internalType": "string",
          "name": "drugName",
          "type": "string"
        },
        {
          "internalType": "uint256",
          "name": "quantity",
          "type": "uint256"
        },
        {
          "internalType": "uint256",
          "name": "manufacturingDate",
          "type": "uint256"
        },
        {
          "internalType": "uint256",
          "name": "expiryDate",
          "type": "uint256"
        },
        {
          "internalType": "enum PharmaSupplyChain.Status",
          "name": "status",
          "type": "uint8"
        },
        {
          "internalType": "address payable",
          "name": "manufacturer",
          "type": "address"
        },
        {
          "internalType": "address payable",
          "name": "distributor",
          "type": "address"
        },
        {
          "internalType": "address payable",
          "name": "healthcareProvider",
          "type": "address"
        }
      ],
      "stateMutability": "view",
      "type": "function",
      "constant": true
    },
    {
      "inputs": [
        {
          "internalType": "uint256",
          "name": "batchID",
          "type": "uint256"
        }
      ],
      "name": "checkExpirationAlert",
      "outputs": [
        {
          "internalType": "bool",
          "name": "isExpired",
          "type": "bool"
        },
        {
          "internalType": "uint256",
          "name": "daysRemaining",
          "type": "uint256"
        },
        {
          "internalType": "bool",
          "name": "needsAttention",
          "type": "bool"
        },
        {
          "internalType": "bool",
          "name": "isRecalled",
          "type": "bool"
        }
      ],
      "stateMutability": "view",
      "type": "function",
      "constant": true
    },
    {
      "inputs": [],
      "name": "getPendingRequests",
      "outputs": [
        {
          "internalType": "address[]",
          "name": "",
          "type": "address[]"
        }
      ],
      "stateMutability": "view",
      "type": "function",
      "constant": true
    },
    {
      "inputs": [
        {
          "internalType": "address",
          "name": "user",
          "type": "address"
        }
      ],
      "name": "getRequestStatus",
      "outputs": [
        {
          "components": [
            {
              "internalType": "enum PharmaSupplyChain.Role",
              "name": "requestedRole",
              "type": "uint8"
            },
            {
              "internalType": "bool",
              "name": "exists",
              "type": "bool"
            },
            {
              "internalType": "bool",
              "name": "approved",
              "type": "bool"
            },
            {
              "internalType": "bool",
              "name": "processed",
              "type": "bool"
            }
          ],
          "internalType": "struct PharmaSupplyChain.RoleRequest",
          "name": "",
          "type": "tuple"
        }
      ],
      "stateMutability": "view",
      "type": "function",
      "constant": true
    },
    {
      "inputs": [
        {
          "internalType": "uint256",
          "name": "batchID",
          "type": "uint256"
        }
      ],
      "name": "getBatchHistory",
      "outputs": [
        {
          "internalType": "address[]",
          "name": "",
          "type": "address[]"
        }
      ],
      "stateMutability": "view",
      "type": "function",
      "constant": true
    }
  ],
  "bytecode": "0x60806040523480156200001157600080fd5b50336000806101000a81548173ffffffffffffffffffffffffffffffffffffffff021916908373ffffffffffffffffffffffffffffffffffffffff1602179055506004600260003373ffffffffffffffffffffffffffffffffffffffff1673ffffffffffffffffffffffffffffffffffffffff16815260200190815260200160002060006101000a81548160ff02191690836004811115620000dc577f4e487b7100000000000000000000000000000000000000000000000000000000600052602160045260246000fd5b0217905550600180819055503373ffffffffffffffffffffffffffffffffffffffff167f4ac36fa53f167ceb85964be512e01de2a3b8bdb9862f917da079deeeff689b38600460405162000131919062000150565b60405180910390a2620001dc565b6200014a8162000182565b82525050565b60006020820190506200016760008301846200013f565b92915050565b60008190506200017d82620001c5565b919050565b60006200018f826200016d565b9050919050565b7f4e487b7100000000000000000000000000000000000000000000000000000000600052602160045260246000fd5b60058110620001d957620001d862000196565b5b50565b61533280620001ec6000396000f3fe608060405234801561001057600080fd5b50600436106101375760003560e01c80639d47dcc0116100b8578063c7a8ccb11161007c578063c7a8ccb114610382578063d1061fef146103b2578063dd8fee14146103e5578063dfe3a3ae14610403578063e229f2cb1461041f578063f98fe6281461043b57610137565b80639d47dcc0146102bd578063a1c1743b146102f4578063a6e162b414610310578063a72598ce1461032c578063b32c4d8d1461034a57610137565b806379fa48b6116100ff57806379fa48b6146102045780637e2933b01461022057806380a1f7121461023c5780639000cb961461025a57806394a09bc51461028a57610137565b80631896d2981461013c5780633126b965146101585780633c652a9a146101885780634b41b679146101b857806374d5e100146101d4575b600080fd5b61015660048036038101906101519190614068565b61046b565b005b610172600480360381019061016d919061410c565b610967565b60405161017f9190614d48565b60405180910390f35b6101a2600480360381019061019d919061410c565b61097f565b6040516101af91906148e2565b60405180910390f35b6101d260048036038101906101cd919061403f565b6109be565b005b6101ee60048036038101906101e9919061403f565b6110db565b6040516101fb91906149a8565b60405180910390f35b61021e6004803603810190610219919061403f565b6110fb565b005b61023a60048036038101906102359190614135565b6115da565b005b610244611b5c565b6040516102519190614918565b60405180910390f35b610274600480360381019061026f9190614171565b611c78565b60405161028191906148e2565b60405180910390f35b6102a4600480360381019061029f919061410c565b611cc6565b6040516102b49493929190614963565b60405180910390f35b6102d760048036038101906102d2919061410c565b6123f4565b6040516102eb989796959493929190614a08565b60405180910390f35b61030e60048036038101906103099190614091565b612706565b005b61032a6004803603810190610325919061410c565b612c09565b005b610334613146565b6040516103419190614d48565b60405180910390f35b610364600480360381019061035f919061410c565b61314c565b60405161037999989796959493929190614e2b565b60405180910390f35b61039c6004803603810190610397919061410c565b61328f565b6040516103a99190614918565b60405180910390f35b6103cc60048036038101906103c7919061403f565b61338a565b6040516103dc94939291906149c3565b60405180910390f35b6103ed6133ee565b6040516103fa91906148fd565b60405180910390f35b61041d6004803603810190610418919061410c565b613412565b005b61043960048036038101906104349190614135565b6137c7565b005b6104556004803603810190610450919061403f565b613d49565b6040516104629190614d2d565b60405180910390f35b600060048111156104a5577f4e487b7100000000000000000000000000000000000000000000000000000000600052602160045260246000fd5b600260003373ffffffffffffffffffffffffffffffffffffffff1673ffffffffffffffffffffffffffffffffffffffff16815260200190815260200160002060009054906101000a900460ff16600481111561052a577f4e487b7100000000000000000000000000000000000000000000000000000000600052602160045260246000fd5b1461056a576040517f08c379a000000000000000000000000000000000000000000000000000000000815260040161056190614acd565b60405180910390fd5b6004808111156105a3577f4e487b7100000000000000000000000000000000000000000000000000000000600052602160045260246000fd5b8160048111156105dc577f4e487b7100000000000000000000000000000000000000000000000000000000600052602160045260246000fd5b141561061d576040517f08c379a000000000000000000000000000000000000000000000000000000000815260040161061490614bcd565b60405180910390fd5b600460003373ffffffffffffffffffffffffffffffffffffffff1673ffffffffffffffffffffffffffffffffffffffff16815260200190815260200160002060000160019054906101000a900460ff1615806106c55750600460003373ffffffffffffffffffffffffffffffffffffffff1673ffffffffffffffffffffffffffffffffffffffff16815260200190815260200160002060000160039054906101000a900460ff165b610704576040517f08c379a00000000000000000000000000000000000000000000000000000000081526004016106fb90614c0d565b60405180910390fd5b6040518060800160405280826004811115610748577f4e487b7100000000000000000000000000000000000000000000000000000000600052602160045260246000fd5b815260200160011515815260200160001515815260200160001515815250600460003373ffffffffffffffffffffffffffffffffffffffff1673ffffffffffffffffffffffffffffffffffffffff16815260200190815260200160002060008201518160000160006101000a81548160ff021916908360048111156107f6577f4e487b7100000000000000000000000000000000000000000000000000000000600052602160045260246000fd5b021790555060208201518160000160016101000a81548160ff02191690831515021790555060408201518160000160026101000a81548160ff02191690831515021790555060608201518160000160036101000a81548160ff0219169083151502179055509050506005339080600181540180825580915050600190039060005260206000200160009091909190916101000a81548173ffffffffffffffffffffffffffffffffffffffff021916908373ffffffffffffffffffffffffffffffffffffffff16021790555060016005805490506108d39190614fa6565b600660003373ffffffffffffffffffffffffffffffffffffffff1673ffffffffffffffffffffffffffffffffffffffff168152602001908152602001600020819055503373ffffffffffffffffffffffffffffffffffffffff167ff895b94cb55ee9f608ecb65ff13cf68962fd45bdfcfb5a3eaafcaa1571571e028260405161095c91906149a8565b60405180910390a250565b60076020528060005260406000206000915090505481565b6005818154811061098f57600080fd5b906000526020600020016000915054906101000a900473ffffffffffffffffffffffffffffffffffffffff1681565b60008054906101000a900473ffffffffffffffffffffffffffffffffffffffff1673ffffffffffffffffffffffffffffffffffffffff163373ffffffffffffffffffffffffffffffffffffffff1614610a4c576040517f08c379a0000000000000000000000000000000000000000000000000000000008152600401610a4390614cad565b60405180910390fd5b600460008273ffffffffffffffffffffffffffffffffffffffff1673ffffffffffffffffffffffffffffffffffffffff16815260200190815260200160002060000160019054906101000a900460ff16610adb576040517f08c379a0000000000000000000000000000000000000000000000000000000008152600401610ad290614c2d565b60405180910390fd5b600460008273ffffffffffffffffffffffffffffffffffffffff1673ffffffffffffffffffffffffffffffffffffffff16815260200190815260200160002060000160039054906101000a900460ff1615610b6b576040517f08c379a0000000000000000000000000000000000000000000000000000000008152600401610b6290614b4d565b60405180910390fd5b600480811115610ba4577f4e487b7100000000000000000000000000000000000000000000000000000000600052602160045260246000fd5b600460008373ffffffffffffffffffffffffffffffffffffffff1673ffffffffffffffffffffffffffffffffffffffff16815260200190815260200160002060000160009054906101000a900460ff166004811115610c2c577f4e487b7100000000000000000000000000000000000000000000000000000000600052602160045260246000fd5b1415610c6d576040517f08c379a0000000000000000000000000000000000000000000000000000000008152600401610c6490614c8d565b60405180910390fd5b6000600460008373ffffffffffffffffffffffffffffffffffffffff1673ffffffffffffffffffffffffffffffffffffffff16815260200190815260200160002060000160009054906101000a900460ff16905080600260008473ffffffffffffffffffffffffffffffffffffffff1673ffffffffffffffffffffffffffffffffffffffff16815260200190815260200160002060006101000a81548160ff02191690836004811115610d49577f4e487b7100000000000000000000000000000000000000000000000000000000600052602160045260246000fd5b02179055506001600460008473ffffffffffffffffffffffffffffffffffffffff1673ffffffffffffffffffffffffffffffffffffffff16815260200190815260200160002060000160026101000a81548160ff0219169083151502179055506001600460008473ffffffffffffffffffffffffffffffffffffffff1673ffffffffffffffffffffffffffffffffffffffff16815260200190815260200160002060000160036101000a81548160ff0219169083151502179055506000600660008473ffffffffffffffffffffffffffffffffffffffff1673ffffffffffffffffffffffffffffffffffffffff168152602001908152602001600020549050600060056001600580549050610e5e9190614fa6565b81548110610e95577f4e487b7100000000000000000000000000000000000000000000000000000000600052603260045260246000fd5b9060005260206000200160009054906101000a900473ffffffffffffffffffffffffffffffffffffffff1690508060058381548110610efd577f4e487b7100000000000000000000000000000000000000000000000000000000600052603260045260246000fd5b9060005260206000200160006101000a81548173ffffffffffffffffffffffffffffffffffffffff021916908373ffffffffffffffffffffffffffffffffffffffff16021790555081600660008373ffffffffffffffffffffffffffffffffffffffff1673ffffffffffffffffffffffffffffffffffffffff168152602001908152602001600020819055506005805480610fc1577f4e487b7100000000000000000000000000000000000000000000000000000000600052603160045260246000fd5b6001900381819060005260206000200160006101000a81549073ffffffffffffffffffffffffffffffffffffffff02191690559055600660008573ffffffffffffffffffffffffffffffffffffffff1673ffffffffffffffffffffffffffffffffffffffff168152602001908152602001600020600090558373ffffffffffffffffffffffffffffffffffffffff167f042f52f18ca9258767cef802b6283a39f6c1053fbd02bee367edc363da679f868460405161107f91906149a8565b60405180910390a28373ffffffffffffffffffffffffffffffffffffffff167f4ac36fa53f167ceb85964be512e01de2a3b8bdb9862f917da079deeeff689b38846040516110cd91906149a8565b60405180910390a250505050565b60026020528060005260406000206000915054906101000a900460ff1681565b60008054906101000a900473ffffffffffffffffffffffffffffffffffffffff1673ffffffffffffffffffffffffffffffffffffffff163373ffffffffffffffffffffffffffffffffffffffff1614611189576040517f08c379a000000000000000000000000000000000000000000000000000000000815260040161118090614cad565b60405180910390fd5b600460008273ffffffffffffffffffffffffffffffffffffffff1673ffffffffffffffffffffffffffffffffffffffff16815260200190815260200160002060000160019054906101000a900460ff16611218576040517f08c379a000000000000000000000000000000000000000000000000000000000815260040161120f90614c2d565b60405180910390fd5b600460008273ffffffffffffffffffffffffffffffffffffffff1673ffffffffffffffffffffffffffffffffffffffff16815260200190815260200160002060000160039054906101000a900460ff16156112a8576040517f08c379a000000000000000000000000000000000000000000000000000000000815260040161129f90614b4d565b60405180910390fd5b6001600460008373ffffffffffffffffffffffffffffffffffffffff1673ffffffffffffffffffffffffffffffffffffffff16815260200190815260200160002060000160036101000a81548160ff0219169083151502179055506000600660008373ffffffffffffffffffffffffffffffffffffffff1673ffffffffffffffffffffffffffffffffffffffff16815260200190815260200160002054905060006005600160058054905061135d9190614fa6565b81548110611394577f4e487b7100000000000000000000000000000000000000000000000000000000600052603260045260246000fd5b9060005260206000200160009054906101000a900473ffffffffffffffffffffffffffffffffffffffff16905080600583815481106113fc577f4e487b7100000000000000000000000000000000000000000000000000000000600052603260045260246000fd5b9060005260206000200160006101000a81548173ffffffffffffffffffffffffffffffffffffffff021916908373ffffffffffffffffffffffffffffffffffffffff16021790555081600660008373ffffffffffffffffffffffffffffffffffffffff1673ffffffffffffffffffffffffffffffffffffffff1681526020019081526020016000208190555060058054806114c0577f4e487b7100000000000000000000000000000000000000000000000000000000600052603160045260246000fd5b6001900381819060005260206000200160006101000a81549073ffffffffffffffffffffffffffffffffffffffff02191690559055600660008473ffffffffffffffffffffffffffffffffffffffff1673ffffffffffffffffffffffffffffffffffffffff168152602001908152602001600020600090558273ffffffffffffffffffffffffffffffffffffffff167fa1207d3124c17356cdedc2646d94f345e7c937ffc4aab39b4f804c1f66bd8a0e600460008673ffffffffffffffffffffffffffffffffffffffff1673ffffffffffffffffffffffffffffffffffffffff16815260200190815260200160002060000160009054906101000a900460ff166040516115cd91906149a8565b60405180910390a2505050565b6002806004811115611615577f4e487b7100000000000000000000000000000000000000000000000000000000600052602160045260246000fd5b600260003373ffffffffffffffffffffffffffffffffffffffff1673ffffffffffffffffffffffffffffffffffffffff16815260200190815260200160002060009054906101000a900460ff16600481111561169a577f4e487b7100000000000000000000000000000000000000000000000000000000600052602160045260246000fd5b146116da576040517f08c379a00000000000000000000000000000000000000000000000000000000081526004016116d190614ced565b60405180910390fd5b8280600360008381526020019081526020016000206000015414611733576040517f08c379a000000000000000000000000000000000000000000000000000000000815260040161172a90614aed565b60405180910390fd5b6003600481111561176d577f4e487b7100000000000000000000000000000000000000000000000000000000600052602160045260246000fd5b600260008573ffffffffffffffffffffffffffffffffffffffff1673ffffffffffffffffffffffffffffffffffffffff16815260200190815260200160002060009054906101000a900460ff1660048111156117f2577f4e487b7100000000000000000000000000000000000000000000000000000000600052602160045260246000fd5b14611832576040517f08c379a000000000000000000000000000000000000000000000000000000000815260040161182990614bad565b60405180910390fd5b6001600481111561186c577f4e487b7100000000000000000000000000000000000000000000000000000000600052602160045260246000fd5b6003600086815260200190815260200160002060070160149054906101000a900460ff1660048111156118c8577f4e487b7100000000000000000000000000000000000000000000000000000000600052602160045260246000fd5b14611908576040517f08c379a00000000000000000000000000000000000000000000000000000000081526004016118ff90614c6d565b60405180910390fd5b42600360008681526020019081526020016000206004015411611960576040517f08c379a000000000000000000000000000000000000000000000000000000000815260040161195790614b0d565b60405180910390fd5b826003600086815260200190815260200160002060070160006101000a81548173ffffffffffffffffffffffffffffffffffffffff021916908373ffffffffffffffffffffffffffffffffffffffff16021790555060026003600086815260200190815260200160002060070160146101000a81548160ff02191690836004811115611a15577f4e487b7100000000000000000000000000000000000000000000000000000000600052602160045260246000fd5b021790555042600760008681526020019081526020016000208190555060086000858152602001908152602001600020339080600181540180825580915050600190039060005260206000200160009091909190916101000a81548173ffffffffffffffffffffffffffffffffffffffff021916908373ffffffffffffffffffffffffffffffffffffffff16021790555060086000858152602001908152602001600020839080600181540180825580915050600190039060005260206000200160009091909190916101000a81548173ffffffffffffffffffffffffffffffffffffffff021916908373ffffffffffffffffffffffffffffffffffffffff1602179055507f7b1f1b9f258343e4507ba533f8ff285eb463d07c0adf8a9bf47be97ecc39b12b84846002604051611b4e93929190614d8c565b60405180910390a150505050565b606060008054906101000a900473ffffffffffffffffffffffffffffffffffffffff1673ffffffffffffffffffffffffffffffffffffffff163373ffffffffffffffffffffffffffffffffffffffff1614611bec576040517f08c379a0000000000000000000000000000000000000000000000000000000008152600401611be390614cad565b60405180910390fd5b6005805480602002602001604051908101604052809291908181526020018280548015611c6e57602002820191906000526020600020905b8160009054906101000a900473ffffffffffffffffffffffffffffffffffffffff1673ffffffffffffffffffffffffffffffffffffffff1681526020019060010190808311611c24575b5050505050905090565b60086020528160005260406000208181548110611c9457600080fd5b906000526020600020016000915091509054906101000a900473ffffffffffffffffffffffffffffffffffffffff1681565b6000806000808480600360008381526020019081526020016000206000015414611d25576040517f08c379a0000000000000000000000000000000000000000000000000000000008152600401611d1c90614aed565b60405180910390fd5b856000600360008381526020019081526020016000206040518061012001604052908160008201548152602001600182018054611d6190615108565b80601f0160208091040260200160405190810160405280929190818152602001828054611d8d90615108565b8015611dda5780601f10611daf57610100808354040283529160200191611dda565b820191906000526020600020905b815481529060010190602001808311611dbd57829003601f168201915b505050505081526020016002820154815260200160038201548152602001600482015481526020016005820160009054906101000a900473ffffffffffffffffffffffffffffffffffffffff1673ffffffffffffffffffffffffffffffffffffffff1673ffffffffffffffffffffffffffffffffffffffff1681526020016006820160009054906101000a900473ffffffffffffffffffffffffffffffffffffffff1673ffffffffffffffffffffffffffffffffffffffff1673ffffffffffffffffffffffffffffffffffffffff1681526020016007820160009054906101000a900473ffffffffffffffffffffffffffffffffffffffff1673ffffffffffffffffffffffffffffffffffffffff1673ffffffffffffffffffffffffffffffffffffffff1681526020016007820160149054906101000a900460ff166004811115611f4e577f4e487b7100000000000000000000000000000000000000000000000000000000600052602160045260246000fd5b6004811115611f86577f4e487b7100000000000000000000000000000000000000000000000000000000600052602160045260246000fd5b81525050905060008054906101000a900473ffffffffffffffffffffffffffffffffffffffff1673ffffffffffffffffffffffffffffffffffffffff163373ffffffffffffffffffffffffffffffffffffffff16148061201557508060a0015173ffffffffffffffffffffffffffffffffffffffff163373ffffffffffffffffffffffffffffffffffffffff16145b8061204f57508060e0015173ffffffffffffffffffffffffffffffffffffffff163373ffffffffffffffffffffffffffffffffffffffff16145b61208e576040517f08c379a000000000000000000000000000000000000000000000000000000000815260040161208590614b2d565b60405180910390fd5b6000600360008a815260200190815260200160002060405180610120016040529081600082015481526020016001820180546120c990615108565b80601f01602080910402602001604051908101604052809291908181526020018280546120f590615108565b80156121425780601f1061211757610100808354040283529160200191612142565b820191906000526020600020905b81548152906001019060200180831161212557829003601f168201915b505050505081526020016002820154815260200160038201548152602001600482015481526020016005820160009054906101000a900473ffffffffffffffffffffffffffffffffffffffff1673ffffffffffffffffffffffffffffffffffffffff1673ffffffffffffffffffffffffffffffffffffffff1681526020016006820160009054906101000a900473ffffffffffffffffffffffffffffffffffffffff1673ffffffffffffffffffffffffffffffffffffffff1673ffffffffffffffffffffffffffffffffffffffff1681526020016007820160009054906101000a900473ffffffffffffffffffffffffffffffffffffffff1673ffffffffffffffffffffffffffffffffffffffff1673ffffffffffffffffffffffffffffffffffffffff1681526020016007820160149054906101000a900460ff1660048111156122b6577f4e487b7100000000000000000000000000000000000000000000000000000000600052602160045260246000fd5b60048111156122ee577f4e487b7100000000000000000000000000000000000000000000000000000000600052602160045260246000fd5b81525050905060048081111561232d577f4e487b7100000000000000000000000000000000000000000000000000000000600052602160045260246000fd5b816101000151600481111561236b577f4e487b7100000000000000000000000000000000000000000000000000000000600052602160045260246000fd5b149450841561238957600080600060019750975097509750506123ea565b428160800151111597506000428260800151116123a75760006123b8565b4282608001516123b79190614fa6565b5b905062015180816123c99190614f75565b975088806123d8575060078811155b96508888886000985098509850985050505b5050509193509193565b60606000806000806000806000888060036000838152602001908152602001600020600001541461245a576040517f08c379a000000000000000000000000000000000000000000000000000000000815260040161245190614aed565b60405180910390fd5b6000600360008c8152602001908152602001600020604051806101200160405290816000820154815260200160018201805461249590615108565b80601f01602080910402602001604051908101604052809291908181526020018280546124c190615108565b801561250e5780601f106124e35761010080835404028352916020019161250e565b820191906000526020600020905b8154815290600101906020018083116124f157829003601f168201915b505050505081526020016002820154815260200160038201548152602001600482015481526020016005820160009054906101000a900473ffffffffffffffffffffffffffffffffffffffff1673ffffffffffffffffffffffffffffffffffffffff1673ffffffffffffffffffffffffffffffffffffffff1681526020016006820160009054906101000a900473ffffffffffffffffffffffffffffffffffffffff1673ffffffffffffffffffffffffffffffffffffffff1673ffffffffffffffffffffffffffffffffffffffff1681526020016007820160009054906101000a900473ffffffffffffffffffffffffffffffffffffffff1673ffffffffffffffffffffffffffffffffffffffff1673ffffffffffffffffffffffffffffffffffffffff1681526020016007820160149054906101000a900460ff166004811115612682577f4e487b7100000000000000000000000000000000000000000000000000000000600052602160045260246000fd5b60048111156126ba577f4e487b7100000000000000000000000000000000000000000000000000000000600052602160045260246000fd5b81525050905080602001518160400151826060015183608001518461010001518560a001518660c001518760e00151995099509950995099509950995099505050919395975091939597565b6001806004811115612741577f4e487b7100000000000000000000000000000000000000000000000000000000600052602160045260246000fd5b600260003373ffffffffffffffffffffffffffffffffffffffff1673ffffffffffffffffffffffffffffffffffffffff16815260200190815260200160002060009054906101000a900460ff1660048111156127c6577f4e487b7100000000000000000000000000000000000000000000000000000000600052602160045260246000fd5b14612806576040517f08c379a00000000000000000000000000000000000000000000000000000000081526004016127fd90614ced565b60405180910390fd5b600085511161284a576040517f08c379a000000000000000000000000000000000000000000000000000000000815260040161284190614b8d565b60405180910390fd5b81831061288c576040517f08c379a000000000000000000000000000000000000000000000000000000000815260040161288390614d0d565b60405180910390fd5b428311156128cf576040517f08c379a00000000000000000000000000000000000000000000000000000000081526004016128c690614ccd565b60405180910390fd5b60405180610120016040528060015481526020018681526020018581526020018481526020018381526020013373ffffffffffffffffffffffffffffffffffffffff168152602001600073ffffffffffffffffffffffffffffffffffffffff168152602001600073ffffffffffffffffffffffffffffffffffffffff1681526020016000600481111561298b577f4e487b7100000000000000000000000000000000000000000000000000000000600052602160045260246000fd5b8152506003600060015481526020019081526020016000206000820151816000015560208201518160010190805190602001906129c9929190613e7a565b5060408201518160020155606082015181600301556080820151816004015560a08201518160050160006101000a81548173ffffffffffffffffffffffffffffffffffffffff021916908373ffffffffffffffffffffffffffffffffffffffff16021790555060c08201518160060160006101000a81548173ffffffffffffffffffffffffffffffffffffffff021916908373ffffffffffffffffffffffffffffffffffffffff16021790555060e08201518160070160006101000a81548173ffffffffffffffffffffffffffffffffffffffff021916908373ffffffffffffffffffffffffffffffffffffffff1602179055506101008201518160070160146101000a81548160ff02191690836004811115612b0f577f4e487b7100000000000000000000000000000000000000000000000000000000600052602160045260246000fd5b02179055509050504260076000600154815260200190815260200160002081905550600860006001548152602001908152602001600020339080600181540180825580915050600190039060005260206000200160009091909190916101000a81548173ffffffffffffffffffffffffffffffffffffffff021916908373ffffffffffffffffffffffffffffffffffffffff1602179055507fd79033df2fcd9480827785cc2b6fe3bd6fd5bfefd10987f4a6cd991f5a0ccdc26001548686868633604051612be296959493929190614dc3565b60405180910390a160016000815480929190612bfd9061513a565b91905055505050505050565b8080600360008381526020019081526020016000206000015414612c62576040517f08c379a0000000000000000000000000000000000000000000000000000000008152600401612c5990614aed565b60405180910390fd5b600480811115612c9b577f4e487b7100000000000000000000000000000000000000000000000000000000600052602160045260246000fd5b6003600084815260200190815260200160002060070160149054906101000a900460ff166004811115612cf7577f4e487b7100000000000000000000000000000000000000000000000000000000600052602160045260246000fd5b1415612d38576040517f08c379a0000000000000000000000000000000000000000000000000000000008152600401612d2f90614a8d565b60405180910390fd5b60008054906101000a900473ffffffffffffffffffffffffffffffffffffffff1673ffffffffffffffffffffffffffffffffffffffff163373ffffffffffffffffffffffffffffffffffffffff161480612e9357506003600083815260200190815260200160002060050160009054906101000a900473ffffffffffffffffffffffffffffffffffffffff1673ffffffffffffffffffffffffffffffffffffffff163373ffffffffffffffffffffffffffffffffffffffff16148015612e92575060036004811115612e33577f4e487b7100000000000000000000000000000000000000000000000000000000600052602160045260246000fd5b6003600084815260200190815260200160002060070160149054906101000a900460ff166004811115612e8f577f4e487b7100000000000000000000000000000000000000000000000000000000600052602160045260246000fd5b14155b5b80612f9e57506003600083815260200190815260200160002060070160009054906101000a900473ffffffffffffffffffffffffffffffffffffffff1673ffffffffffffffffffffffffffffffffffffffff163373ffffffffffffffffffffffffffffffffffffffff16148015612f9d575060026004811115612f3f577f4e487b7100000000000000000000000000000000000000000000000000000000600052602160045260246000fd5b6003600084815260200190815260200160002060070160149054906101000a900460ff166004811115612f9b577f4e487b7100000000000000000000000000000000000000000000000000000000600052602160045260246000fd5b145b5b612fdd576040517f08c379a0000000000000000000000000000000000000000000000000000000008152600401612fd490614b6d565b60405180910390fd5b60046003600084815260200190815260200160002060070160146101000a81548160ff0219169083600481111561303d577f4e487b7100000000000000000000000000000000000000000000000000000000600052602160045260246000fd5b021790555042600760008481526020019081526020016000208190555060086000838152602001908152602001600020339080600181540180825580915050600190039060005260206000200160009091909190916101000a81548173ffffffffffffffffffffffffffffffffffffffff021916908373ffffffffffffffffffffffffffffffffffffffff1602179055507f5a41088291f050dab11b8aeaaeaa8fd33f2225751a5d64008f812e0362ef472582336040516130ff929190614d63565b60405180910390a1817fb5eb47cf092caf5aa3d3a45128033de074debc2b4f6a9475df76f993dc72c08b60008060405161313a92919061493a565b60405180910390a25050565b60015481565b600360205280600052604060002060009150905080600001549080600101805461317590615108565b80601f01602080910402602001604051908101604052809291908181526020018280546131a190615108565b80156131ee5780601f106131c3576101008083540402835291602001916131ee565b820191906000526020600020905b8154815290600101906020018083116131d157829003601f168201915b5050505050908060020154908060030154908060040154908060050160009054906101000a900473ffffffffffffffffffffffffffffffffffffffff16908060060160009054906101000a900473ffffffffffffffffffffffffffffffffffffffff16908060070160009054906101000a900473ffffffffffffffffffffffffffffffffffffffff16908060070160149054906101000a900460ff16905089565b606081806003600083815260200190815260200160002060000154146132ea576040517f08c379a00000000000000000000000000000000000000000000000000000000081526004016132e190614aed565b60405180910390fd5b6008600084815260200190815260200160002080548060200260200160405190810160405280929190818152602001828054801561337d57602002820191906000526020600020905b8160009054906101000a900473ffffffffffffffffffffffffffffffffffffffff1673ffffffffffffffffffffffffffffffffffffffff1681526020019060010190808311613333575b5050505050915050919050565b60046020528060005260406000206000915090508060000160009054906101000a900460ff16908060000160019054906101000a900460ff16908060000160029054906101000a900460ff16908060000160039054906101000a900460ff16905084565b60008054906101000a900473ffffffffffffffffffffffffffffffffffffffff1681565b600380600481111561344d577f4e487b7100000000000000000000000000000000000000000000000000000000600052602160045260246000fd5b600260003373ffffffffffffffffffffffffffffffffffffffff1673ffffffffffffffffffffffffffffffffffffffff16815260200190815260200160002060009054906101000a900460ff1660048111156134d2577f4e487b7100000000000000000000000000000000000000000000000000000000600052602160045260246000fd5b14613512576040517f08c379a000000000000000000000000000000000000000000000000000000000815260040161350990614ced565b60405180910390fd5b818060036000838152602001908152602001600020600001541461356b576040517f08c379a000000000000000000000000000000000000000000000000000000000815260040161356290614aed565b60405180910390fd5b600260048111156135a5577f4e487b7100000000000000000000000000000000000000000000000000000000600052602160045260246000fd5b6003600085815260200190815260200160002060070160149054906101000a900460ff166004811115613601577f4e487b7100000000000000000000000000000000000000000000000000000000600052602160045260246000fd5b14613641576040517f08c379a000000000000000000000000000000000000000000000000000000000815260040161363890614bed565b60405180910390fd5b42600360008581526020019081526020016000206004015411613699576040517f08c379a000000000000000000000000000000000000000000000000000000000815260040161369090614b0d565b60405180910390fd5b600380600085815260200190815260200160002060070160146101000a81548160ff021916908360048111156136f8577f4e487b7100000000000000000000000000000000000000000000000000000000600052602160045260246000fd5b021790555042600760008581526020019081526020016000208190555060086000848152602001908152602001600020339080600181540180825580915050600190039060005260206000200160009091909190916101000a81548173ffffffffffffffffffffffffffffffffffffffff021916908373ffffffffffffffffffffffffffffffffffffffff1602179055507f5e4f9a3d8e8d8fc42bbe98104b324b50682ae0e3f892f0294dd16a226d48c21c83336040516137ba929190614d63565b60405180910390a1505050565b6001806004811115613802577f4e487b7100000000000000000000000000000000000000000000000000000000600052602160045260246000fd5b600260003373ffffffffffffffffffffffffffffffffffffffff1673ffffffffffffffffffffffffffffffffffffffff16815260200190815260200160002060009054906101000a900460ff166004811115613887577f4e487b7100000000000000000000000000000000000000000000000000000000600052602160045260246000fd5b146138c7576040517f08c379a00000000000000000000000000000000000000000000000000000000081526004016138be90614ced565b60405180910390fd5b8280600360008381526020019081526020016000206000015414613920576040517f08c379a000000000000000000000000000000000000000000000000000000000815260040161391790614aed565b60405180910390fd5b6002600481111561395a577f4e487b7100000000000000000000000000000000000000000000000000000000600052602160045260246000fd5b600260008573ffffffffffffffffffffffffffffffffffffffff1673ffffffffffffffffffffffffffffffffffffffff16815260200190815260200160002060009054906101000a900460ff1660048111156139df577f4e487b7100000000000000000000000000000000000000000000000000000000600052602160045260246000fd5b14613a1f576040517f08c379a0000000000000000000000000000000000000000000000000000000008152600401613a1690614c4d565b60405180910390fd5b60006004811115613a59577f4e487b7100000000000000000000000000000000000000000000000000000000600052602160045260246000fd5b6003600086815260200190815260200160002060070160149054906101000a900460ff166004811115613ab5577f4e487b7100000000000000000000000000000000000000000000000000000000600052602160045260246000fd5b14613af5576040517f08c379a0000000000000000000000000000000000000000000000000000000008152600401613aec90614aad565b60405180910390fd5b42600360008681526020019081526020016000206004015411613b4d576040517f08c379a0000000000000000000000000000000000000000000000000000000008152600401613b4490614b0d565b60405180910390fd5b826003600086815260200190815260200160002060060160006101000a81548173ffffffffffffffffffffffffffffffffffffffff021916908373ffffffffffffffffffffffffffffffffffffffff16021790555060016003600086815260200190815260200160002060070160146101000a81548160ff02191690836004811115613c02577f4e487b7100000000000000000000000000000000000000000000000000000000600052602160045260246000fd5b021790555042600760008681526020019081526020016000208190555060086000858152602001908152602001600020339080600181540180825580915050600190039060005260206000200160009091909190916101000a81548173ffffffffffffffffffffffffffffffffffffffff021916908373ffffffffffffffffffffffffffffffffffffffff16021790555060086000858152602001908152602001600020839080600181540180825580915050600190039060005260206000200160009091909190916101000a81548173ffffffffffffffffffffffffffffffffffffffff021916908373ffffffffffffffffffffffffffffffffffffffff1602179055507f7b1f1b9f258343e4507ba533f8ff285eb463d07c0adf8a9bf47be97ecc39b12b84846001604051613d3b93929190614d8c565b60405180910390a150505050565b613d51613f00565b600460008373ffffffffffffffffffffffffffffffffffffffff1673ffffffffffffffffffffffffffffffffffffffff1681526020019081526020016000206040518060800160405290816000820160009054906101000a900460ff166004811115613de6577f4e487b7100000000000000000000000000000000000000000000000000000000600052602160045260246000fd5b6004811115613e1e577f4e487b7100000000000000000000000000000000000000000000000000000000600052602160045260246000fd5b81526020016000820160019054906101000a900460ff161515151581526020016000820160029054906101000a900460ff161515151581526020016000820160039054906101000a900460ff1615151515815250509050919050565b828054613e8690615108565b90600052602060002090601f016020900481019282613ea85760008555613eef565b82601f10613ec157805160ff1916838001178555613eef565b82800160010185558215613eef579182015b82811115613eee578251825591602001919060010190613ed3565b5b509050613efc9190613f66565b5090565b604051806080016040528060006004811115613f45577f4e487b7100000000000000000000000000000000000000000000000000000000600052602160045260246000fd5b81526020016000151581526020016000151581526020016000151581525090565b5b80821115613f7f576000816000905550600101613f67565b5090565b6000613f96613f9184614ef0565b614ebf565b905082815260208101848484011115613fae57600080fd5b613fb98482856150c6565b509392505050565b600081359050613fd0816152a7565b92915050565b600081359050613fe5816152be565b92915050565b600081359050613ffa816152d5565b92915050565b600082601f83011261401157600080fd5b8135614021848260208601613f83565b91505092915050565b600081359050614039816152e5565b92915050565b60006020828403121561405157600080fd5b600061405f84828501613fc1565b91505092915050565b60006020828403121561407a57600080fd5b600061408884828501613feb565b91505092915050565b600080600080608085870312156140a757600080fd5b600085013567ffffffffffffffff8111156140c157600080fd5b6140cd87828801614000565b94505060206140de8782880161402a565b93505060406140ef8782880161402a565b92505060606141008782880161402a565b91505092959194509250565b60006020828403121561411e57600080fd5b600061412c8482850161402a565b91505092915050565b6000806040838503121561414857600080fd5b60006141568582860161402a565b925050602061416785828601613fd6565b9150509250929050565b6000806040838503121561418457600080fd5b60006141928582860161402a565b92505060206141a38582860161402a565b9150509250929050565b60006141b983836141e3565b60208301905092915050565b6141ce8161505a565b82525050565b6141dd81614fec565b82525050565b6141ec81614fda565b82525050565b6141fb81614fda565b82525050565b600061420c82614f30565b6142168185614f53565b935061422183614f20565b8060005b8381101561425257815161423988826141ad565b975061424483614f46565b925050600181019050614225565b5085935050505092915050565b61426881614ffe565b82525050565b61427781614ffe565b82525050565b6142868161506c565b82525050565b6142958161506c565b82525050565b6142a48161507e565b82525050565b6142b381615090565b82525050565b60006142c482614f3b565b6142ce8185614f64565b93506142de8185602086016150d5565b6142e78161526e565b840191505092915050565b60006142ff601083614f64565b91507f416c726561647920526563616c6c6564000000000000000000000000000000006000830152602082019050919050565b600061433f601c83614f64565b91507f4261746368206e6f7420726561647920666f72207472616e73666572000000006000830152602082019050919050565b600061437f601283614f64565b91507f416c726561647920686173206120726f6c6500000000000000000000000000006000830152602082019050919050565b60006143bf601483614f64565b91507f426174636820646f6573206e6f742065786973740000000000000000000000006000830152602082019050919050565b60006143ff600d83614f64565b91507f42617463682065787069726564000000000000000000000000000000000000006000830152602082019050919050565b600061443f601f83614f64565b91507f4e6f7420617574686f72697a656420666f7220626174636820616c65727473006000830152602082019050919050565b600061447f601983614f64565b91507f5265717565737420616c72656164792070726f636573736564000000000000006000830152602082019050919050565b60006144bf601883614f64565b91507f4e6f7420617574686f72697a656420746f20726563616c6c00000000000000006000830152602082019050919050565b60006144ff601283614f64565b91507f44727567206e616d6520726571756972656400000000000000000000000000006000830152602082019050919050565b600061453f601083614f64565b91507f496e76616c69642070726f7669646572000000000000000000000000000000006000830152602082019050919050565b600061457f601d83614f64565b91507f43616e6e6f74207265717565737420526567756c61746f7220726f6c650000006000830152602082019050919050565b60006145bf601783614f64565b91507f4261746368206e6f742064656c697665726564207965740000000000000000006000830152602082019050919050565b60006145ff601783614f64565b91507f5265717565737420616c72656164792070656e64696e670000000000000000006000830152602082019050919050565b600061463f601083614f64565b91507f4e6f207265717565737420666f756e64000000000000000000000000000000006000830152602082019050919050565b600061467f601383614f64565b91507f496e76616c6964206469737472696275746f72000000000000000000000000006000830152602082019050919050565b60006146bf601483614f64565b91507f4261746368206e6f7420696e207472616e7369740000000000000000000000006000830152602082019050919050565b60006146ff601c83614f64565b91507f43616e6e6f742061737369676e20526567756c61746f7220726f6c65000000006000830152602082019050919050565b600061473f601f83614f64565b91507f4f6e6c7920726567756c61746f722063616e2061737369676e20726f6c6573006000830152602082019050919050565b600061477f602a83614f64565b91507f4d616e75666163747572696e6720646174652063616e6e6f7420626520696e2060008301527f74686520667574757265000000000000000000000000000000000000000000006020830152604082019050919050565b60006147e5601e83614f64565b91507f4e6f7420617574686f72697a656420666f72207468697320616374696f6e00006000830152602082019050919050565b6000614825602183614f64565b91507f496e76616c6964206d616e75666163747572696e672f6578706972792064617460008301527f65000000000000000000000000000000000000000000000000000000000000006020830152604082019050919050565b608082016000820151614894600085018261427d565b5060208201516148a7602085018261425f565b5060408201516148ba604085018261425f565b5060608201516148cd606085018261425f565b50505050565b6148dc81615050565b82525050565b60006020820190506148f760008301846141f2565b92915050565b600060208201905061491260008301846141d4565b92915050565b600060208201905081810360008301526149328184614201565b905092915050565b600060408201905061494f600083018561426e565b61495c60208301846142aa565b9392505050565b6000608082019050614978600083018761426e565b61498560208301866148d3565b614992604083018561426e565b61499f606083018461426e565b95945050505050565b60006020820190506149bd600083018461428c565b92915050565b60006080820190506149d8600083018761428c565b6149e5602083018661426e565b6149f2604083018561426e565b6149ff606083018461426e565b95945050505050565b6000610100820190508181036000830152614a23818b6142b9565b9050614a32602083018a6148d3565b614a3f60408301896148d3565b614a4c60608301886148d3565b614a59608083018761429b565b614a6660a08301866141d4565b614a7360c08301856141d4565b614a8060e08301846141d4565b9998505050505050505050565b60006020820190508181036000830152614aa6816142f2565b9050919050565b60006020820190508181036000830152614ac681614332565b9050919050565b60006020820190508181036000830152614ae681614372565b9050919050565b60006020820190508181036000830152614b06816143b2565b9050919050565b60006020820190508181036000830152614b26816143f2565b9050919050565b60006020820190508181036000830152614b4681614432565b9050919050565b60006020820190508181036000830152614b6681614472565b9050919050565b60006020820190508181036000830152614b86816144b2565b9050919050565b60006020820190508181036000830152614ba6816144f2565b9050919050565b60006020820190508181036000830152614bc681614532565b9050919050565b60006020820190508181036000830152614be681614572565b9050919050565b60006020820190508181036000830152614c06816145b2565b9050919050565b60006020820190508181036000830152614c26816145f2565b9050919050565b60006020820190508181036000830152614c4681614632565b9050919050565b60006020820190508181036000830152614c6681614672565b9050919050565b60006020820190508181036000830152614c86816146b2565b9050919050565b60006020820190508181036000830152614ca6816146f2565b9050919050565b60006020820190508181036000830152614cc681614732565b9050919050565b60006020820190508181036000830152614ce681614772565b9050919050565b60006020820190508181036000830152614d06816147d8565b9050919050565b60006020820190508181036000830152614d2681614818565b9050919050565b6000608082019050614d42600083018461487e565b92915050565b6000602082019050614d5d60008301846148d3565b92915050565b6000604082019050614d7860008301856148d3565b614d8560208301846141f2565b9392505050565b6000606082019050614da160008301866148d3565b614dae60208301856141c5565b614dbb604083018461429b565b949350505050565b600060c082019050614dd860008301896148d3565b8181036020830152614dea81886142b9565b9050614df960408301876148d3565b614e0660608301866148d3565b614e1360808301856148d3565b614e2060a08301846141f2565b979650505050505050565b600061012082019050614e41600083018c6148d3565b8181036020830152614e53818b6142b9565b9050614e62604083018a6148d3565b614e6f60608301896148d3565b614e7c60808301886148d3565b614e8960a08301876141d4565b614e9660c08301866141d4565b614ea360e08301856141d4565b614eb161010083018461429b565b9a9950505050505050505050565b6000604051905081810181811067ffffffffffffffff82111715614ee657614ee561523f565b5b8060405250919050565b600067ffffffffffffffff821115614f0b57614f0a61523f565b5b601f19601f8301169050602081019050919050565b6000819050602082019050919050565b600081519050919050565b600081519050919050565b6000602082019050919050565b600082825260208201905092915050565b600082825260208201905092915050565b6000614f8082615050565b9150614f8b83615050565b925082614f9b57614f9a6151b2565b5b828204905092915050565b6000614fb182615050565b9150614fbc83615050565b925082821015614fcf57614fce615183565b5b828203905092915050565b6000614fe582615030565b9050919050565b6000614ff782615030565b9050919050565b60008115159050919050565b60008190506150188261527f565b919050565b600081905061502b82615293565b919050565b600073ffffffffffffffffffffffffffffffffffffffff82169050919050565b6000819050919050565b6000615065826150a2565b9050919050565b60006150778261500a565b9050919050565b60006150898261501d565b9050919050565b600061509b82615050565b9050919050565b60006150ad826150b4565b9050919050565b60006150bf82615030565b9050919050565b82818337600083830152505050565b60005b838110156150f35780820151818401526020810190506150d8565b83811115615102576000848401525b50505050565b6000600282049050600182168061512057607f821691505b6020821081141561513457615133615210565b5b50919050565b600061514582615050565b91507fffffffffffffffffffffffffffffffffffffffffffffffffffffffffffffffff82141561517857615177615183565b5b600182019050919050565b7f4e487b7100000000000000000000000000000000000000000000000000000000600052601160045260246000fd5b7f4e487b7100000000000000000000000000000000000000000000000000000000600052601260045260246000fd5b7f4e487b7100000000000000000000000000000000000000000000000000000000600052602160045260246000fd5b7f4e487b7100000000000000000000000000000000000000000000000000000000600052602260045260246000fd5b7f4e487b7100000000000000000000000000000000000000000000000000000000600052604160045260246000fd5b6000601f19601f8301169050919050565b600581106152905761528f6151e1565b5b50565b600581106152a4576152a36151e1565b5b50565b6152b081614fda565b81146152bb57600080fd5b50565b6152c781614fec565b81146152d257600080fd5b50565b600581106152e257600080fd5b50565b6152ee81615050565b81146152f957600080fd5b5056fea264697066735822122045c97b80567e363bcb155cf90597946e4b0e0d939b932e29498143bffaa924fe64736f6c63430008000033",
  "immutableReferences": {},
  "source": "// SPDX-License-Identifier: MIT\r\npragma solidity ^0.8.0;\r\n\r\ncontract PharmaSupplyChain {\r\n    // Role Definitions\r\n    enum Role {\r\n        None,\r\n        Manufacturer,\r\n        Distributor,\r\n        HealthcareProvider,\r\n        Regulator\r\n    }\r\n    enum Status {\r\n        Created,\r\n        InTransit,\r\n        Delivered,\r\n        Verified,\r\n        Recalled\r\n    }\r\n\r\n    struct Batch {\r\n        uint batchID;\r\n        string drugName;\r\n        uint quantity;\r\n        uint manufacturingDate;\r\n        uint expiryDate;\r\n        address payable manufacturer;\r\n        address payable distributor;\r\n        address payable healthcareProvider;\r\n        Status status;\r\n    }\r\n\r\n    struct RoleRequest {\r\n        Role requestedRole;\r\n        bool exists;\r\n        bool approved;\r\n        bool processed;\r\n    }\r\n\r\n    // State Variables\r\n    address payable public regulator;\r\n    uint public nextBatchID;\r\n    mapping(address => Role) public userRoles;\r\n    mapping(uint => Batch) public batches;\r\n    mapping(address => RoleRequest) public roleRequests;\r\n    address[] public pendingRequests;\r\n    mapping(address => uint) private requestIndices;\r\n    mapping(uint => uint) public batchStatusTimestamps;\r\n    mapping(uint => address[]) public batchHistory;\r\n\r\n    // Events\r\n    event RoleAssigned(address indexed user, Role role);\r\n    event BatchCreated(\r\n        uint batchID,\r\n        string drugName,\r\n        uint quantity,\r\n        uint manufacturingDate,\r\n        uint expiryDate,\r\n        address manufacturer\r\n    );\r\n    event BatchTransferred(uint batchID, address to, Status status);\r\n    event BatchVerified(uint batchID, address healthcareProvider);\r\n    event BatchRecalled(uint batchID, address recalledBy);\r\n    event ExpirationAlert(\r\n        uint indexed batchID,\r\n        bool isExpired,\r\n        uint daysRemaining\r\n    );\r\n    event RoleRequested(address indexed user, Role requestedRole);\r\n    event RoleApproved(address indexed user, Role role);\r\n    event RoleDenied(address indexed user, Role role);\r\n\r\n    // Modifiers\r\n    modifier onlyRole(Role requiredRole) {\r\n        require(\r\n            userRoles[msg.sender] == requiredRole,\r\n            \"Not authorized for this action\"\r\n        );\r\n        _;\r\n    }\r\n\r\n    modifier onlyRegulator() {\r\n        require(msg.sender == regulator, \"Only regulator can assign roles\");\r\n        _;\r\n    }\r\n\r\n    modifier batchExists(uint batchID) {\r\n        require(batches[batchID].batchID == batchID, \"Batch does not exist\");\r\n        _;\r\n    }\r\n\r\n    modifier onlyBatchAuthorized(uint batchID) {\r\n        Batch memory batch = batches[batchID];\r\n        require(\r\n            msg.sender == regulator ||\r\n                msg.sender == batch.manufacturer ||\r\n                msg.sender == batch.healthcareProvider,\r\n            \"Not authorized for batch alerts\"\r\n        );\r\n        _;\r\n    }\r\n\r\n    // Constructor\r\n    constructor() {\r\n        regulator = payable(msg.sender);\r\n        userRoles[msg.sender] = Role.Regulator;\r\n        nextBatchID = 1;\r\n        emit RoleAssigned(msg.sender, Role.Regulator);\r\n    }\r\n\r\n    // Role Management Functions\r\n    function requestRole(Role requestedRole) public {\r\n        require(userRoles[msg.sender] == Role.None, \"Already has a role\");\r\n        require(\r\n            requestedRole != Role.Regulator,\r\n            \"Cannot request Regulator role\"\r\n        );\r\n        require(\r\n            !roleRequests[msg.sender].exists ||\r\n                roleRequests[msg.sender].processed,\r\n            \"Request already pending\"\r\n        );\r\n\r\n        roleRequests[msg.sender] = RoleRequest({\r\n            requestedRole: requestedRole,\r\n            exists: true,\r\n            approved: false,\r\n            processed: false\r\n        });\r\n\r\n        pendingRequests.push(msg.sender);\r\n        requestIndices[msg.sender] = pendingRequests.length - 1;\r\n        emit RoleRequested(msg.sender, requestedRole);\r\n    }\r\n\r\n    function approveRoleRequest(address user) public onlyRegulator {\r\n        require(roleRequests[user].exists, \"No request found\");\r\n        require(!roleRequests[user].processed, \"Request already processed\");\r\n        require(\r\n            roleRequests[user].requestedRole != Role.Regulator,\r\n            \"Cannot assign Regulator role\"\r\n        );\r\n\r\n        Role requestedRole = roleRequests[user].requestedRole;\r\n        userRoles[user] = requestedRole;\r\n        roleRequests[user].approved = true;\r\n        roleRequests[user].processed = true;\r\n\r\n        // Efficient removal using swap-and-pop\r\n        uint idx = requestIndices[user];\r\n        address last = pendingRequests[pendingRequests.length - 1];\r\n        pendingRequests[idx] = last;\r\n        requestIndices[last] = idx;\r\n        pendingRequests.pop();\r\n        delete requestIndices[user];\r\n\r\n        emit RoleApproved(user, requestedRole);\r\n        emit RoleAssigned(user, requestedRole);\r\n    }\r\n\r\n    function denyRoleRequest(address user) public onlyRegulator {\r\n        require(roleRequests[user].exists, \"No request found\");\r\n        require(!roleRequests[user].processed, \"Request already processed\");\r\n\r\n        roleRequests[user].processed = true;\r\n\r\n        // Efficient removal using swap-and-pop\r\n        uint idx = requestIndices[user];\r\n        address last = pendingRequests[pendingRequests.length - 1];\r\n        pendingRequests[idx] = last;\r\n        requestIndices[last] = idx;\r\n        pendingRequests.pop();\r\n        delete requestIndices[user];\r\n\r\n        emit RoleDenied(user, roleRequests[user].requestedRole);\r\n    }\r\n\r\n    // Batch Lifecycle Functions\r\n    function createBatch(\r\n        string memory drugName,\r\n        uint quantity,\r\n        uint manufacturingDate,\r\n        uint expiryDate\r\n    ) public onlyRole(Role.Manufacturer) {\r\n        require(bytes(drugName).length > 0, \"Drug name required\");\r\n        require(\r\n            manufacturingDate < expiryDate,\r\n            \"Invalid manufacturing/expiry date\"\r\n        );\r\n        require(\r\n            manufacturingDate <= block.timestamp,\r\n            \"Manufacturing date cannot be in the future\"\r\n        );\r\n\r\n        batches[nextBatchID] = Batch({\r\n            batchID: nextBatchID,\r\n            drugName: drugName,\r\n            quantity: quantity,\r\n            manufacturingDate: manufacturingDate,\r\n            expiryDate: expiryDate,\r\n            manufacturer: payable(msg.sender),\r\n            distributor: payable(address(0)),\r\n            healthcareProvider: payable(address(0)),\r\n            status: Status.Created\r\n        });\r\n\r\n        batchStatusTimestamps[nextBatchID] = block.timestamp;\r\n        batchHistory[nextBatchID].push(msg.sender);\r\n        emit BatchCreated(\r\n            nextBatchID,\r\n            drugName,\r\n            quantity,\r\n            manufacturingDate,\r\n            expiryDate,\r\n            msg.sender\r\n        );\r\n        nextBatchID++;\r\n    }\r\n\r\n    function transferToDistributor(\r\n        uint batchID,\r\n        address payable distributor\r\n    ) public onlyRole(Role.Manufacturer) batchExists(batchID) {\r\n        require(\r\n            userRoles[distributor] == Role.Distributor,\r\n            \"Invalid distributor\"\r\n        );\r\n        require(\r\n            batches[batchID].status == Status.Created,\r\n            \"Batch not ready for transfer\"\r\n        );\r\n        require(batches[batchID].expiryDate > block.timestamp, \"Batch expired\");\r\n\r\n        batches[batchID].distributor = distributor;\r\n        batches[batchID].status = Status.InTransit;\r\n        batchStatusTimestamps[batchID] = block.timestamp;\r\n        batchHistory[batchID].push(msg.sender);\r\n        batchHistory[batchID].push(distributor);\r\n        emit BatchTransferred(batchID, distributor, Status.InTransit);\r\n    }\r\n\r\n    function transferToHealthcare(\r\n        uint batchID,\r\n        address payable healthcareProvider\r\n    ) public onlyRole(Role.Distributor) batchExists(batchID) {\r\n        require(\r\n            userRoles[healthcareProvider] == Role.HealthcareProvider,\r\n            \"Invalid provider\"\r\n        );\r\n        require(\r\n            batches[batchID].status == Status.InTransit,\r\n            \"Batch not in transit\"\r\n        );\r\n        require(batches[batchID].expiryDate > block.timestamp, \"Batch expired\");\r\n\r\n        batches[batchID].healthcareProvider = healthcareProvider;\r\n        batches[batchID].status = Status.Delivered;\r\n        batchStatusTimestamps[batchID] = block.timestamp;\r\n        batchHistory[batchID].push(msg.sender);\r\n        batchHistory[batchID].push(healthcareProvider);\r\n        emit BatchTransferred(batchID, healthcareProvider, Status.Delivered);\r\n    }\r\n\r\n    function verifyBatch(\r\n        uint batchID\r\n    ) public onlyRole(Role.HealthcareProvider) batchExists(batchID) {\r\n        require(\r\n            batches[batchID].status == Status.Delivered,\r\n            \"Batch not delivered yet\"\r\n        );\r\n        require(batches[batchID].expiryDate > block.timestamp, \"Batch expired\");\r\n\r\n        batches[batchID].status = Status.Verified;\r\n        batchStatusTimestamps[batchID] = block.timestamp;\r\n        batchHistory[batchID].push(msg.sender);\r\n        emit BatchVerified(batchID, msg.sender);\r\n    }\r\n\r\n    function recallBatch(uint batchID) public batchExists(batchID) {\r\n        require(batches[batchID].status != Status.Recalled, \"Already Recalled\");\r\n        require(\r\n            msg.sender == regulator ||\r\n                (msg.sender == batches[batchID].manufacturer &&\r\n                    batches[batchID].status != Status.Verified) ||\r\n                (msg.sender == batches[batchID].healthcareProvider &&\r\n                    batches[batchID].status == Status.Delivered),\r\n            \"Not authorized to recall\"\r\n        );\r\n\r\n        batches[batchID].status = Status.Recalled;\r\n        batchStatusTimestamps[batchID] = block.timestamp;\r\n        batchHistory[batchID].push(msg.sender);\r\n        emit BatchRecalled(batchID, msg.sender);\r\n        emit ExpirationAlert(batchID, false, 0);\r\n    }\r\n\r\n    // View Functions\r\n    function getBatchDetails(\r\n        uint batchID\r\n    )\r\n        public\r\n        view\r\n        batchExists(batchID)\r\n        returns (\r\n            string memory drugName,\r\n            uint quantity,\r\n            uint manufacturingDate,\r\n            uint expiryDate,\r\n            Status status,\r\n            address payable manufacturer,\r\n            address payable distributor,\r\n            address payable healthcareProvider\r\n        )\r\n    {\r\n        Batch memory batch = batches[batchID];\r\n        return (\r\n            batch.drugName,\r\n            batch.quantity,\r\n            batch.manufacturingDate,\r\n            batch.expiryDate,\r\n            batch.status,\r\n            batch.manufacturer,\r\n            batch.distributor,\r\n            batch.healthcareProvider\r\n        );\r\n    }\r\n\r\n    function checkExpirationAlert(\r\n        uint batchID\r\n    )\r\n        public\r\n        view\r\n        batchExists(batchID)\r\n        onlyBatchAuthorized(batchID)\r\n        returns (\r\n            bool isExpired,\r\n            uint daysRemaining,\r\n            bool needsAttention,\r\n            bool isRecalled\r\n        )\r\n    {\r\n        Batch memory batch = batches[batchID];\r\n        isRecalled = (batch.status == Status.Recalled);\r\n\r\n        if (isRecalled) {\r\n            return (false, 0, false, true);\r\n        }\r\n\r\n        isExpired = (batch.expiryDate <= block.timestamp);\r\n        uint secondsRemaining = batch.expiryDate > block.timestamp\r\n            ? batch.expiryDate - block.timestamp\r\n            : 0;\r\n\r\n        daysRemaining = secondsRemaining / 1 days;\r\n        needsAttention = isExpired || daysRemaining <= 7;\r\n\r\n        return (isExpired, daysRemaining, needsAttention, false);\r\n    }\r\n\r\n    // Utility Functions\r\n    function getPendingRequests()\r\n        public\r\n        view\r\n        onlyRegulator\r\n        returns (address[] memory)\r\n    {\r\n        return pendingRequests;\r\n    }\r\n\r\n    function getRequestStatus(\r\n        address user\r\n    ) public view returns (RoleRequest memory) {\r\n        return roleRequests[user];\r\n    }\r\n\r\n    // View Ownership Transfer History\r\n    function getBatchHistory(\r\n        uint batchID\r\n    ) public view batchExists(batchID) returns (address[] memory) {\r\n        return batchHistory[batchID];\r\n    }\r\n}\r\n",
  "sourcePath": "C:\\Users\\Monalisha\\Desktop\\pharma-supply-chain\\contracts\\pharmaSupplyChain.sol",
  "compiler": {
    "name": "solc",
    "version": "0.8.0+commit.c7dfd78e.Emscripten.clang"
  },
  "schemaVersion": "3.4.16",
  "updatedAt": "2025-04-04T06:07:12.907Z",
  "networkType": "ethereum",
  "devdoc": {
    "kind": "dev",
    "methods": {},
    "version": 1
  },
  "userdoc": {
    "kind": "user",
    "methods": {},
    "version": 1
  }
}